:020000040000FA
:06000000B7EF70F01200E2
:0A0006000200E4E100009E0000008B
:100010001E000000E2E10000C60000000200000037
:1000200095EC4CF0E6EC68F00001AB6BA26B9E69BE
:100030009F69A069A169E4EC49F084EC54F0B10E29
:10004000E66E010EE66E29DBE552E5528FEC4AF0D2
:1000500040E12BEC41F0ABEC46F02BEC41F0BDEC79
:1000600047F02BEC41F0E9EC49F02BEC41F00E0E9F
:10007000B2EC4AF02BEC41F0120EB2EC4AF039EC43
:100080004BF05C0EEF6E010EDE6EDD6A59EC43F054
:10009000D890015002E635EC42F009E239EC4BF021
:1000A0009AEC4CF069EC44F0F1E3DB2AEFD72BEC4F
:1000B00041F0ACEC48F02BEC41F0DDEC53F0100ECD
:1000C000EE6EED6A90EC51F001010F6B010EF36ED4
:1000D00001D0F36AF46AE552E5528EEF40F068EC25
:1000E00040F00B0EE12402E3E168E6524BEC4FF0E6
:1000F00074EC44F00B0E5EEC43F0FBEC50F09BEC28
:1001000040F02A0E74EC4AF0FF0E001A011A2FEC90
:1001100049F0030E01C0DBFF4CEC54F00BE1BBECEB
:100120004BF0C1EC44F002E2E16AE552EEEC49F03A
:1001300012E10ED0040EDB500F0B0DE0BBEC4BF0C8
:10014000C1EC44F002E2E16AE552EEEC49F003E171
:100150001B0E5EEC43F0060EF3EC41F000BE0168AE
:100160001B0E001801E1015001E1F7D0060EF3EC7F
:1001700041F000BE01680050011001E1EED050ECEA
:100180004FF065EC10F0C6EC4BF0E76E090EE7CFD0
:10019000DBFFC2EC47F0001803E1015001E1DDD0C4
:1001A000090E89EC4BF001E0CBD05DEC40F0DDECCA
:1001B00053F0C2EC43F03F0EDE16DD6AF80E9FEC02
:1001C00053F001E1015030E0005001E0BFD0015098
:1001D00001E0BCD0FCEC40F0080EEE1801E1ED505F
:1001E00001E1B4D0060EDB6A6D0EABEC44F00A0EF2
:1001F000DB6A77EC42F002E635EC42F001E3A6D090
:1002000078EC4AF000BE0168080E00C0DBFF91ECFC
:1002100041F047EC49F001E08CD00350011801E0B7
:1002200088D00A0EDB2AE5D754EC4FF0DE500414D8
:10023000026EDD500514036E0250031007E1FCEC62
:1002400040F00F0EEE1804E1ED5002E1000E01D077
:10025000010EE6EC40F001E179D0060EDB6A6D0E8E
:10026000ABEC44F0C7EC53F028EC51F000BE016851
:100270002A0E001801E1015023E00A0EDB6A77EC38
:1002800042F002E607EC45F01BE21FEC53F002E1FE
:10029000015016E04EEC49F001E101500EE091EC06
:1002A00041F0F4CF03F0F350001802E103500118BD
:1002B00004E00B0E5EEC43F003D00A0EDB2ADFD71E
:1002C000C7EC53F0080E64EC40F025EC4BF002BE96
:1002D00003682A0E021801E1035008E0060EC7EC7D
:1002E00046F004BE05680450051002E0000E01D07F
:1002F000010EE6EC40F02AE0080EF36E0A0EF3CF92
:10030000DBFF77EC42F002E635EC42F01FE21FEC37
:1003100053F002E101501AE04EEC49F001E10150C6
:100320000CE091EC41F047EC49F002E10350011878
:1003300004E00B0E5EEC43F009D00A0EDB2AE1D795
:10034000F90E89EC4BF002E1060EDB6A040EDB2AA3
:10035000050E01E20BD7DB2A09D7060EDBCF00F032
:100360000050006E0B0EE15C02E2E16AE552E16EC4
:1003700000508EEF40F07AEC50F002E3E168E65274
:10038000E16E070EDB6ADBEC4CF0B0EC40F0230EC4
:100390004BEC51F0E6EC40F003E1070EF36E2CD08D
:1003A000FBEC50F09BEC40F0EE50ED1009E139EC25
:1003B00052F002E2E16AE5527FEC50F00FE10BD01F
:1003C00083EC50F00BE039EC52F002E2E16AE552C6
:1003D0007FEC50F003E11B0EABEC44F011EC4BF062
:1003E00065EC10F0C6EC4BF0D8EC45F089EC4BF026
:1003F00006E00B0EF36E070EF3CFDBFF8ED082EC20
:1004000052F0B2EC4AF04FEC51F05DEC40F0BDEC34
:1004100047F05DEC40F0E9EC49F0020E9FEC53F040
:1004200006E1015004E10B0EABEC44F04ED0C3ECFE
:100430004CF05BEC4FF002E2E16AE552E16E0050F5
:10044000030E3EC0DBFF040E3FC0DBFF050E40C0C5
:10045000DBFF060E41C0DBFF9EEC42F005E005EC41
:1004600048F002E0090E5DD0FC0EDBCFA3F0FD0EDC
:10047000DBCFA4F0BDEC52F00001A551EE1808E16D
:10048000A651EE1805E1A751EE1802E1A851EE18A9
:100490001CE0AB6BC1EC52F0D950030FC6EC51F02D
:1004A00002E2E16AE552B5EC44F003E1080EABEC80
:1004B00044F0030EDBCFA5F0040EDBCFA6F0050E53
:1004C000DBCFA7F0060EDBCFA8F05FEC4FF0F90E04
:1004D0001DEC4CF002BE0368770E021801E10350D8
:1004E0000CE0F90EC7EC46F004BE0568610E041876
:1004F00001E1055002E0000E01D0010EE6EC40F0F3
:1005000007E0C2EC53F0EF80C2EC53F0EF9205D05D
:1005100063EC4FF0C2EC53F0EF82070EDBCF00F03C
:100520000050006E080EE15C02E2E16AE552E16E05
:1005300000508EEF40F068EC40F0130EE12402E32F
:10054000E168E652E16E100EDB6A5DEC40F0F4EC1F
:1005500048F0DBCFE9FF120EDBCFEAFFEBEC52F005
:1005600004EC43F001E101501CE0010E001801E130
:1005700001500EE0030E001814E1015012E103ECEB
:100580004DF00E0EDB680F0EDB6ECFEC46F00FD099
:10059000F80E63EC43F00F0EF36E0D0EF3CFDBFF9E
:1005A00002D003EC4DF0B1EC48F06BEC45F05DECA3
:1005B00040F0060E57EC4EF041EC42F050EC54F097
:1005C000110EDBCFE6FF120EDBCFE6FF9FEC4CF007
:1005D00002E2E16AE552F7EC4CF00CE13F50021800
:1005E00009E14050031806E14150041803E102E11B
:1005F000080E17D0110EDBCFE9FF120EDBCFEAFF9A
:10060000140E5FEC4AF087EC50F005E30A0EF36E2F
:10061000100EF3CFDBFF74EC43F087EC50F005E3F2
:100620003C0EF36E100EF3CFDBFF55EC51F0DFCF35
:10063000EEFF010EDBCFEEFF53EC49F0AAEC4AF0DF
:10064000EF06EECF02F0000EEF5AEECF03F0EF5AB6
:10065000EECF04F0EF5AEFCF05F0D8800254000E31
:100660000354000E0454000E055405E2100EDB5036
:10067000DDEC45F002E0000E01D0010E8FEC4AF0F7
:1006800096E1100EDB50006E130EE15C02E2E16AAF
:10069000E552E16E00508EEF40F095EC4CF0E652E2
:1006A000DF6A5DEC40F0230E64EC40F0EF6A5DEC35
:1006B00040F0000EEE6E070EED6EAEEC5AF0DE521C
:1006C000E0EC45F0DD5220EC41F0EF508FEC4AF0C9
:1006D00005E0060EDF6E01010F6F39D020EC41F00E
:1006E000EE52EF50010B8FEC4AF018E020EC41F095
:1006F000F2EC51F05DEC40F0180E63EC4AF020ECA7
:1007000041F064EC40F0D880EE54020EED5406E265
:10071000210EDF6E01010F6FDF501AD07DEC40F02B
:1007200019D8E552E552DF6E8FEC4AF010E17DEC0E
:1007300040F03ED9E552E552DF6E8FEC4AF007E11A
:100740005DEC40F0230E64EC40F0010EEF6EDF50E4
:100750005BEF4EF060EC4EF002E3E168E652E16ED2
:10076000020EDB6A5DEC40F08EEC48F0E66AE66A69
:10077000E66A95EC56F0ADEC4EF002E2E16AE55225
:10078000E16E0250016A010E021801E1015007E01A
:10079000080E0AEC45F00101080E0F6FFED05DEC6B
:1007A00040F074EC44F0A2EC40F0E1EC44F009E1DC
:1007B000035007E1A2EC40F0EBEC44F001E10550FE
:1007C00002E0000E01D0010EE6EC40F001E18AD01B
:1007D00009EC4DF009EC48F0460E081809E1095003
:1007E00007E109EC4DF0F4EC4DF001E10B5002E0B3
:1007F000000E01D0010E3FEC4FF007E009EC4DF088
:10080000B5EC4EF001E10D5002E0000E01D0010EFA
:100810004AEC4CF009E009EC4DF067EC4FF0310E7A
:100820000E1801E10F5002E0000E01D0010E11EC94
:100830004CF008E0A2EC40F0260EBDEC4EF001E1D9
:10084000115002E0000E01D0010EE6EC40F004E091
:1008500026EC53F0020E43D00EEC4DF009EC48F0BC
:10086000460E081809E1095007E10EEC4DF0F4ECD2
:100870004DF001E10B5002E0000E01D0010E3FEC03
:100880004FF007E00EEC4DF0B5EC4EF001E10D50ED
:1008900002E0000E01D0010E4AEC4CF009E00EEC33
:1008A0004DF067EC4FF0330E0E1801E10F5002E0EF
:1008B000000E01D0010E11EC4CF008E0A2EC40F06B
:1008C000420EBDEC4EF001E1115002E0000E01D0ED
:1008D000010EE6EC40F006E026EC53F0030EEF6E5E
:1008E000000E5DD0DBEC4CF0B0EC40F0E1EC44F0FD
:1008F0000BE1035009E1B0EC40F0EBEC44F004E113
:10090000055002E1000E01D0010EE6EC40F003E0DC
:100910000101040E3FD06CEC4FF0080E5FEC4AF082
:1009200046EC4CF063EC4AF06CEC4FF0040E64ECD7
:1009300040F001EC47F0C9EC4BF00B0E001801E160
:10094000015021E00C0E001801E101501CE0040EE2
:10095000001801E1015013E0060E001801E10150FA
:100960000EE00E0E001801E1015009E0010E001822
:100970000FE101500DE167EC4AF0010E07D067EC82
:100980004AF0020E03D067EC4AF0030EEF6E05D07A
:100990000101050E0F6F0AEC45F0020EDB503DEC35
:1009A00042F002E2E16AE552E16E00508EEF40F063
:1009B00068EC40F0150EE12402E3E168E652E16ED6
:1009C0000C0E91EC48F0F7EC51F046EC4CF064EC76
:1009D00040F088EC40F095EC56F0ADEC4EF002E2C1
:1009E000E16AE552E16E0250016A010E021801E16E
:1009F000015004E0080E63EC43F0F2D25DEC40F0ED
:100A00000D0EEECFDBFF0E0EEDCFDBFFF5EC40F071
:100A1000E1EC44F00BE1035009E1F5EC40F0EBECC4
:100A200044F004E1055002E1000E01D0010EE6ECB5
:100A300040F002E0030E52D1F5EC40F00D0E4BEC0D
:100A400051F0E66E5DEC40F0210E64EC40F0EFEC0E
:100A500045F0F5EC40F0F2EC51F046EC4CF04FEC88
:100A60004DF0060E63EC4AF0F5EC40F0100E4BEC46
:100A700051F0E66E13EC4DF0EFEC45F0F5EC40F084
:100A8000160EF2EC51F05DEC40F01C0E63EC4AF0F7
:100A90005DEC40F01C0E76EC53F008E1F5EC40F014
:100AA000240ED9EC53F01C0E63EC4AF05DEC40F0E0
:100AB0001C0E64EC40F00DEC48F013EC4DF0EF50E0
:100AC000046E056A066A076A05AE02D00668076802
:100AD00051EC44F03AC000F03BC001F03CC002F0E1
:100AE0003DC003F05DEC40F0060E4FEC4DF00A0EF9
:100AF00063EC4AF0F5EC40F0110ECAEC51F0120E26
:100B000021EC4BF0C3EC4EF00AE0F5EC40F0130E94
:100B100074EC4AF080EC44F0B0EC44F005D0F5EC15
:100B200040F0200E57EC4EF0C5EC52F00F0EEECF19
:100B3000DBFF100EEDCFDBFFD9500F0F6FEC4AF04B
:100B400010E0010EE76E0F0EDBCF02F0100EE75043
:100B50000216036A010E021801E1035002E0000EC2
:100B600001D0010E8FEC4AF002E0210EB7D0C5ECA7
:100B700052F0EECF08F0EFCF09F0F5EC40F0110E97
:100B800064EC40F065EC4EF0050ED8900436053666
:100B9000E806FBE1C5EC52F08BEC50F00606075A74
:100BA00004500624026E05500720036E02C040F078
:100BB000416E08C045F009C046F091EC70F0000E9F
:100BC00040C0DFFF010E41C0DBFF38EC42F0FCEC1F
:100BD00040F0DCEC41F0A3EC52F016EC48F0FBECFA
:100BE00051F023EC46F0080E00C0DBFF090E01C0F7
:100BF000DBFF0A0E02C0DBFF0B0E03C0DBFF5DEC68
:100C000040F0E6EC4BF0046E056A066A076A05AE32
:100C100002D006680768F4EC43F0080EDBCF3EF024
:100C2000090EDBCF3FF00A0EDBCF40F00B0EC9EC14
:100C300052F0B0EC43F05DEC40F0140E90EC50F04C
:100C4000CBEC4EF00F0E07EC47F004E267EC4AF0F5
:100C5000010E0DD0CBEC4EF0FF0E07EC47F004E296
:100C600067EC4AF0020E03D067EC4AF0030EEF6E19
:100C7000CDEC52F011E101500FE1F5EC40F017EC32
:100C800052F0EECF0BF1EECF0CF1EECF0DF1EFCF36
:100C90000EF16AEC4EF012D001010B6B0C6B0D6B78
:100CA0000E6B5DEC40F0120E74EC4AF0040ED8901E
:100CB00001320032E804FBE1026A036A5DEC40F0B5
:100CC0000A0E4FEC4DF00E0E63EC4AF0C5EC52F0FC
:100CD000D880EE54020EED5403E2210E63EC43F093
:100CE00067EC4AF0F3EC49F0021801E1035026E00A
:100CF0000C0EDB503FEC4FF019E018EC4DF0EF50CC
:100D00000A6E0B6A290E0A1801E10B500BE018EC71
:100D10004DF047EC4AF0280E0C1801E10D5002E0AE
:100D2000000E01D0010E33EC49F002E1000E01D0BB
:100D3000010E4AEC4CF002E1000E01D0010EE6EC8F
:100D400040F001E14DD1C3EC4EF00AE1C1EC4AF0B4
:100D5000EF501A6E1B6AE8501B1002E1000E01D022
:100D6000010E186E196AE85019100CE1C1EC4AF036
:100D7000010E4BEC51F01C6E1D6AE8501D1002E193
:100D8000000E01D0010E166E176AE85017100CE124
:100D9000C1EC4AF0020E4BEC51F01E6E1F6AE85097
:100DA0001F1002E1000E01D0010E146E156AE8500A
:100DB00015100CE1C1EC4AF0030E4BEC51F0206E23
:100DC000216AE850211002E1000E01D0010E126EDE
:100DD000136AE85013100CE1C1EC4AF0040E4BEC1E
:100DE00051F0226E236AE850231002E1000E01D078
:100DF000010E106E116AE85011100CE1C1EC4AF0BE
:100E0000050E4BEC51F0246E256AE850251002E1E6
:100E1000000E01D0010E0E6E0F6AE8500F100CE1AB
:100E2000C1EC4AF0060E4BEC51F0266E276AE850F2
:100E3000271002E1000E01D0010EF8EC49F00CE1A0
:100E4000C1EC4AF0070E4BEC51F0286E296AE850CD
:100E5000291002E1000E01D0010EB6EC48F00CE1C1
:100E6000C1EC4AF0080E4BEC51F02A6E2B6AE850A8
:100E70002B1002E1000E01D0010E086E33EC49F098
:100E80000CE1C1EC4AF0090E4BEC51F02C6E2D6ACE
:100E9000E8502D1002E1000E01D0010EDDEC45F00E
:100EA0000CE1C1EC4AF00A0E4BEC51F02E6E2F6AA9
:100EB000E8502F1002E1000E01D0010E4AEC4CF078
:100EC0000CE1C1EC4AF0CDEC4BF0EF50306E316AE2
:100ED000E850311002E1000E01D0010E11EC4CF08F
:100EE0001EE118EC4DF0EF50346E356A290E3418BF
:100EF00001E135500AE018EC4DF0EF50366E376ADC
:100F0000280E361804E1375002E1000E01D0010E20
:100F1000326E336AE850331002E1000E01D0010E48
:100F2000E6EC40F003E0030E63EC43F00C0EC6EC7D
:100F300047F008E0130EC7EC46F004BE0568045005
:100F4000051002E0000E01D0010E8FEC4AF01BE00C
:100F5000010EF36E130E94EC50F0A5EC4AF0F5EC94
:100F600040F0320E64EC40F0EECF02F0EFCF03F031
:100F70008EEC52F002E2E16AE5520DEC47F001E13D
:100F800001502BE026D00C0EC6EC47F008E0140E02
:100F9000C7EC46F004BE05680450051002E0000EE0
:100FA00001D0010E8FEC4AF01BE0010EF36E140E1F
:100FB00094EC50F0A5EC4AF0060E026E036A8EEC3B
:100FC00052F002E2E16AE5520DEC47F001E1015016
:100FD00004E00101080E0F6F0DD00C0EDB6A16D570
:100FE0000C0E89EC4BF004E00C0EDB5001010F6F8E
:100FF0000C0EDB50006E150EE15C02E2E16AE55278
:10100000E16E00508EEF40F0A0EC4DF0DE6ADE6A3B
:10101000DE6ADD6ADD52DD525DEC40F0140E2CEC30
:1010200053F06AEC4EF0100E1F0B03E0EBEC42F0B5
:10103000FDE1D7EC43F05DEC40F01A0EF2EC51F01C
:101040000050DE120150DE120250DE120350DD129B
:10105000DD52DD5230EC46F002E2E16AE552E16E2B
:101060008EEF40F06EEC4EF002E3E168E652E16E86
:10107000DBEC4CF05DEC40F0300EC7EC4CF0B0EC2B
:1010800040F02CEC54F0DCEC41F0050ED890073227
:10109000063205320432E806F9E173EC4EF0026ADA
:1010A000036A29EC43F0F4EC43F056EC70F0030EC5
:1010B0003EC0DBFF7AEC53F001E101500FE0020E7D
:1010C000001801E101500AE0030E00181EE1015072
:1010D0001CE1C6EC4DF003AE15D012D0D950080F6C
:1010E00077EC4EF008E1EE500C1905E1EE500D19C9
:1010F00002E1EE500E1909E0C6EC4DF003AE02D04D
:10110000FDEC49F0030E3CC0DBFFD950080F8BEC1F
:101110004AF05BEC4FF002E2E16AE55298EC50F0E5
:10112000E66AC1EC52F0030EDB50A9EC42F001AECE
:1011300002D002680368FBEC51F06FEC41F032EC36
:1011400043F079EC59F0046E070EE15C02E2E16ACB
:10115000E552E16E0450000903E1020EDB6A03D0A0
:10116000010E0AEC45F0DB50006E0C0EE15C02E271
:10117000E16AE552E16E00508EEF40F068EC40F01D
:101180000D0EE12402E3E168E652E16E0C0EDB6A2B
:1011900085EC41F0EBEC52F004EC43F001E101503E
:1011A0001FE0010E001801E1015011E0030E0018CC
:1011B00017E1015015E1CFEC46F0F80E21EC44F0B8
:1011C000DB68060EDB680F0EABEC44F011D06BEC65
:1011D00045F0F80E9CEC50F00F0E0FEC45F006D0E9
:1011E0006BEC45F0F80E21EC44F0DB68B0EC44F019
:1011F00073EC4FF0FC0EDBCF04F0FD0E5AEC49F01F
:101200000DE087EC44F0010EEE1805E1EE5003E12D
:10121000EE5001E1EE5002E0000E01D0010E8FEC25
:101220004AF004E0020E63EC43F072D00C0EF3ECD3
:1012300041F000BE0168005001106AE141EC42F04B
:101240007AEC4FF09FEC4CF002E2E16AE552F7ECE9
:101250004CF00CE13F50021809E14050031806E140
:101260004150041803E102E1010E1BD0FCEC40F0F8
:1012700071EC45F002500310041005100DE0FCEC79
:1012800040F0010EEE1805E1EE5003E1EE5001E1F1
:10129000EE5002E0000E01D0010EE6EC40F004E05A
:1012A000020E63EC43F0C2D7BDEC42F087EC50F085
:1012B00003E3020E63EC43F041EC42F0A8EC52F081
:1012C0007AEC4FF01DEC42F002E2E16AE55249ECA3
:1012D00042F03E5001180DE13F5002180AE1405023
:1012E000031807E14150041804E103E1010E63EC27
:1012F00043F0FCEC40F0FA0EEECFDBFFFB0EEECF3E
:10130000DBFFFC0EEECFDBFFFD0EEECFDBFF8ED75B
:1013100008EC42F081EC47F01DEC42F002E2E16A99
:10132000E552E16E00500C0EF3EC41F000BE016896
:10133000020E001804E1015002E1010E01D0000E7E
:10134000006E0D0EE15C02E2E16AE552E16E0050D2
:101350008EEF40F068EC40F0170EE12402E3E16804
:10136000E652E16E46EC4CF0EECFDBFF030EEDCF24
:10137000DBFF5DEC40F02C0EC7EC4CF0EDEC51F0D7
:1013800088EC47F0120EEECFDBFF130EEECFDBFF43
:1013900035EC41F02CEC54F01FEC48F0200E436E7D
:1013A000446A456A466A56EC70F0160E3EC0DBFF92
:1013B000C9EC4BF09BEC40F07BEC4EF000C045F0EC
:1013C00001C046F091EC70F0140E40C0DBFF35EC2C
:1013D00041F0EBEC52F0C3EC4DF001E101501BE0A9
:1013E000020E001801E1015016E0030E001813E18F
:1013F000015011E170EC52F003AE02D0FDEC49F067
:10140000140E3CC0DBFF03EC4DF00E0EDB680F0E3C
:10141000F36EDB6E12D0D0EC4BF0F2EC42F009E050
:1014200070EC52F003AE02D0FDEC49F0140E3CC05B
:10143000DBFF03EC4DF0B1EC48F0F90EDB50F0ECC3
:1014400041F005E183EC50F002E0000E01D0010E06
:101450008FEC4AF001E113D1140EA1EC50F00DE134
:101460009BEC40F08BEC50F0160EDB50086E096AD6
:10147000E850065C0950075802E2000E01D0010E48
:1014800011EC4CF007E1F90EDB50B6EC48F002E14C
:10149000000E01D0010EE6EC40F055E0D0EC4BF030
:1014A000F2EC42F007E102EC4AF0120EDB6A130E96
:1014B000DB6A49D0F90E14EC52F024E035EC41F02F
:1014C000E6EC4BF0046E056A160E86EC52F0406EA8
:1014D00003C041F004C045F005C046F088EC6EF052
:1014E0003EC000F03FC001F09BEC40F07BEC4EF0C2
:1014F0003EC045F03FC046F091EC70F0150E40C084
:10150000DBFF03D0010EA4EC4DF014EC52F01BE015
:1015100032EC53F09FEC4CF002E2E16AE552E16EEE
:101520000050100E3EC0DBFF110E3FC0DBFF120E5D
:1015300040C0DBFF130E41C0DBFFFBEC4DF003E2CC
:10154000150EDB06E2D7FBEC4DF001E392D0EDEC9B
:1015500051F0DCEC47F0130EDBCFEEFF32EC53F032
:1015600007EC52F002E2E16AE55298EC50F0D950F3
:10157000100F77EC4EF025E1EE500C1922E1EE5001
:101580000D191FE1EE500E191CE11BE1140E70EC59
:1015900043F0066A076A05AE02D006680768FBECEE
:1015A00051F016EC48F035EC41F00E0E64EC40F0D2
:1015B000EE50045CEE500558EE500658EE500758B9
:1015C00002E2000E01D0010EF0EC41F00CE035EC2F
:1015D00041F0EBEC52F009EC48F0030E081805E17D
:1015E000000E091802E1000E01D0010EE6EC40F0F9
:1015F00043E19EEC42F006E005EC48F003E0F36ABC
:10160000F46A4AD04BEC4AF0AB6B35EC41F0A5ECF8
:101610004AF0140E86EC52F0046A056A03AE02D05A
:1016200004680568FBEC51F023EC42F002E2E16A49
:10163000E5520DEC47F001E1015003E0DE6ADD6A9E
:1016400014D0F90E14EC52F00CE0D3EC4EF0D8901C
:1016500002360336E806FBE135EC41F028EC48F0B1
:1016600004D035EC41F0C2EC43F00001E4EC49F069
:1016700011D00001010EAA6FDE6ADD6A0BD0D3EC37
:101680004EF0D89002360336E806FBE135EC41F027
:1016900028EC48F080EC4EF0170EE15C02E2E16AC3
:1016A000E552E16E8EEF40F068EC40F0E652DF6A02
:1016B00001010F6B9BEC40F0EE6AED6A11EC4BF010
:1016C000A0D8C6EC4BF08FEC4AF023E1F90EDB50CA
:1016D000E66E11EC4BF059D943EC4FF002E2E16AAF
:1016E000E552E16E0250DF6E006E016A00BE0168D5
:1016F0000050011010E1F80EF3EC41F000BE01685B
:101700000050011008E07DEC40F013D8E552E5529E
:1017100001D0140EDF6E37EC49F000BE016800C046
:101720000FF137EC49F000BE01680050E5528EEF32
:1017300040F068EC40F00D0EE12402E3E168E6526F
:101740004BEC4FF061EC49F0D950010F58EC52F0DE
:1017500096EC15F0C6EC4BF0DF6E006E016A00BE31
:1017600001680050011040E180EC4FF08BEC44F038
:101770000B0EF3CFDBFF0C0EF4CFDBFF006807ECA2
:101780004AF0010F78EC40F0A2EC53F068EC49F01D
:101790001A0E21EC4BF084EC4FF0010F78EC40F086
:1017A000A2EC53F081EC43F055EC4DF06FEC49F0B6
:1017B000100EF6EC42F0FDE181EC43F068EC49F0EC
:1017C000140E64EC40F0050EDBCFEEFF060EDBCF0F
:1017D000EDFF80EC4FF0B7EC43F0BCEC41F001E1E1
:1017E000015002E0090EDF6EDFCF00F00050006E06
:1017F0000D0EE15C02E2E16AE552E16E00508EEF0F
:1018000040F06EEC4EF002E3E168E652E16E010E4C
:10181000DF6E030EDB6A9BEC40F074EC44F0FBECF3
:1018200050F039EC52F002E2E16AE552E16E02500A
:10183000BBEC43F0F350F41001E194D0010E0AEC3C
:1018400045F0DF50BCEC41F001E08CD0015001E0EC
:1018500089D0010EDB6A9BEC40F074EC44F0AEECF6
:1018600052F002E2E16AE5522CEC51F005E0B1ECF5
:1018700041F0030E00C0DBFF9BEC40F0EE2A000EAF
:10188000EF2222EC54F015E0030EDB50066E076ADF
:10189000E50E061801E1075008E0030EDB50086E64
:1018A00033EC49F002E0000E01D0010E1CEC53F0C5
:1018B00002E1000E01D0010EF0EC41F010E0010E4B
:1018C000DB2ADB500A6E0B6A020EDB5000010BAE06
:1018D00002D0D89003D00A5C000E0B5802E3000E31
:1018E00001D0010E8FEC4AF0BAE122EC54F02CE169
:1018F000EDEC51F08EEC43F0D950060F77EC4EF042
:101900001BE1EE500C1918E1EE500D1915E1EE50E7
:101910000E1912E111E15DEC40F084EC4EF0EBECBD
:1019200052F0C8EC45F00DE101500BE1ECEC4BF04E
:1019300017E1015015E105D0ECEC4BF011E101503D
:101940000FE1020EDF6E7DD7010EC2EC47F0DB50D7
:101950000AEC4AF001E075D70350011801E071D795
:10196000DF6A6FD79BEC40F0040EDBCFEEFF050E75
:10197000DBCFEDFFDF50006E0C0EE15C02E2E16AAE
:10198000E552E16E00508EEF40F095EC4CF0E652DF
:10199000DF6A26EC54F002E2E16AE552E16E0050A3
:1019A000DE52E0EC45F0DD52D950010F6FEC4AF009
:1019B00002E11B0E8DD00B0EE66EE66ACBEC53F007
:1019C0009AEC4CF0CEEC47F020EC41F02FEC44F0D8
:1019D000CEEC47F007EC6EF04FEC4AF002E2E16A21
:1019E000E552E16E0450F90EC9EC4BF0120E0018EE
:1019F00006E1015004E17EEC53F0100E03D07EECC2
:101A000053F0200EEF6E20EC41F00C0E64EC40F031
:101A1000EF6A20EC41F0140EEB6A150EEB6A20EC35
:101A200041F01A0EEB6A1B0EEB6A20EC41F01C0E23
:101A3000B2EC4AF001010051E66E20EC41F037ECC7
:101A40004EF020EC41F00E0E64EC40F001C1EEFFD0
:101A500002C1EDFF20EC41F0100E64EC40F003C138
:101A6000EEFF04C1EDFF20EC41F0120E64EC40F0FB
:101A700005C1EEFF06C1EDFF20EC41F0DAEC4EF0BF
:101A800020EC41F0E2EC4EF020EC41F096EC52F00C
:101A900020EC41F00E0E14EC54F020EC41F0100E4E
:101AA000CAEC51F0190E21EC4BF07EEC53F0EF50E4
:101AB0005BEC4CF0F1EC52F011EC4BF0B7EC43F076
:101AC000BCEC41F001E1015002E0090EDF6EDF5095
:101AD0005BEF4EF095EC4CF0FC0EDBCF10F0FD0E02
:101AE000DBCF11F0BC0E105C070E11580AE38FEC2F
:101AF00047F03B0ED880EE54080EED5402E3000E82
:101B000001D0010E0E6E0F6AE8500F100EE1FB0EB1
:101B1000DB50126E136AD890135004E6010E125C6B
:101B2000000E135802E3000E01D0010EF8EC49F04C
:101B30000DE1FB0EDB50146E156A153404E21450EF
:101B40000C08000E155402E3000E01D0010EB6EC95
:101B500048F00EE1FA0EDB50166E176AD890175057
:101B600004E6010E165C000E175802E3000E01D0C9
:101B7000010E086E33EC49F00DE1FA0EDB50186EE1
:101B8000196A193404E218501F08000E195402E3B0
:101B9000000E01D0010EDDEC45F00DE1F90EDB5039
:101BA0001A6E1B6A1B3404E21A501708000E1B54ED
:101BB00002E3000E01D0010E1CEC53F00DE1F80E13
:101BC000DB501C6E1D6A1D3404E21C503B08000EE5
:101BD0001D5402E3000E01D0010EF0EC41F00DE1C6
:101BE000F70EDB501E6E1F6A1F3404E21E503B08C6
:101BF000000E1F5402E3000E01D0010EE6EC40F08F
:101C000005E001011F0EECEC48F06CD0FC0EDBCFC0
:101C100000F0FD0EDBCF01F0BC0E005E070E015A96
:101C200000C001F0006AD8900136C1EC41F0FB0E13
:101C3000C9EC4BF0050ED89000360136E804FBE104
:101C40008BEC4FF0FA0EDB50DF12DECF05F1DDCF6B
:101C500006F1DECF03F1DDCF04F1DECF09F1DDCFF8
:101C60000AF1F90EDB50016AE850006AE834E83402
:101C7000E834F80B00C0DEFFDD6EF80EC9EC4BF067
:101C8000050ED89000360136E804FBE18BEC4FF0EE
:101C9000F70EDB50016AE8307F0BFCEC40F0E850B7
:101CA000EE120150ED12DECF01F1DDCF02F1DECFF9
:101CB00007F1DDCF08F1F70EC2EC47F0456E466A3A
:101CC00000C040F001C041F035EC6EF03C503D10DA
:101CD00004E00101640E006F02D00101006B0F6B84
:101CE000F36AF46AE552E5528EEF40F068EC40F09A
:101CF0000A0EE12402E3E168E652E16EDBEC4CF00F
:101D000055EC51F0020EEECFDBFF030EEECFDBFF02
:101D100099EC4FF092EC4FF003EC4EF05CEC4DF090
:101D2000F2EC42F002E1150E47D07AEC53F008E1F4
:101D3000015006E1FCEC48F0DCEC51F018E215D063
:101D400082EC53F00AE1015008E1BBEC48F0E66A8E
:101D5000E66ADCEC51F00BE208D0BBEC48F0E66838
:101D60000F0EE66EDCEC51F002E2E16AE552E9ECBE
:101D70004EF08EEC43F0E66A54EC54F03FEC52F037
:101D80001DEC42F002E2E16AE552E9EC4EF053EC60
:101D900049F076EC49F0FB0E9FEC53F00CE101505A
:101DA0000AE154EC54F0A0EC4FF002E2E16AE55293
:101DB000E16E005001D0000E006E0A0EE15C02E2FE
:101DC000E16AE552E16E00508EEF40F068EC40F0C1
:101DD000160EE12402E3E168E652E16E38EC42F0CF
:101DE000E5EC45F0DBEC4CF055EC51F08EEC43F0BB
:101DF00082EC53F001E1015023E0010E001801E1F3
:101E0000015018E0030E00181BE1015019E1F70E14
:101E100017EC47F0DB68100EDB680F0EF36E110E47
:101E2000F3CFDBFF0FEC4AF0140EDB680F0EA4ECCF
:101E30004DF010D0F70E17EC47F0F36EDB6E04D0C8
:101E4000F70E17EC47F0DB6802EC4AF00FEC4AF0B3
:101E5000A6EC50F05CEC52F0020EEE5C000E07ECCB
:101E600047F005E2020EDFEC4CF0C0EC48F05CEC11
:101E700052F01DEC4DF03FEC52F09FEC4CF002E2C2
:101E8000E16AE552E16E00503CEC4EF0F2EC42F0BB
:101E900001E17ED004EC49F0DBCF03F0150E38EC05
:101EA00053F03FEC52F09FEC4CF002E2E16AE55255
:101EB00049EC42F003EC4EF03E5001180AE13F506D
:101EC000021807E14050031804E14150041801E1F1
:101ED0005BE05CEC4DF0F2EC42F05AE0D950060FBA
:101EE00089EC4EF063EC4DF0A6EC4FF0D9500E0F9C
:101EF00078EC40F00250EE1808E10350EE1805E1CE
:101F00000450EE1802E10550EE181FE0020E066EB6
:101F1000076A086A096AB0EC40F0140E64EC40F0FD
:101F2000EE500626EE500722EE500822EE5009220F
:101F30005CEC52F00650EE5C0750EE580850EE583C
:101F40000950EE5802E2000E01D0010EE6EC40F01E
:101F500005E0020EDFEC4CF0C0EC48F03CEC4EF03B
:101F6000DBCF03F060EC52F00050EE188DE1015031
:101F7000EE188AE10250EE1801E086D70350EE1801
:101F800001E082D701E080D7B0EC44F0C0EC48F02B
:101F90003CEC4EF0DBCF03F029EC43F0160EE15C95
:101FA00002E2E16AE552E16E8EEF40F060EC4EF045
:101FB00002E3E168E652E16E480E0AEC45F0030EDA
:101FC000DB6A01010F6BCEEC4DF0160E4BEC51F0BD
:101FD000010B8FEC4AF060E09EEC42F008E005EC6B
:101FE00048F005E00101090EECEC48F066D008EC81
:101FF00042F0F7EC51F01DEC42F002E2E16AE552EA
:10200000E16E005000019E6B9F6BA06BA16BC3EC57
:102010004CF0F7EC51F09FEC4CF002E2E16AE55233
:10202000E16E00503EEC53F04CEC54F008E101013D
:102030001B0E0F6F020EDB68030EDB683CD0A2ECB8
:1020400040F0DAEC4EF0A2EC40F0E2EC4EF05DEC49
:1020500040F0120E5FEC4AF0A2EC40F01C0E63EC74
:102060004AF0ADEC4FF0E66E0BEC52F0EFEC45F0C1
:10207000DBEC4BF0B7EC43F0000905E03EEC53F02D
:1020800038EC42F007D00101090E0F6F020EDB6839
:10209000030EDB6863EC4FF07DEC40F014EC4AF08B
:1020A000D950020F78EC40F0480EEE1804E1ED50E4
:1020B00002E138EC42F0ABEC50F0060EE15C02E2DB
:1020C000E16AE552E16E8EEF40F068EC40F0070EF9
:1020D000E12402E3E168E652E16E060EDB6A83EC7E
:1020E00050F005E19BEC40F0EE50ED1002E1000EE7
:1020F00001D0010E8FEC4AF004E026EC54F006E229
:1021000003D0AEEC52F002E2E16AE552E7EC51F0A6
:1021100002E1020E0ED0B0EC40F0DBEC46F004E140
:10212000015002E1010E05D0030E89EC4BF004E1F1
:10213000020E0FEC45F06FD045EC52F0020EDB6A58
:1021400077EC42F002E607EC45F009E2B0EC40F033
:1021500026EC4DF000BE0168DAEC4AF0F1D745EC10
:1021600052F0B0EC40F0080E64EC40F0EFCF00F01D
:10217000040E00C0DBFF020EDB6A77EC42F002E6E1
:10218000C5EC48F00CE2B0EC40F0080E64EC40F016
:1021900026EC4DF000BE0168DAEC4AF0EED7F1EC27
:1021A00052F0B0EC40F0DBEC46F006E1015004E107
:1021B000010E0FEC45F002D0050EDB6AB0EC40F0EA
:1021C00096EC52F030EC41F0E4EC4CF0B0EC43F023
:1021D00046EC4CF090EC50F045EC52F0DB505BECF0
:1021E0004CF0CBEC46F0100B09E0B0EC40F00E0EDA
:1021F00014EC54F0B0EC40F0100E08D0B0EC40F00D
:10220000160E14EC54F0B0EC40F0180ECAEC51F07D
:10221000190E21EC4BF0050EDB50E8EC50F002E219
:10222000E16AE552E16E00508EEF40F095EC4CF023
:10223000E65226EC54F002E2E16AE552E7EC51F096
:1022400036E0B0EC40F028EC51F000BE01682FEC15
:1022500049F014EC52F002E1DE6ADD6AA0EC4AF0CB
:1022600029E0020EC9EC4BF0E50E001805E1015023
:1022700003E1DE6ADD6A1ED0B0EC40F0CDEC4BF03D
:10228000EF50D8EC45F0C9EC4BF00F0E001812E1FE
:10229000015010E19BEC40F0EE2A000EEF22AEEC74
:1022A00052F002E2E16AE552E7EC51F0E5E1F36A4F
:1022B000F46A02D080EC4EF05BEF4EF06EEC4EF024
:1022C00002E3E168E652E16EB2EC4FF0010EF36E0C
:1022D0000B0E94EC50F07DEC49F0010EF36E0A0EFB
:1022E000F3CFDBFF0101010E0F6F0A0EAFEC50F0D0
:1022F000000955E026EC54F002E2E16AE552E7EC11
:1023000051F002E11B0E85D0B0EC40F028EC51F00A
:102310002FEC49F0A0EC4AF006E0020EA1EC50F0E0
:1023200002E0000E01D0010EF0EC41F009E119ECE1
:102330004AF0E50E061801E1075002E0000E01D058
:10234000010E8FEC4AF002E00B0E0BD0B0EC40F027
:10235000E50EEF6E11EC4BF0B7EC43F0000906E12F
:10236000010EF36E030EF3CFDBFF19D00B0EF3EC6F
:1023700041F000BE01680050011008E030EC41F06F
:10238000E4EC4CF0F7EC41F00B0EDB6A73EC4EF032
:102390003BEC49F09BEC40F0DBEC42F0A6D7030E9F
:1023A000F3EC41F000BE0168005001102EE1D9505D
:1023B000040F77EC4EF008E1EE500C1905E1EE50F9
:1023C0000D1902E1EE500E191BE0F90E14EC52F05B
:1023D00017E093EC47F050EC54F0BEEC08F0ADEC95
:1023E0004EF002E2E16AE552E16E0250000902E0BD
:1023F000006A02D0010E006E016A030E00C0DBFF0E
:10240000030EF3EC41F000C00FF1030EDBCF00F040
:102410000050006E0C0EE15C02E2E16AE552E16EF2
:1024200000508EEF40F068EC40F06D0EE12402E3C6
:10243000E168E652E16E97EC48F003E00101180E06
:1024400094D068EC41F0D950020F15EC41F027EC24
:1024500041F0E66AD950020F58EC52F021EC47F0F7
:1024600002E2E16AE552B5EC44F003E10101120E2B
:102470007CD0280EDB6A290EDB6A2BEC41F017ECCE
:1024800052F02E0EEECFDBFF2F0EEECFDBFF300E25
:10249000EECFDBFF310EEECFDBFF2BEC41F0300E49
:1024A00064EC40F0320EEECFDBFF330EEECFDBFFFD
:1024B000340EEECFDBFF350EEECFDBFFD950EDEC67
:1024C0004EF027EC41F0E66A39EC44F0EDEC4EF0CA
:1024D00025EC44F002E2E16AE55234EC44F000BE3F
:1024E00001680B0E00183FE101503DE19BEC40F00C
:1024F000EEEC52F0C2EC43F0B8EC4FF08BEC44F051
:102500006A0EF3CFDBFF6B0EF4CFDBFF6C0EDB6AE2
:1025100077EC42F002E635EC42F01CE231EC48F098
:102520000F0193EC46F0036AC7EC53F0BBEC4FF09D
:1025300031EC48F093EC46F0036A02BE03686A0E81
:10254000DBCFE9FF6B0EDBCFEAFFBBEC4FF06C0E8D
:10255000DB2ADED7B8EC4FF0B7EC43F0000908E116
:102560000101090E02D00101110EECEC48F002D07D
:10257000F36AF46A6D0EE15C02E2E16AE552E16E33
:102580008EEF40F060EC4EF002E3E168E652E16E5F
:102590009BEC40F028EC51F000BE01682FEC49F0B4
:1025A000ECEC50F008E0020E70EC43F0720E0418F0
:1025B00004E1055002E1000E01D0010EF0EC41F003
:1025C00007E019EC4AF0520E061804E1075002E148
:1025D000000E01D0010E8FEC4AF003E00101180E4D
:1025E00017D0340EE66E50EC68F0E552E0EC45F0A2
:1025F00041EC4EF021EC47F002E2E16AE552B5EC25
:1026000044F00AE130EC41F014EC4AF00101120E02
:102610000F6FF36AF46AC4D100EC51F002E2E16A90
:10262000E55234EC44F000BE01680050011001E0B6
:1026300021D1020EC9EC4BF0520E001801E10150FD
:1026400001E1EFD0720E001801E1015001E1E9D083
:10265000410E001801E1015054E0610E001801E143
:1026600001504FE0770E001801E1015008E0570ECD
:10267000001801E1015003E0CEEC45F079D103EC04
:102680004CF0D6EC4DF002E2E16AE552A9EC4DF0D7
:1026900000BE01680050011001E06AD1B2EC4BF0BD
:1026A00002E2E16AE552A9EC4DF000BE016800507B
:1026B000011001E05DD1770E0AEC4BF002E2E16A15
:1026C000E55274EC4BF002E0CEEC45F0F0EC50F04B
:1026D00000BE01680050011001E04AD115EC4BF03A
:1026E00002E2E16AE5522BEC47F031EC4BF000BE20
:1026F00001682B0E001801E03BD1015001E038D1F8
:102700002DD1B0EC40F0120E76EC53F040E003EC2B
:102710004CF0770E0AEC4BF002E2E16AE55274EC01
:102720004BF002E0CEEC45F0F0EC50F000BE01685A
:102730000050011001E01CD115EC4BF002E2E16AFF
:10274000E552B4EC50F000BE01680050011004E006
:1027500001011A0E0F6F0FD0B0EC40F018EC54F0DE
:10276000B10EE66E010EE66E9FEC4CF002E2E16AFD
:10277000E552E16E005031EC4BF000BE01682B0ECB
:10278000001801E0F5D0015001E0F2D0E7D003ECF1
:102790004CF0D6EC4DF002E2E16AE552A9EC4DF0C6
:1027A00000BE01680050011001E0E2D0B2EC4BF035
:1027B00002E2E16AE552A9EC4DF000BE016800506A
:1027C000011001E0D5D0770E0AEC4BF002E2E16A8D
:1027D000E55274EC4BF002E0CEEC45F0F0EC50F03A
:1027E00000BE01680050011001E0C2D015EC4BF0B2
:1027F00002E2E16AE552B4EC50F000BE016800501C
:10280000011003E001011A0E0F6F31EC4BF000BE16
:1028100001682B0E001801E0ABD0015001E0A8D0F8
:102820009DD003EC4CF0720E0AEC4BF002E2E16A30
:10283000E55273EC42F0F8EC52F025EC4BF002BE9E
:1028400003682B0E02180BE1035009E1B0EC40F0D5
:10285000DDEC53F065EC4EF00450100B02E0000E7E
:1028600001D0010E8FEC4AF001E182D0B3EC52F0BE
:10287000EF807ED054EC43F030EC41F027EC41F097
:1028800019EC4AF0770E061801E107500BE0020E32
:10289000DB50086E096A570E081801E1095002E082
:1028A000000E01D0010E1CEC53F00BE1020EDB50C8
:1028B0000A6E0B6A610E0A1801E10B5002E0000E6D
:1028C00001D0010EF0EC41F00BE1020EDB500C6E7A
:1028D0000D6A410E0C1801E10D5002E0000E01D00E
:1028E000010E8FEC4AF03EE0030EDB6A040EDB6A59
:1028F000B2EC4BF002E2E16AE552A9EC4DF000BE09
:1029000001680050011034E1770E0AEC4BF002E24E
:10291000E16AE55274EC4BF002E0CEEC45F0F0ECED
:1029200050F000BE01680050011022E115EC4BF0A0
:1029300002E2E16AE552B4EC50F000BE01680050DA
:10294000011003E001011A0E0F6F31EC4BF000BED5
:1029500001682B0E00180CE101500AE1B3EC52F0B3
:10296000EF8206D00B0E0FEC45F001010B0E0F6F3E
:10297000ECEC50F003E0B3EC52F0EF90F0EC50F0E0
:1029800000BE01680050011007E030EC41F014EC8B
:102990004AF0DE6ADD6A02D001010F6B80EC4EF076
:1029A000060EE15C02E2E16AE552E16E8EEF40F074
:1029B00039EC54F05FEC4AF029EC43F08EEF40F034
:1029C00095EC4CF0150EDE6E010EDD6E97EC48F0C6
:1029D00003E00101180E44D041EC4EF021EC47F029
:1029E00002E2E16AE552B5EC44F003E10101120EA6
:1029F00037D000EC51F002E2E16AE55234EC44F0E9
:102A000000BE01680050011003E001010B0E28D048
:102A1000B0EC40F02A0E74EC4AF00050100B03E0CA
:102A20000101130E1DD0010EE66EB0EC40F0F4EC87
:102A30004EF030EC41F042DC046E050EE15C02E247
:102A4000E16AE552E16E0450006E016A00BE016861
:102A50000050011003E1F36AF46A05D00101010E90
:102A60000F6FF368F468E552E5528EEF40F068ECC2
:102A700040F09EEC42F001E0DDDB82EC52F0B2EC83
:102A80004AF05DEC40F0E9EC49F05DEC40F0BDEC63
:102A900047F04FEC51F04BEC4AF08EEF40F0016AFA
:102AA0000FC1F3FF01C0F4FF12007AEC50F002E313
:102AB000E168E652E16E9EEC45F089EC45F09AEC57
:102AC00047F08FEC44F0340EDE6EDD6AB0EC44F07B
:102AD00096EC44F0DECF02F0DDCF03F00150031896
:102AE000E8AE02D0033402D08DEC4EF017E2C7EC12
:102AF0004FF0040EDB500224E96E050EDB5003207C
:102B0000EA6EEF50E66E96EC44F097EC4AF0EFEC8C
:102B100045F03DEC44F0DCE3DB2ADAD7080EE15C5B
:102B200002E2E16AE552E16E8EEF40F095EC4CF086
:102B3000E652020EDB6ADBEC4CF092EC4FF0B0ECAC
:102B400043F09BEC40F0FDEC43F09BEC40F06FEC6D
:102B500040F0A3EC4CF004E1150E0AEC45F05ED019
:102B60007AEC53F014E1015012E1FCEC48F062EC15
:102B70004CF002E2E16AE5521EEC4AF03AE1E86804
:102B80003F1837E1405035E1415033E12FD082EC1E
:102B900053F016E1015014E1BBEC48F0E66AE66A36
:102BA00062EC4CF002E2E16AE5521EEC4AF021E1EF
:102BB000E8683F181EE140501CE141501AE116D070
:102BC000BBEC48F0E6680F0EE66E62EC4CF002E2F9
:102BD000E16AE5521EEC4AF00CE1E8683F1809E1B1
:102BE000E868401806E10F0E411803E1090E0AECEF
:102BF00045F0020EF3EC41F000BE016800500110F8
:102C00000DE19BEC40F088EC40F0A0EC4FF002E2CC
:102C1000E16AE552E16E0050D8EC45F0020EF3ECAB
:102C200041F000BE016800505BEF4EF060EC4EF0EA
:102C300002E3E168E652E16E050EDB6AAAEC4AF0B7
:102C40000BEC4EF002E2E16AE552E16E0050010E3B
:102C50003EC0DBFF020E3FC0DBFF030E40C0DBFFC8
:102C6000040E41C0DBFF9EEC42F005E005EC48F0AD
:102C700002E0090E55D04BEC4AF0AB51E9EC4CF0B8
:102C80000AE107EC54F002E2E16AE552E16E00501D
:102C90000001010EAB6FDF6AA6EC53F05DEC40F073
:102CA000E6EC4BF0000103AE02D0D89003D0025CFA
:102CB000000E035805E2050EDB504AEC4CF002E032
:102CC000000E01D0010E8FEC4AF028E0E66AF7EC26
:102CD00051F0A8EC51F0EFCF02F0EE2A000EEFCF4A
:102CE00003F0EE22EFCF04F0EE22EFCF05F0EF225B
:102CF00071EC4CF005C0E6FF79EC59F0066E070E5A
:102D0000E15C02E2E16AE5520DEC47F001E10150BD
:102D100003E0090E0FEC45F0DF2ABED7050EDB50AD
:102D20003DEC42F002E2E16AE552E16E00508EEFC6
:102D300040F0A0EC4DF064EC52F001E101500FE0E6
:102D4000020E001801E101500AE0030E001807E12D
:102D5000015005E18CEC4BF009AE32D02FD0F80ECB
:102D6000DBCF02F0F90EDBCF03F0FA0EDBCF04F07D
:102D7000FB0E5AEC49F00DE0AAEC4AF0010EEE18F9
:102D800005E1EE5003E1EE5001E1EE5002E0000EED
:102D900001D0010E8FEC4AF00DE0F80EDBCF00F011
:102DA000F90EDBCF01F073EC4FF0A3EC52F06FECB7
:102DB00041F026D08CEC4BF009AE02D00A680B68CB
:102DC000F80EDBCF04F0F90EDBCF05F0FA0EDBCF07
:102DD00006F0FB0EDBCF07F0020E045E000E055A74
:102DE000065A075A51EC44F03A500C24006E3B50FE
:102DF0000D20016E3C500E20026E3D500F20036EE0
:102E0000D7EC43F030EC46F002E2E16AE552E16EC5
:102E10008EEF40F0A0EC4DF001010F6BFB0EC9EC02
:102E20004BF0D80E0016FF0E0116005001101DE1E8
:102E3000CEEC4DF02C0ED9EC53F0300E63EC4AF092
:102E4000DBEC4BF08BEC44F044EC53F003E101017C
:102E50001B0E27D035EC41F0CDEC4BF0EF50006E5F
:102E6000016AE850080B03E001011F0E1AD05DEC67
:102E700040F02A0E74EC4AF00050100B06E0FB0EF6
:102E8000DBCF00F0100E001002D0FB0EDB505BEC2D
:102E90004CF0DBEC4BF0B7EC43F0000905E101012D
:102EA000090EECEC48F002D0F36AF46A040EE15C1F
:102EB00002E2E16AE552E16E8EEF40F068EC40F02C
:102EC0001A0EE12402E3E168E6525EEC4BF0080ED4
:102ED000DB6A170EDB6A180EDB6A78EC4CF0010B2C
:102EE000E6EC40F005E101011D0E0F6F090E0CD05C
:102EF0006AEC4EF0A3EC4CF001E12AD1ECEC50F07E
:102F000008E00101180E0F6FF36E080EF3CFDBFF20
:102F10001FD10001AB6BADEC4CF061EC49F006EC5D
:102F200041F00E0E64EC40F00F0EEECFDBFF88ECAC
:102F300047F0120EEECFDBFFB9EC4AF002E2E16A95
:102F4000E55238EC51F0A3C000F0A4C001F0F60E39
:102F5000DB50001803E1F70EDB50011809E09EEC8E
:102F600042F004E005EC48F001E08AD0A5EC45F021
:102F7000D9500B0F78EC40F00001A551EE1808E194
:102F8000A651EE1805E1A751EE1802E1A851EE187E
:102F90001AE0A951E9EC4CF003E005EC48F070E1CF
:102FA000FFEC51F00B0FC6EC51F002E2E16AE55282
:102FB000B5EC44F006E101011B0E0F6F080EF36E35
:102FC000DB6E3DEC46F0CEEC4FF0EECFDBFF140EA7
:102FD000EECFDBFF150EEECFDBFF160EEECFDBFFE5
:102FE00053EC4AF0036A02BE03680250031005E185
:102FF000FCEC40F0E6EC47F002E3000E01D0010EDD
:103000008FEC4AF001E1EED0FDEC42F083EC49F0A8
:10301000D950130F78EC40F00050EE1810E1015039
:10302000EE180DE10250EE180AE10350EE1807E128
:1030300006E106EC41F0160E64EC40F0EF84B2ECD1
:103040004DF0DBCF01F0FFEC52F001E086D00150F3
:10305000EE1801E082D00250EE1801E07ED003505D
:10306000EE1801E07AD001E078D0010EF36E190E6F
:10307000F3CFDBFF9EEC42F006E005EC48F003E006
:103080000101090E38D023EC4AF082EC51F027E11F
:103090000350011824E106EC41F0BDEC47F078EC58
:1030A0004CF0040B01E0010E8FEC4AF00BE0F9EC60
:1030B0004EF013EC47F0E76E080EE7CFDBFF190E7A
:1030C000DB6A0DD0F3EC45F03DEC42F002E2E16A40
:1030D000E552E16E0050E76E080EE7CFDBFF080E09
:1030E000F3EC41F000BE0168150E001806E1015036
:1030F00004E10101150E0F6F2BD0080EF3EC41F027
:1031000000BE01680050011028E1B9EC4AF002E26B
:10311000E16AE55238EC51F0A5EC45F0190E14ECDB
:1031200052F019E094EC40F0A5EC4AF0D9500B0FA6
:10313000C6EC51F002E2E16AE552B5EC44F00BE175
:1031400001011B0E0F6F080EDB6E0001E4EC49F06D
:10315000F36AF46A67D03DEC46F0080EF3EC41F0F8
:1031600000BE01680050011001E03AD7A2EC40F027
:1031700025EC4BF0090EDBCF00F0DB2A0A0EDBCF8B
:1031800001F001E3DB2A94EC40F077EC45F002C05B
:10319000EFFF010EE76ED5EC4FF0E7500026000E72
:1031A000012280EC44F0D9500F0F89EC4EF0FCEC7A
:1031B00040F0EE06EE5AEE5AEE5A170EDB2A180EC3
:1031C00001E3DB2A78EC4CF0040B01E0010EE6ECA5
:1031D00040F004E0D950130F89EC4EF00001010ECD
:1031E000A96FFED6B8EC52F0090EDBCFEEFF0A0E47
:1031F00001EC4FF00F0EDBCFEEFFDCEC47F0CEEC36
:103200004FF0DBCFEEFF140EDBCFEEFF150EDBCF62
:10321000EEFF160EDBCFEEFF170EDBCF40F0180EE1
:1032200037EC45F01A0EE15C02E2E16AE552E16E2C
:103230008EEF40F07AEC50F002E3E168E652E16E86
:10324000060EA3C0DBFF070EA4C0DBFF94EC40F02A
:1032500074EC44F094EC40F018EC54F0DCEC4FF0DB
:1032600007EC52F002E2E16AE552E16E005044ECF4
:1032700047F094EC40F00A0EF2EC51F00050DE26DC
:103280000150DE220250DE220350DD22DD52DD52EB
:10329000E66AA2EC40F0A5EC4AF0FCEC40F088ECC9
:1032A00040F09FEC48F002E2E16AE552B5EC44F0F0
:1032B00002E1090E03D00001A96B000E006E080E9A
:1032C000E15C02E2E16AE552E16E00508EEF40F00F
:1032D00039EC54F064EC40F071EC45F05DEC40F0FA
:1032E000120E64EC40F00250EE1808E10350EE18A4
:1032F00005E10450EE1802E10550EE1802E0000E60
:1033000001D0010E016AF36E01C0F4FF8EEF40F0B0
:1033100068EC40F0150EE12402E3E168E6525EEC51
:103320004BF0120E91EC48F001010F6BADEC4CF03C
:10333000100EEECFDBFF110EEDCFDBFF06EC41F000
:103340000E0EC7EC4CF078EC4CF0020B01E0010ED5
:10335000E6EC40F002E11E0E09D09EEC42F008E0DF
:1033600069DFE6EC40F004E00101090E0F6F44D084
:10337000A3C002F0A4C003F0F60EDB50021803E174
:10338000F70EDB50031819E0100EDBCF04F0110E1E
:10339000DBCF05F0066A076A94EC40F02CEC54F0A1
:1033A0000450EE180CE10550EE1809E10650EE1835
:1033B00006E10750EE1803E102E1000E01D0010E14
:1033C0008FEC4AF01EE0A5EC45F0B9EC4AF002E2C1
:1033D000E16AE55270EC51F0FFEC51F00C0FC6ECD5
:1033E00051F002E2E16AE552B5EC44F008E1010176
:1033F000080E0F6F28EC4AF0F36AF46AADD04AEC7D
:1034000046F06AEC4EF0A3EC4CF001E18FD0D0EC2A
:103410004BF0DBCF03F006EC41F0120EADEC4DF0BB
:103420000DE10150EE180AE10250EE1807E10350D9
:10343000EE1804E103E101013D0E49D0A8EC47F08C
:10344000FFEC52F04AE10150EE1847E10250EE184D
:1034500044E10350EE1841E140E102EC4AF082EC15
:1034600051F01FE1035001181CE106EC41F0BDECE6
:1034700047F0F3EC45F0ADEC4EF002E2E16AE552C4
:10348000E16E0250E76E120EE7CFDBFFF3EC41F086
:1034900000BE01680050011004E001010F0E0F6F23
:1034A00045D0B9EC4AF002E2E16AE55270EC51F025
:1034B000A5EC45F0FFEC51F00C0FC6EC51F002E228
:1034C000E16AE552B5EC44F006E10101080E0F6F28
:1034D00028EC4AF02BD04AEC46F0100EDBCF00F07F
:1034E000DB2A110EDBCF01F001E3DB2A94EC40F084
:1034F00077EC45F0EF50E66EA2EC40F0EFEC45F0D3
:10350000040EDB2A050E01E3DB2AD950080F89ECF3
:103510004EF0130EDB2A140E01E3DB2AFCEC40F024
:10352000EE06000EEE5AEE5AEE5A6BD7B8EC52F099
:10353000100EDBCFEEFF110E01EC4FF0E3EC4FF07D
:103540000A0EDBCFEEFF0B0EDBCFEEFF130EDBCF51
:1035500040F0140E37EC45F0150EE15C02E2E16A32
:10356000E552E16E8EEF40F068EC40F02A0EE12467
:1035700002E3E168E652E16E0D0EDB6AB1EC48F061
:103580000C0E0FEC45F0060EDB6A7DEC40F03AECD9
:1035900048F0AFEC47F00101F350045CF4500558DB
:1035A0000DE35DEC40F047EC4FF006BE07682E0ED1
:1035B000061801E1075002E0000E01D0010EF0EC08
:1035C00041F00CE15DEC40F0EFCF08F0096A08BE75
:1035D00009680850091002E0000E01D0010EE6EC67
:1035E00040F001E002D2D950100FD56F000EDA2062
:1035F000D66F050EDB6A060EDB6A55EC4DF0D7512F
:10360000005CD85101581BE2B8EC50F0DBCF03F05E
:10361000FC0EDB500224E96EFD0E6AEC4DF0050E47
:10362000DB50D525E96E060EDB50D621EA6E00C0D0
:10363000EFFF050EDB2A060EE0E3DB2ADED7EAEC1D
:103640004FF0D8EC45F0F3EC41F000BE0168070EF6
:10365000001804E1000E011801E1C7D1030ED7C123
:10366000DBFF040ED8C1DBFF020EF3EC41F000BE1D
:103670000168010E001802E1000E0118020E1DEC97
:103680004CF002BE0368060E021802E1000E031899
:1036900008E00D0EC7EC46F004BE056804500510A6
:1036A00002E0000E01D0010EE6EC40F001E181D114
:1036B00023EC4AF0B2EC4DF04FEC47F0E8AE02D00C
:1036C000033402D08DEC4EF050E2090EDB500101C4
:1036D0008AEC49F08AEC52F004BE05682E0E0418FC
:1036E00017E1055015E1030EDBCF08F0040EDBCF28
:1036F00009F0090EDB50085C066E0A0EDB50095813
:10370000076EE83404E206500408000E075402E392
:10371000000E01D0010E11EC4CF00FE1090EDBCFD1
:103720000AF00A0EDBCF0BF00B3404E20A50080853
:10373000000E0B5402E3000E01D0010EE6EC40F047
:1037400001E053D1090EDB508AEC49F028EC51F02E
:1037500000BE01682E0E001802E1015006E0090EBD
:10376000DB2A0A0EA7E3DB2AA5D70D0EF3EC41F006
:1037700000BE01680050011001E01BD1C7EC53F0FE
:10378000E9CFDEFFEACFDDFF050EDB6A060EDB6A5E
:1037900055EC4DF0D890015002E635EC42F00EE2C7
:1037A000050EDBCF00F0060E3BEC43F0200EEF6E73
:1037B000050EDB2A060EECE3DB2AEAD7090EDBCF87
:1037C00040F00A0EDBCF41F00B0E40C0DBFF0C0EC9
:1037D00041C0DBFF0E0ED5C1DBFF0F0ED6C1DBFFF4
:1037E000050EDB6AB0EC44F0080EDB6A6FEC49F0C2
:1037F000D890035002E6CDEC48F011E2AFEC47F070
:103800000B0EDBCF06F00C0EDBCF07F005500718D0
:10381000E8AE02D0073402D0BDEC50F002E3000E57
:1038200001D0010EE6EC40F043E0B8EC50F0FBECC8
:1038300045F000BE01680050011034E0AFEC47F0E5
:10384000E5EC46F0F1EC4FF002C0EFFF070EDBCFE6
:1038500004F0080EE0EC43F002BE0368D890035079
:1038600002E6D0EC48F00DE3070EDBCF08F0080EBF
:10387000EDEC46F006BE0768073405E22DEC4AF091
:1038800002E2000E01D0010EE6EC40F006E0200E50
:10389000026EF1EC4FF00250EF5E070EDB2A080ECD
:1038A00001E3DB2A050EDB2A060EA0E3DB2A9ED706
:1038B0000B0EDBCF00F00C0E4FEC47F0E8AE02D061
:1038C000033402D08DEC4EF074E20B0EDB2A0C0EAA
:1038D00001E3DB2A080EF36E090EF3CFDBFF0A0EBD
:1038E000DB6AF7EC4FF0D890035002E632EC4AF076
:1038F00011E2B3EC45F0030EDBCF06F0040EDBCF94
:1039000007F005500718E8AE02D0073402D0BDEC2E
:1039100050F002E3000E01D0010EE6EC40F049E069
:103920000B0EDBCF02F00C0EFBEC45F000BE016885
:103930000050011038E0B3EC45F0E5EC46F0B2EC95
:103940004DF03BEC43F002C0EFFF090EDBCF04F07B
:103950000A0EE0EC43F002BE0368D890035002E682
:10396000D0EC48F00DE3090EDBCF08F00A0EEDECC9
:1039700046F006BE0768073405E22DEC4AF002E285
:10398000000E01D0010EE6EC40F008E0200E026EC1
:10399000B2EC4DF03BEC43F00250EF5E090EDB2A37
:1039A0000A0E01E3DB2A0B0EDB2A0C0E9AE3DB2A5C
:1039B00098D7020E1DEC4CF002BE0368060E0218EA
:1039C00002E1000E03180DE00D0EC7EC46F004BE38
:1039D0000568010E041802E1000E051802E0000E51
:1039E00001D0010EE6EC40F002E0000E01D0010E25
:1039F000006E2A0EE15C02E2E16AE552E16E0050DF
:103A00008EEF40F068EC40F0160EE12402E3E1682E
:103A1000E652E16E130EDB6A0C0E8FEC49F0FC0EE1
:103A2000DBCFD5F1FD0EDBCFD6F17DEC40F03AECEB
:103A300048F0FDEC42F00101F350005CF4500158F5
:103A40003CE3EAEC4FF0E76E0C0EE7CFDBFFF3EC64
:103A500041F000BE0168070E001803E1000E0118D6
:103A60002CE00D0ED7C1DBFF0E0ED8C1DBFF0C0E14
:103A7000F3EC41F000BE0168010E001802E1000EF7
:103A800001180C0E1DEC4CF002BE0368060E021865
:103A900002E1000E03180DE0130EC7EC46F004BE61
:103AA0000568010E041802E1000E051802E0000E80
:103AB00001D0010EE6EC40F002E0000EFAD00F0E4D
:103AC000DB6A100EDB6A43EC48F004E6080E045C87
:103AD000000E05580BE2F5EC44F047EC4FF006BE43
:103AE00007682E0E061804E1075002E1000E01D00F
:103AF000010E11EC4CF00AE0F5EC44F0EFCF08F0C9
:103B0000096A08BE09680850091002E1000E01D0D8
:103B1000010EE6EC40F00EE0F5EC44F025EC4BF045
:103B200001EC44F002C0EFFF0F0EDB2A100ECBE3D6
:103B3000DB2AC9D70F0EDBCF40F0100EDBCF41F0F0
:103B4000110E40C0DBFF120E41C0DBFFC2EC50F093
:103B500002E607EC45F009E2E8EC43F001E3DB2A7A
:103B6000B5EC41F0200EEF6EF1D7110EDB500101E4
:103B700096EC49F028EC51F000BE01682E0E0018BA
:103B800036E1015034E1110EDB2A120E01E3DB2A8B
:103B9000110EDB5096EC49F025EC4BF002BE0368A9
:103BA0000250031008E043EC48F004E60B0E045CFE
:103BB000000E055802E3000E01D0010EE6EC40F0C5
:103BC00016E0110EDBCF06F0DB2A120EDBCF07F07A
:103BD00001E3DB2AD5510624E96ED65146EC4EF0BE
:103BE000E8EC43F001E3DB2AC7EC50F0D1D7C2EC9C
:103BF00050F002E635EC42F009E2E8EC43F001E374
:103C0000DB2AB5EC41F0200EEF6EF1D737EC49F02E
:103C100000BE0168200E001804E1015002E15F0EB1
:103C2000DF6EC7EC53F0140EE9CFDBFF150EEACFC1
:103C3000DBFF0F0EDB6A100EDB6AC2EC50F002E60F
:103C400035EC42F035E201EC44F025EC4BF0FDECB4
:103C500042F04CEC48F002C0EFFF01EC44F025ECE0
:103C60004BF002BE0368D890035002E6D0EC48F057
:103C70000BE301EC44F047EC4FF006BE0768073455
:103C800005E22DEC4AF002E2000E01D0010EE6EC56
:103C900040F008E0200E026EFDEC42F04CEC48F0E3
:103CA0000250EF5E0F0EDB2A100EC7E3DB2AC5D7EA
:103CB000010E006E160EE15C02E2E16AE552E16E71
:103CC00000508EEF40F0A0EC4DF0E652030EDB6AA0
:103CD00001010C0ED880D755000ED85503E2060E10
:103CE000DF6E01D0DF6A010EDB6A020EDB6AB6EC22
:103CF00047F00101D751005CD851015801E375D15B
:103D0000010EDB50D5250F01E96E020EDB500101DB
:103D1000D6210F01EA6E28EC51F0040E00C0DBFF43
:103D2000DB50106E116AD890115004E6200E105C22
:103D3000000E115809E2040EDB50126E136A050ED4
:103D4000121804E1135002E1000E01D0010E0F6AB7
:103D5000E8500F100BE1040EDB50146E156A220EB2
:103D6000141801E1155002E0000E01D0010E0D6A99
:103D7000E8500D100BE1040EDB50166E176A2F0E83
:103D8000161801E1175002E0000E01D0010E0B6A77
:103D9000E8500B100BE1040EDB50186E196A3A0E56
:103DA000181801E1195002E0000E01D0010E33ECA9
:103DB00049F00BE1040EDB501A6E1B6A3C0E1A1818
:103DC00001E11B5002E0000E01D0010E3FEC4FF06C
:103DD0000BE1040EDB501C6E1D6A3E0E1C1801E147
:103DE0001D5002E0000E01D0010E4AEC4CF00BE138
:103DF000040EDB501E6E1F6A5C0E1E1801E11F5080
:103E000002E0000E01D0010E11EC4CF00BE1040EAB
:103E1000DB50206E216A7C0E201801E1215002E067
:103E2000000E01D0010EE6EC40F019E11AEC52F060
:103E300018E1040E86EC52F02A0E021801E103503C
:103E40000AE0040E70EC43F03F0E041801E1055047
:103E500002E0000E01D0010EE6EC40F002E0070E99
:103E6000C7D037EC49F000BE0168060E001801E12A
:103E7000015001E1B4D0040EDB500E6E0F6A200E2B
:103E80000E1801E10F500BE0040EDB50106E116AAA
:103E90002B0E101801E1115002E0000E01D0010EAE
:103EA0000D6AE8500D100BE1040EDB50126E136A20
:103EB0002C0E121801E1135002E0000E01D0010E89
:103EC0000B6AE8500B100BE1040EDB50146E156A00
:103ED0003B0E141801E1155002E0000E01D0010E56
:103EE00033EC49F00BE1040EDB50166E176A3D0E01
:103EF000161801E1175002E0000E01D0010E3FEC50
:103F00004FF00BE1040EDB50186E196A5B0E1818A7
:103F100001E1195002E0000E01D0010E4AEC4CF014
:103F20000BE1040EDB501A6E1B6A5D0E1A1801E1DC
:103F30001B5002E0000E01D0010E11EC4CF01BE111
:103F4000040EDB501E6E1F6A2E0E1E180BE11F5052
:103F500009E1030EDB50206E216A010E201801E1F9
:103F6000215002E0000E01D0010E1D6AE8501D1024
:103F700002E1000E01D0010EE6EC40F002E0060E78
:103F80002DD0BAEC46F02E0E001807E1015005E1E5
:103F9000010EF36E030EF3CFDBFF37EC49F000BEEA
:103FA0000168010E001801E1015019E0040EC5EC92
:103FB00044F002E6D0EC48F00AE3040E70EC43F063
:103FC000053407E204507A08000E055402E2000EA0
:103FD00001D0010EE6EC40F002E0010EDF6E3FEC96
:103FE00049F001E284D6DB2A82D637EC49F0005052
:103FF000006E050EE15C02E2E16AE552E16E0050FE
:104000008EEF40F068EC40F00F0EE12402E3E1682F
:10401000E652E16EAAEC4AF0D7EC41F00E0EEECF7C
:10402000DBFF5DEC40F07DEC49F0F60EDBCF40F0BD
:10403000F70EDBCF41F0405001E1415020E0020E8D
:10404000401801E141500EE0010E401818E14150C6
:1040500016E182EC52F05FEC4AF0D9500B0F19ECEC
:104060004CF00DD0B3EC45F09BEC49F05DEC40F02A
:10407000120E64EC40F023EC46F096EC43F09EEC1C
:1040800042F006E005EC48F003E00101090E3DD1E5
:1040900046EC4CF057EC4EF055EC51F076EC49F014
:1040A000FEEC4FF05DEC40F0120E57EC4EF0BDEC24
:1040B00042F0D9500B0F78EC40F0EE50005CEE501F
:1040C0000158EE500258EE50035803E201011F0E52
:1040D0001CD15FEC4FF082EC52F064EC40F0FDEC50
:1040E00044F00E0EDBCFEEFF3FEC43F0180E5FEC1A
:1040F0004AF080EC45F00B0EDBCF3EF00C0EDBCF30
:104100003FF00D0EDBCF40F00E0EC9EC52F044EC48
:1041100047F0B3EC45F09BEC49F03FEC43F02CEC5E
:1041200054F00DEC48F055EC48F0DFCF43F0010EB1
:10413000DBCF44F0020EDBCF45F0030ED0EC44F0B1
:1041400096EC43F05DEC40F00C0E64EC40F00B0E8E
:10415000DBCFEEFF0C0EDBCFEDFF3FEC43F0E6ECE8
:104160004BF0A9EC42F001AE02D00268036880EC8B
:1041700045F0DFCF3EF0010EDBCF3FF0020EDBCF8C
:1041800040F0030EC9EC52F0F7EC41F0FCEC40F0CB
:10419000DCEC41F03FEC43F006EC53F009AE02D00A
:1041A0000A680B6855EC48F0040EDBCF43F0050EAF
:1041B000DBCF44F0060EDBCF45F0070ED0EC44F029
:1041C000D7EC43F0A3EC52F0DFCFEEFF010EDBCFD4
:1041D000EDFFFBEC51F0E6EC47F067E250EC54F0F9
:1041E0007DEC40F09BEC02F03DEC42F002E2E16A33
:1041F000E552E16E0050E76E0A0EE7CFDBFF14ECEC
:1042000052F053E00A0EC9EC4BF03C0E00184AE1A4
:10421000015048E15DEC40F0160E4BEC51F0010B03
:10422000E6EC40F01DE04FEC51F0FBEC51F0010EDC
:10423000EE1805E1EE5003E1EE5001E1EE5007E02B
:104240004EEC4CF002E2E16AE552A2EC49F0E66A7B
:104250007DEC40F013EC47F08FEC4AF026E022D0E2
:104260004FEC51F04EEC4CF002E2E16AE552A2EC68
:1042700049F089EC4BF016E13FEC43F0180ECAEC24
:1042800051F00C0E21EC4BF03FEC43F0E6EC4BF020
:10429000006E016A3BEC49F05DEC40F00A0E21EC47
:1042A0004BF003D001010F0E30D0C3EC4CF093EC77
:1042B00047F007EC52F002E2E16AE55298EC50F068
:1042C0005DEC40F00A0E2CEC53F0FBEC51F0DF50AB
:1042D000EE26010EDB50EE22020EDB50EE22030E24
:1042E000DB50EE224BEC4AF0AB6B3FEC43F0A5EC1D
:1042F0004AF0D950040FC6EC51F002E2E16AE552EF
:10430000B5EC44F005E101011B0EECEC48F010D0D7
:10431000040EDBCFA5F0050EDBCFA6F0060EDBCF3B
:10432000A7F0070EDBCFA8F001010F6BF36AF46A68
:104330000F0EE15C02E2E16AE552E16E8EEF40F0C1
:10434000D9CFE6FFDACFE6FFE1CFD9FFE2CFDAFF40
:104350000E0EE12402E3E168E652E16EFB0EDBCFD4
:10436000F6FFFC0EDBCFF7FFFD0EDBCFF8FF0800FA
:10437000F5CF00F0016A00BE01680D0EDB6A0D0E7C
:10438000DB50006E016A0D0E005C000E015815E254
:104390000900F550E66ED9CF00F0DACF01F00D0E2E
:1043A000DB500F010024E96E000E0120EA6EE55299
:1043B000E750EF6E0D0EDB2AE2D7F90EDBCFE6FFFA
:1043C000FA0EDBCFE6FFD9CFE6FFDACFE6FF13EC3C
:1043D00012F0E552E552E552E55200D00E0EE15CD6
:1043E00002E2E16AE552E16EE552E5CFDAFFE7CF9E
:1043F000D9FF120068EC40F0100EE12402E3E168FE
:10440000E652E16E0D0EDB6A70EC43F0066A05BE03
:104410000668D950FB0FC7EC43F00D0EDB500F01BF
:10442000D92478EC40F002C0EFFFD9CF02F0DACF08
:1044300003F00D0EDB50D92478EC40F028EC51F05D
:1044400000BE01680050011003E00D0EDB2ADCD72E
:104450000D0EDB6A77EC42F004E6020E005C000E03
:10446000015819E20D0E70EC43F0066A05BE0668AD
:10447000D950F80FC7EC43F002BE0368D9500E0FB5
:10448000A8EC4CF00D0EDB5029EC44F002C0EFFF1D
:104490000D0EDB2ADFD7D9500E0F15EC41F0D1EC11
:1044A00052F0C2EC12F0C6EC4BF0100EE15C02E2EE
:1044B000E16AE552E16E8EEF40F0D9CFE6FFDACF48
:1044C000E6FFE1CFD9FFE2CFDAFF0E0EE12402E3EF
:1044D000E168E652E16EFB0EDBCFF6FFFC0EDBCFB0
:1044E000F7FFFD0EDBCFF8FF0800F5CF00F0016A03
:1044F00000BE01680D0EDB6A0D0EDB50006E016A16
:104500000D0E005C000E015815E20900F550E66E34
:10451000D9CF00F0DACF01F00D0EDB500F010024EF
:10452000E96E000E0120EA6EE552E750EF6E0D0EC7
:10453000DB2AE2D7D9CFE6FFDACFE6FFE0EC14F0D2
:10454000E552E55200D00E0EE15C02E2E16AE5526E
:10455000E16EE552E5CFDAFFE7CFD9FF1200D9CF00
:10456000E6FFDACFE6FFE1CFD9FFE2CFDAFF0E0EAA
:10457000E12402E3E168E652E16EFB0EDBCFF6FFD9
:10458000FC0EDBCFF7FFFD0EDBCFF8FF0800F5CF09
:1045900000F0016A00BE01680D0EDB6A0D0EDB50F3
:1045A000006E016A0D0E005C000E015815E2090054
:1045B000F550E66ED9CF00F0DACF01F00D0EDB50EA
:1045C0000F010024E96E000E0120EA6EE552E7506B
:1045D000EF6E0D0EDB2AE2D7F70EDBCFE6FFF80E0B
:1045E000DBCFE6FFF90EDBCFE6FFFA0EDBCFE6FF0F
:1045F000D9CFE6FFDACFE6FFE8EC36F0006E060E24
:10460000E15C02E2E16AE552E16E005000D00E0E7C
:10461000E15C02E2E16AE552E16EE552E5CFDAFFE4
:10462000E7CFD9FF120068EC40F0190EE12402E355
:10463000E168E652E16E23EC4AF00B0EDB6A0C0EE9
:10464000DB6A0001AB6B68EC52F001E1015040E025
:10465000010E001801E1015021E0030E001838E1BD
:10466000015036E1A4EC41F0040E8FEC42F0DF6A19
:10467000110EDB680FEC4AF00F0EF36E140EF3CF41
:10468000DBFFF80EA4EC4DF0160EDB68170EDB68AE
:104690000F0EF36E180EF3CFDBFF28D0A4EC41F021
:1046A000030E8FEC42F0010EA9EC42F0A8EC51F0A1
:1046B000A2EC53F00050DF6EA8EC51F00AEC44F08D
:1046C00004EC46F00F0EF36E160EF3CFDBFF0AD0AC
:1046D000A4EC41F0020E8FEC42F0DF6A04EC46F0ED
:1046E000160EDB68170EDB6A180EDB6ADDEC4DF088
:1046F000010EDBCF3EF0020EDBCF3FF0030EDBCF2F
:1047000040F0040E21EC4CF081EC43F0E0EC53F06F
:10471000A8EC51F0F0EC47F0050F78EC40F0000108
:104720009E51EE186BE19F51EE1868E1A051EE1812
:1047300065E1A151EE1862E161E1CDEC52F003E1D7
:10474000015001E184D068EC52F003E1015001E135
:104750008BD064EC52F001E0C1D0015001E0BED03A
:104760007CEC4BF001AE02D0026803682DEC4DF0FA
:1047700006E005EC50F00AEC44F0E706FCE1F6EC4C
:104780004AF0B6EC47F0030EDBCF02F0040EF2EC79
:1047900042F01CE1000135EC47F008E06FEC4DF011
:1047A00002E2E16AE552BAEC45F044E10CEC50F06B
:1047B000050F34EC4DF002E2E16AE552E16E04507F
:1047C000000933E057EC46F0A9EC49F07CEC4BF0E3
:1047D00001AE02D0026803682BEC4CF008E046EC16
:1047E00045F001E177D0EBEC42F0FDE173D0E2EC73
:1047F0004DF070E0EBEC42F0FDE16CD035EC47F0B1
:1048000008E06FEC4DF002E2E16AE552BAEC45F0E7
:1048100011E1BDEC46F0D950050FC6EC51F002E2B3
:10482000E16AE552B5EC44F00BE100019E699F6935
:10483000A06BA16B110EDBCF00F004EC49F072D03D
:1048400057EC46F0CDEC52F00AE1015008E14BEC98
:1048500052F0E0EC42F00C0EEECFDBFF3FD068EC04
:1048600052F00CE101500AE14BEC52F04CEC41F0FB
:104870009BEC46F0DB6A0C0EDB6A30D064EC52F045
:104880002DE101502BE17CEC4BF001AE02D002682F
:1048900003682DEC4DF006E005EC50F00AEC44F016
:1048A000E706FCE1F6EC4AF07CEC4BF001AE02D0FE
:1048B000026803682BEC4CF007E046EC45F00AE098
:1048C000EBEC42F0FDE106D0E2EC4DF003E0EBEC66
:1048D00042F0FDE1D950090F19EC4CF0150EDBCF79
:1048E00000F0160EDBCF01F0170EDBCF02F0180E32
:1048F000DBCF03F0D950090F78EC40F0CCEC42F05C
:1049000009E3D950150F78EC40F0E0EC42F00C0EC2
:10491000EECFDBFFB2EC4DF0DBCF01F00B0EDBCFC7
:1049200002F00C0EDBCF03F029EC43F0190EE15C32
:1049300002E2E16AE552E16E8EEF40F068EC40F091
:10494000130EE12402E3E168E652E16E67EC4AF0FF
:10495000EF50046E056A030E041801E105500AE0E9
:1049600067EC4AF0EF50066E076A020E061804E183
:10497000075002E1000E01D0010EF0EC41F009E019
:1049800067EC4AF009EC48F0010E081804E1095000
:1049900002E1000E01D0010EE6EC40F006E03E68B8
:1049A0003F6840680F0E416EC0D164EC52F001E1E7
:1049B000015014E0020E001801E101500FE0030E57
:1049C00000180CE101500AE10F0EDB68100EDB68E5
:1049D000110EDB680F0E28EC4AF008D00F0EDB68D2
:1049E000100EDB68110EDB6A120EDB6A0001AB6B86
:1049F000F30E89EC4BF01BE00FEC46F04AEC53F061
:104A000001AE02D0D89003D0005C000E01580CE239
:104A100079EC52F002E2E16AE552B5EC44F001E1D2
:104A200036D11DEC52F0EAD70001A26B7AD168ECC6
:104A300052F001E101501FE0010E001801E10150A8
:104A400009E0030E001817E1015015E1A4EC41F054
:104A5000040E14D0A4EC41F0030E41EC44F013EC2E
:104A600050F0A2EC53F0010E00C0DBFFBDEC52F0A1
:104A70000AEC44F006D0A4EC41F0020E41EC44F004
:104A8000DB6ADDEC4DF0030EDBCF3EF0040EDBCF36
:104A90003FF0050EDBCF40F0060E21EC4CF096EC1B
:104AA00043F0E0EC53F0BDEC52F0F0EC47F00B0FAC
:104AB00078EC40F000019E51EE1808E19F51EE188D
:104AC00005E1A051EE1802E1A151EE182CE035EC01
:104AD00047F01AE00FEC46F04AEC53F001AE02D07A
:104AE000D89003D0005C000E01580CE279EC52F033
:104AF00002E2E16AE552B5EC44F001E1C8D01DECF8
:104B000052F0EAD70001A26BBDEC46F0D9500B0F72
:104B1000C6EC51F002E2E16AE552B5EC44F001E185
:104B2000B1D064EC46F0CDEC52F02FE101502DE114
:104B30000CEC49F0E66E59EC41F0EFEC45F051EC2D
:104B400053F0F6EC42F0FDE159EC41F0010E17ECA8
:104B500050F00268036AD950EEEC4CF0100EF6ECFF
:104B600042F0FDE159EC41F0020E17EC50F0026A00
:104B70000F0E036ED950EEEC4CF0180EF6EC42F02E
:104B8000FDE159EC41F0030E12D068EC52F014E153
:104B9000015012E159EC41F0F40EDBCFEFFF51EC84
:104BA00053F0F6EC42F0FDE159EC41F0010E64ECFB
:104BB00040F000C0EFFFB2D064EC52F001E0AED0A4
:104BC000015001E0ABD09BEC52F022E00F0EA9ECBB
:104BD00042F0D950EEEC4CF0040E1F0B03E0EBEC6E
:104BE00042F0FDE1020E70EC43F00F0E0416000ED1
:104BF0000516066A076A05AE02D006680768045003
:104C0000001205500650075003122FEC49F004D053
:104C10000CEC49F0D8EC45F0DB50E66E59EC41F075
:104C2000EFEC45F0010E13EC50F00DEC54F0030ED8
:104C300000C0DBFF040E01C0DBFF050E02C0DBFF7E
:104C4000060E03C0DBFF030EDBCF00F0040EDBCF4C
:104C500001F0B8EC50F0F2EC42F024E16FEC4DF0D2
:104C600002E2E16AE552BAEC45F011E10CEC50F0D9
:104C70000B0F34EC4DF002E2E16AE552E16E0450B4
:104C800000090CE100019E699F69A06BA16BFDEC1E
:104C900042F083EC49F029EC43F047D064EC46F055
:104CA000A9EC49F09BEC52F011E0F40EDBCF00F0E0
:104CB000F50EDBCF01F0F60EDBCF02F0F70EDBCF07
:104CC00003F0040EF6EC42F0FDE11FD0F40EF50EF9
:104CD000DBCF05F0F60EF70E05C000F00F0E001644
:104CE000036A020EDB50086E096AF00E0816000E09
:104CF00009160A6A0B6A09AE02D00A680B680850E6
:104D0000001209500A500B5003122FEC49F0DB50EF
:104D1000E66E59EC41F0E552E750EF6E0001010EEE
:104D2000A26F3E6A3F6A406A416A130EE15C02E28A
:104D3000E16AE552E16E8EEF40F068EC40F075EC10
:104D40004DF017D83DEC42F002E2E16AE552E16E27
:104D500000508EEF40F068EC40F01AEC43F009D8B8
:104D60003DEC42F002E2E16AE552E16E00508EEF66
:104D700040F068EC40F0480EE12402E3E168E652BE
:104D8000E16EE5EC45F0010EDFEC4CF07DEC4CF013
:104D90000A0E40C0DBFF0B0E41C0DBFFAAEC4AF05D
:104DA0001EEC50F00E0EEECFDBFFAAEC4AF00F0E19
:104DB000EECFDBFF88EC47F0D950120FA8EC4CF097
:104DC000460E00C0DBFF470E01C0DBFF8CEC41F05C
:104DD00046EC43F027EC41F001010F6B1AEC52F066
:104DE00006E0B7EC4CF000AE06D0016804D0B1ECA0
:104DF00041F000BE0168C1EC41F0A0EC4AF001E1D5
:104E00001DD1000EDFCF40F0010EDBCF41F05C0E74
:104E1000401801E1415001E1FAD02E0E401801E1A5
:104E2000415007E038EC42F01AEC52F001E161D158
:104E30003AD11AEC52F006E0C0EC4BF000AE0AD0CA
:104E4000016808D0F0EC48F001E3DB2AB1EC41F056
:104E500000BE01687CEC4DF001E0B0D0ED5001E007
:104E6000ADD01AEC52F006E0C0EC4BF000AE0AD028
:104E7000016808D0F0EC48F001E3DB2AB1EC41F026
:104E800000BE0168C1EC41F03CEC41F08CEC4CF010
:104E90000BE1EE500C1908E1EE500D1905E1EE5052
:104EA0000E1902E101E1CAD098EC51F0010EDFECDD
:104EB0004CF008EC4FF064EC41F002E2E16AE5529C
:104EC000E16E0050080EF3CFDBFF090EB1EC4EF09F
:104ED000080F6FEC4AF051E093EC47F0E4EC4CF033
:104EE000B0EC43F03CEC41F02C0E90EC50F098EC20
:104EF00051F03CEC41F02C0E76EC53F018E152EC02
:104F000052F001E3DB2A92EC4EF0B7EC4DF005E2F3
:104F100086EC53F0FAE3DB2AF8D73CEC41F0300E94
:104F20001DEC4BF03CEC41F036EC54F01AD052EC56
:104F300052F001E3DB2AB5EC41F02E0EEF6E81EC6E
:104F40004BF058EC42F001E3DB2AB5EC41F02E0EB9
:104F5000EF6EB7EC4DF005E286EC53F0FAE3DB2A96
:104F6000F8D7B0EC44F008EC4FF0C1EC44F002E2AA
:104F7000E16AE5527FEC50F003E101011B0E5FD0C6
:104F8000D5EC4AF016E1ED5014E11AEC52F006E0CF
:104F9000C0EC4BF000AE0AD0016808D0F0EC48F04D
:104FA00001E3DB2AB1EC41F000BE0168C1EC41F045
:104FB000E7D7A0EC4AF001E024D771D1A0EC4AF089
:104FC00001E16DD1D5EC4AF020E1ED501EE1D5ECC8
:104FD0004AF016E1ED5014E11AEC52F006E0C0EC94
:104FE0004BF000AE0AD0016808D0F0EC48F001E3C5
:104FF000DB2AB1EC41F000BE0168C1EC41F0E7D71B
:10500000A0EC4AF001E0FDD64AD1010117D01AEC1C
:1050100052F006E0C0EC4BF000AE0AD0016808D0B8
:10502000F0EC48F001E3DB2AB1EC41F000BE01688E
:105030008AEC53F006E1ED5004E101011F0E0F6F01
:10504000E6D0A0EC4AF017E190EC51F038EC42F0D9
:1050500039EC4BF058EC42F001E3DB2A92EC4EF0D5
:10506000B7EC4DF001E31FD139EC4BF097EC4EF06B
:10507000F7E3DB2AF5D73CEC41F036EC54F03CEC9E
:1050800041F0300E1DEC4BF052EC52F001E3DB2A04
:1050900092EC4EF0B7EC4DF001E3B3D686EC53F052
:1050A000F9E3DB2AF7D78EEC53F0A0EC4AF005E0E9
:1050B000D5EC4AF004E1ED5002E1000E01D0010E02
:1050C00011EC4CF003E0CDEC41F002E3000E01D016
:1050D000010EE6EC40F039E0A3EC46F001E3DB2AF8
:1050E000B0EC49F027EC52F000BE0168C1EC41F091
:1050F000DCD78EEC53F0A0EC4AF005E0D5EC4AF09A
:1051000004E1ED5002E1000E01D0010E11EC4CF073
:1051100003E0CDEC41F002E3000E01D0010EE6EC1D
:1051200040F013E0A3EC46F001E3DB2AB0EC49F0D9
:105130000A0E5BEC4AF00B0E01E3DB2A58EC54F04C
:1051400000BE0168C1EC41F0D6D7A3EC46F001E304
:10515000DB2AD90EE926010EEA22EF6A5CEC4DF05B
:10516000DBCF03F0D3EC48F024E2A0EC4AF005E0FA
:10517000D5EC4AF004E1ED5002E1000E01D0010E41
:105180008FEC4AF016E01AEC52F006E027EC52F0F1
:1051900000AE0CD001680AD00A0E5BEC4AF00B0E90
:1051A00001E3DB2A58EC54F000BE0168C1EC41F089
:1051B000DCD7E66A46EC43F035EC4AF002EC1DF031
:1051C00043EC4FF002E2E16AE55234EC44F0025065
:1051D00001101DE046EC43F0FBEC4BF046EC43F0D5
:1051E00054EC43F025EC44F002E2E16AE55234EC81
:1051F00044F000BE01680050011003E001010C0EF4
:1052000005D001017351100B05E11F0E0F6FF368FC
:10521000F4684BD038EC42F0B7EC4DF012E235ECCC
:1052200041F0640EE926010EEA2225EC4BF081ECF8
:105230004BF05CEC42F03AEC4AF0030EEDE3DB2A73
:10524000EBD73CEC41F017EC52F04BC1EEFF4CC1F8
:10525000EEFF4DC1EEFF4EC1EEFF98EC51F0A0EC19
:105260004AF01DE0D5EC4AF001E0CBD5ED5001E06D
:10527000C8D51AEC52F006E0C0EC4BF000AE0AD0F4
:10528000016808D0F0EC48F001E3DB2AB1EC41F012
:1052900000BE0168C1EC41F0A0EC4AF0E3E146EC4D
:1052A00043F0D6EC52F0F36AF46A480EE15C02E295
:1052B000E16AE552E16E8EEF40F068EC40F0190EC5
:1052C000E12402E3E168E652E16E8FEC47F0EE5034
:1052D000ED1004E10A0E006E016A06D0FA0EDBCF73
:1052E00000F0FB0EDBCF01F0C1EC41F0D950060F0E
:1052F00025EC50F0080EDB6A120E91EC48F0150E0A
:10530000DB6A01010F6B8FEC47F0EE50ED1009E105
:10531000D950020F3EEC47F0E70EEE6E010EED6E37
:105320000BD09EEC45F089EC45F087EC44F0EE5054
:10533000ED1002E11F0EE3D1FFEC41F03BEC49F030
:1053400080EC44F08CEC41F0A2EC42F027EC41F010
:1053500085EC4BF025EC4BF002BE03682E0E0218D4
:1053600010E103500EE185EC4BF0010E64EC40F0CF
:105370008AEC52F004BE05682E0E041801E10550B7
:1053800002E0000E01D0010EE6EC40F001E1E3D0B6
:1053900094EC40F017EC52F01DEC4DF0010E17ECC0
:1053A00047F0DB6AA0EC51F039EC44F0CDEC4CF066
:1053B00002E2E16AE552B6EC51F001E18AD02CEC50
:1053C00050F0A3EC48F005E194EC40F036EC54F0DA
:1053D00004D094EC40F04AEC4EF0A0EC51F0B1EC6B
:1053E00048F039EC44F0CDEC4CF002E2E16AE552D1
:1053F000B6EC51F06EE02CEC50F060EC52F0010194
:105400003E50EE1853E11151EE1850E11251EE18D2
:105410004DE11351EE184AE149E160EC52F01051B0
:10542000EE183CE11151EE1839E11251EE1836E157
:105430001351EE1833E132E19DEC44F0EFCF0AF066
:105440000B6A0ABE0B680A50086E096AE50E0A1854
:1054500001E109500DE09DEC44F0CDEC4BF047EC40
:105460004AF0080E0C1801E10D5002E0000E01D0C8
:10547000010EDDEC45F00EE19DEC44F0CDEC4BF07F
:10548000EF500E6E0F6A0F0E0E1801E10F5002E082
:10549000000E01D0010E1CEC53F002E1000E01D011
:1054A000010EF0EC41F002E1000E01D0010E8FEC94
:1054B0004AF012E00E0EDB2A0F0E01E3DB2AE66A49
:1054C000D950CDEC4CF002E2E16AE552B6EC51F075
:1054D00092E101011B0E13D1D950120F6FEC4AF06B
:1054E00030E1090EDB6AF3EC41F000BE0168D890B0
:1054F000015002E635EC42F024E29DEC44F05EEC13
:1055000048F008BE096865EC48F0056A85EC4BF088
:105510006EEC48F002BE0368C7EC50F09DEC44F01E
:105520005EEC48F008BE096865EC48F039EC4BF0D9
:105530006EEC48F002BE0368C7EC50F0090EDB2A9F
:10554000D2D794EC40F02C0E0FEC4FF094EC40F0DE
:10555000300E0FEC4FF085EC4BF025EC4BF002BE1B
:1055600003685C0E021801E1035009E087EC44F087
:10557000020EEE1801E1ED5002E0000E01D0010E26
:10558000E6EC40F00DE035EC41F05C0EEF6E010E04
:10559000E76E35EC41F0E75064EC40F0EF6A22D161
:1055A000A6EC50F094EC40F08CEC4CF008E1EE509E
:1055B0000C1905E1EE500D1902E1EE500E1901E152
:1055C000A2D00A0EF36E090EF3CFDBFF0EEC53F000
:1055D00004BE0568FAEC47F000BE0168200E001812
:1055E00005E1015003E1090EDB06F0D7090EF3ECEB
:1055F00041F000BE0168D890015002E607EC45F08A
:1056000032E3090EF3EC41F000BE0168D89001507E
:1056100002E607EC45F016E385EC4BF0F7EC46F0BC
:1056200006BE07682FEC52F001E3DB2ADAEC52F0F9
:105630001CEC44F0E6E1DE52DD500118E2E168ECDA
:1056400043F0DFD7B9EC44F001E3DB2A97EC4AF0F2
:105650002E0EEF6E1CEC44F006E1DE52DD50011818
:1056600002E168EC43F00EEC53F004BE0568FAEC7E
:1056700047F000BE0168200E001805E1015003E16B
:10568000090EDB06F0D7090EF3EC41F000BE01680D
:105690000001800E011416E185EC4BF0F7EC46F0AA
:1056A00006BE07682FEC52F001E3DB2ADAEC52F079
:1056B0001CEC44F0E8E1DE52DD500118E4E168EC56
:1056C00043F0E1D7B9EC44F001E3DB2A97EC4AF070
:1056D0005C0EEF6E1CEC44F006E1DE52DD5001186A
:1056E00002E168EC43F0A0EC51F0A2EC42F084D867
:1056F000E552E552000901E155D70101080E0F6F8F
:10570000F36AF46A71D0140EDB06150E01E2DB06B3
:10571000120EDB6A130EDB6A080E89EC4BF047E0D1
:1057200071EC46F00AEC43F00DE23FEC4AF00AE27D
:10573000B5EC40F001E2DB06120EDB2A130EF2E3B9
:10574000DB2AF0D7010EE76EA8EC47F0E750002601
:10575000000E0122120E00C0DBFF130E01C0DBFFA2
:10576000040EDBCF02F0050EDBCF03F0020EDB50A0
:10577000025C006E030EDB500358016E140E00C075
:10578000DBFF150E01C0DBFF0AEC43F00DE23FEC3E
:105790004AF00AE2B5EC40F001E2DB06120EDB2A29
:1057A000130EF2E3DB2AF0D7A2EC40F01AD071EC32
:1057B00046F00AEC43F00DE23FEC4AF00AE2B5ECA9
:1057C00040F001E2DB06120EDB2A130EF2E3DB2AC5
:1057D000F0D7A8EC47F097EC4AF0010EE926000E4E
:1057E000EA22EF6AABEC50F0190EE15C02E2E16AEA
:1057F000E552E16E8EEF40F06EEC4EF002E3E168B0
:10580000E652E16E010E21EC44F0DB6A93EC53F0BA
:1058100002E2E16AE5522CEC51F001E1C4D083ECE4
:105820004DF0A3EC48F01FE1CBEC53F05C0EEF6EB3
:10583000DE6ADD6A59EC43F0D890015002E635EC9F
:1058400042F007E2CBEC53F069EC44F0F3E3DB2ADF
:10585000F1D75DEC40F036EC54F05DEC40F0300EEA
:105860001DEC4BF0B2D0060E10C1DBFF070E11C1CC
:10587000DBFF080E12C1DBFF090E13C1DBFF5DEC7D
:1058800040F04AEC4EF0EDEC51F013EC44F093ECA8
:1058900053F002E2E16AE5522CEC51F001E183D0D1
:1058A00083EC4DF0A3EC48F005E15DEC40F036EC04
:1058B00054F004D05DEC40F04AEC4EF0FBEC50F0BC
:1058C000E5EC45F093EC53F002E2E16AE5522CEC92
:1058D00051F069E083EC4DF05CEC52F001013E5078
:1058E000EE1852E11151EE184FE11251EE184CE151
:1058F0001351EE1849E148E15CEC52F01051EE18FA
:105900003BE11151EE1838E11251EE1835E1135117
:10591000EE1832E131E1DFEC4BF0EFCF0AF00B6A29
:105920000ABE0B680A50086E096AE50E0A1801E102
:1059300009500DE0DFEC4BF064EC40F047EC4AF02E
:10594000080E0C1801E10D5002E0000E01D0010E0E
:10595000DDEC45F00DE1DFEC4BF04BEC51F00E6E61
:105960000F6A0F0E0E1801E10F5002E0000E01D079
:10597000010E1CEC53F002E1000E01D0010EF0EC20
:1059800041F002E1000E01D0010E8FEC4AF013E06D
:10599000E66A50EC4FF064EC41F002E2E16AE55255
:1059A0002CEC51F002E1FF0E30D0040EDB2A050E84
:1059B00091E3DB2A8FD75DEC40F017EC52F0C1EC9D
:1059C00042F0EDEC51F0C1EC42F0DE6ADD6AA0EC91
:1059D0004AF01AE138EC42F0C6EC41F0D8900150A0
:1059E00002E635EC42F010E2DFEC4BF05CEC42F00A
:1059F00025EC4BF0CBEC53F05CEC42F03AEC4AF087
:105A0000030EEAE3DB2AE8D7000E006E0C0EE15C21
:105A100002E2E16AE552E16E00508EEF40F068EC80
:105A200040F075EC4DF017D83DEC42F002E2E16A2F
:105A3000E552E16E00508EEF40F068EC40F01AEC59
:105A400043F009D83DEC42F002E2E16AE552E16E32
:105A500000508EEF40F068EC40F0280EE12402E3A5
:105A6000E168E652E16E38EC42F0E5EC45F063ECBB
:105A700044F0AAEC53F089EC4DF0AAEC4AF0D7ECD4
:105A800041F07DEC4CF0ACEC45F0D950100F3EEC01
:105A900047F0150EEE6E010EED6ED950120F58EC58
:105AA00053F0A4EC4DF0160EDB6A2E0EF36ED8EC1C
:105AB00048F0DB6A190EDB6A97EC48F003E001015D
:105AC000180E0DD3E9EC4BF001E094D0015001E049
