:020000040000FA
:060000004CEF5BF0120062
:0A00060002002AB700009E0000006F
:100010001E00000028B70000C6000000020000001B
:10002000ADEC3EF061EC54F00001AB6BA26B9E694D
:100030009F69A069A1691AEC39F0FDEC42F0B10E9C
:10004000E66E010EE66E8BDAE552E55200093DE1FF
:10005000E0EC30F07DEC36F0E0EC30F04DEC37F0D9
:10006000E0EC30F01FEC39F0E0EC30F00E0E02EC7A
:1000700042F0120E02EC42F080EC42F05C0EEF6EA9
:10008000010EDE6EDD6A0CEC33F0D890155002E6FE
:1000900064EC3AF007E235EC40F03DEC34F0F3E389
:1000A000DB2AF1D7E0EC30F026EC38F0E0EC30F071
:1000B0002A0E47EC30F0100EEE6EED6AC8EC3FF001
:1000C00001010F6B010EF36E01D0F36AF46A020EA8
:1000D000E15C02E2E16AE552E16ED0EF30F0CBEC98
:1000E00030F00B0E60EC3DF04CEC34F00B0E11ECEC
:1000F00033F021EC3FF076EC30F02A0E7FEC39F053
:10010000FF0E141A151A020E14C0DBFF030E15C0E1
:10011000DBFFD3EC42F006E17FEC3AF003EC3CF07D
:100120000DE109D0040EDB500F0B08E07FEC3AF034
:1001300003EC3CF003E11B0E11EC33F0060EDB5038
:100140001B0801E1B8D0060EDB5001E1B4D006EC8B
:1001500042F056EC0CF0D4EC30F024EC39F0DB50EB
:10016000020801E1A8D0090EDB5001E098D046EC6E
:1001700042F00AEC42F03F0EDE16DD6AF90EDB506B
:10018000010A28E0010A01E08FD0BAEC30F0080E35
:10019000EE1801E1ED5001E187D0060EDB6A6D0E2D
:1001A000A1EC33F00A0EDB6A0B0EB2EC3EF001E379
:1001B0007BD051EC3FF00A0EBAEC42F0080EEFCFC4
:1001C000DBFF40EC31F064E11750151861E10A0ED5
:1001D000DB2AEAD7F1EC3AF0DE501614146EDD504B
:1001E0001714156E145015105FE1BAEC30F00F0EB5
:1001F000EE1801E1ED5058E0060EDB6A6D0EA1EC41
:1002000033F076EC30F01B0E72EC39F02A081CE06B
:100210000A0EDB6A080EB2EC3EF016E251EC3FF03B
:1002200041EC3CF011E0080EDB503F080AE040ECE6
:1002300031F002E11750151804E00B0E11EC33F009
:1002400003D00A0EDB2AE6D776EC30F080EC42F0E1
:10025000080E72EC39F02A0827E0060EDB5024E184
:10026000080EF36E0A0EF3CFDBFF0B0EB2EC3EF07E
:100270001BE251EC3FF041EC3CF016E0080EDB5085
:100280003F080AE040EC31F002E11750151804E095
:100290000B0E11EC33F008D00A0EDB2AE6D7FA0E6B
:1002A000DB5002E1060EDB6A040EDB2A050E01E2DA
:1002B0004AD7DB2A48D7060EDB50146E0B0EE15CE2
:1002C00002E2E16AE552E16E1450D0EF30F0B6EC94
:1002D0003EF0070EDB6A4AEC3BF08BEC30F0230E6D
:1002E00072EC39F003E1070EF36E21D021EC3FF000
:1002F00076EC30F0EE50ED1004E19DEC41F00AE1B7
:1003000006D0BBEC3EF006E09DEC41F003E11B0E95
:10031000A1EC33F0EDEC39F056EC0CF0D4EC30F00D
:100320002BEC38F0DB5006E00B0EF36E070EF3CF2C
:10033000DBFF71D0E8EC40F0A2EC39F078EC3FF054
:1003400040EC30F04DEC37F040EC30F01FEC39F081
:10035000020EDB0404E10B0EA1EC33F046D06FEC8F
:100360003FF051EC3AF0DCEC40F0030E06C0DBFF4E
:10037000040E07C0DBFF050E08C0DBFF060E09C038
:10038000DBFF0001A95105E060EC37F002E0090E47
:1003900044D0FD0EDBCFA3F0FE0EDBCFA4F090EC3B
:1003A00034F00001A551EE1808E1A651EE1805E160
:1003B000A751EE1802E1A851EE1817E0AB6B41EC23
:1003C00041F090EC34F0A6EC39F003E1080EA1EC1A
:1003D00033F0030EDBCFA5F0040EDBCFA6F0050E45
:1003E000DBCFA7F0060EDBCFA8F065EC3DF0FA0EF0
:1003F000DB50770804E0FA0EDB50610807E124ECDB
:1004000040F0EF8024EC40F0EF9205D068EC3DF036
:1004100024EC40F0EF82070EDB50146E080EE15C16
:1004200002E2E16AE552E16E1450D0EF30F0CBEC1D
:1004300030F0130EE126100EDB6A40EC30F068EC71
:1004400038F0DBCFE9FF120EDBCFEAFFADEC42F074
:10045000020A16E0030A0BE0020A12E17DEC3BF00F
:100460000E0EDB680F0EDB6E9AEC36F00FD0F80E36
:1004700016EC33F00F0EF36E0D0EF3CFDBFF02D050
:100480007DEC3BF007EC3CF030EC35F040EC30F02C
:10049000060E9FEC3CF012EC32F0D7EC42F0110E5D
:1004A000DBCFE6FF120EDBCFE6FFB0EC3AF00CE15B
:1004B0000750161809E10850171806E109501818D6
:1004C00003E102E1080E17D0110EDBCFE9FF120E97
:1004D000DBCFEAFF140E66EC39F0BFEC3EF005E32B
:1004E0000A0EF36E100EF3CFDBFF37EC33F0BFECE8
:1004F0003EF005E33C0EF36E100EF3CFDBFF6FEC26
:100500003FF0DFCFEEFF010EDBCFEEFFBAEC38F0AD
:10051000E0EC40F0EF06EECF14F0000EEF5AEECF15
:1005200015F0EF5AEECF16F0EF5AEFCF17F0D88054
:100530001454000E1554000E1654000E175403E206
:10054000100EDB50A3E0100EDB50146E130EE15CB6
:1005500002E2E16AE552E16E1450D0EF30F0A3EC14
:100560003CF0DF6A40EC30F0230E47EC30F0EF6AED
:1005700040EC30F0000EEE6E070EED6EACEC47F086
:10058000DE528CEC35F0DD52D9EC30F0EF5005E066
:10059000060EDF6E01010F6F34D0D9EC30F0EE5251
:1005A000EF50010B18E0D9EC30F0F6EC3FF040ECE6
:1005B00030F0180E6AEC39F0D9EC30F047EC30F03E
:1005C000D880EE54020EED5406E2210EDF6E0101DA
:1005D0000F6FDF5017D054EC30F01ED8E552E552C3
:1005E000DF6EDF500EE154EC30F0E3D8E552E55217
:1005F000DF6EDF5006E140EC30F0230E3DEC3CF0C6
:10060000EF6EDF50146E030EE15C02E2E16AE55228
:10061000E16E1450D0EF30F0A8EC3CF0020EDB6A33
:1006200040EC30F0FAEC37F0E66AE66AE66A4FEC46
:1006300044F0EAEC30F0010807E0080ED3EC34F0A7
:100640000101080E0F6FA9D040EC30F04CEC34F0F3
:100650007DEC30F0FE0E82EC36F055085FE17DEC6B
:1006600030F0C3EC3EF05AE17DEC30F0360E72EC27
:1006700039F0460825E17DEC30F0360E45EC41F0CE
:1006800041081EE17DEC30F0360EA3EC41F018E19C
:100690007DEC30F0360E47EC30F0030E72EC39F0A2
:1006A00031080EE17DEC30F0260E72EC39F02908AD
:1006B00007E1BEEC3AF0A2EC39F0CBEC3BF02BD0EA
:1006C0007DEC30F0520E72EC39F0460827E17DECFB
:1006D00030F0520E45EC41F0410820E17DEC30F065
:1006E000520EA3EC41F01AE17DEC30F0520E47ECD3
:1006F00030F0030E72EC39F0330810E17DEC30F08D
:10070000420E72EC39F0290809E1BEEC3AF0A2EC95
:1007100039F0CFEC3BF0EF6E000E41D04AEC3BF0ED
:100720008BEC30F082EC36F0550805E18BEC30F0C4
:10073000C3EC3EF003E00101040E2CD06BEC3DF065
:10074000080E66EC39F0BEEC3AF06AEC39F06BEC6E
:100750003DF0040E47EC30F0030E5CEC37F00B0A72
:1007600013E0070A11E0080A0CE0020A0AE0080A8E
:1007700008E00F0A0DE140EC30F0220E3DEC3CF0B9
:1007800005D0CBEC3BF002D0CFEC3BF0EF6E05D0C8
:100790000101050E0F6FD3EC34F0020EDB50146E26
:1007A000060EE15C02E2E16AE552E16E1450D0EF20
:1007B00030F0CBEC30F0150EE1260C0EFDEC37F0EE
:1007C00039EC40F0BEEC3AF047EC30F0AAEC41F0E6
:1007D000010804E0080E16EC33F0E4D140EC30F0F0
:1007E00056EC39F00E0EEDCFDBFFADEC30F0FE0E27
:1007F00082EC36F0550805E1ADEC30F0C3EC3EF08C
:1008000002E0030E38D1ADEC30F00D0E22EC41F0D9
:1008100092EC41F0D0EC39F0ADEC30F0F6EC3FF07A
:10082000BEEC3AF0ACEC3AF040EC30F0060E6AEC7C
:1008300039F0ADEC30F0100E22EC41F0200E47EC18
:1008400030F0D0EC39F0ADEC30F0160EF6EC3FF0B5
:1008500040EC30F01C0E6AEC39F040EC30F01C0E2D
:100860000EEC42F008E1ADEC30F0240E6BEC42F0FF
:100870001C0E6AEC39F040EC30F01C0E47EC30F006
:10088000A2EC37F040EC30F0200EE1EC3CF011EC43
:1008900034F002C014F003C015F004C016F005C017
:1008A00017F040EC30F0060EACEC3AF060EC41F0A2
:1008B0006AEC39F0ADEC30F0110EFBEC3FF0120EAB
:1008C00021EC3AF0E9EC3CF00AE0ADEC30F0130E2C
:1008D0007FEC39F053EC34F076EC34F005D0ADEC2D
:1008E00030F0200E9FEC3CF083EC3BF00F0EEECF8F
:1008F000DBFF100EEDCFDBFFD9500F0F98EC42F06D
:100900000CE0010EE76E02EC32F0E7501416156AA7
:10091000010E141804E1155002E1210EACD083EC55
:100920003BF0EECF1CF0EFCF1DF0ADEC30F0110E30
:1009300047EC30F0C8EC3EF0050ED890183619366A
:10094000E806FBE183EC3BF0EECF1AF0EFCF1BF0B3
:100950001A061B5A18501A24166E19501B20176EAF
:1009600016C008F0096E1CC00DF01DC00EF072EC30
:100970003DF0000E08C0DFFF010E09C0DBFF0DECEB
:1009800032F0BAEC30F0D8EC31F060EC41F0A4EC8D
:100990003BF074EC3FF0D0EC35F0080E14C0DBFFF8
:1009A000090E15C0DBFF0A0E16C0DBFF0B0E17C0C9
:1009B000DBFF40EC30F0210EE1EC3CF0C2EC33F018
:1009C000080EDBCF06F0090EDBCF07F00A0EDBCFF7
:1009D00008F00B0E77EC3AF0140ECDEC3EF0F1EC93
:1009E0003CF00F0EBEEC36F006E240EC30F0220E8A
:1009F0003DEC3CF00BD0F1EC3CF0FF0EBEEC36F0E1
:100A000003E2CBEC3BF002D0CFEC3BF0EF6EBDEC61
:100A100042F00FE1ADEC30F0ECEC40F0EECF0BF13A
:100A2000EECF0CF1EECF0DF1EFCF0EF112EC42F064
:100A300012D001010B6B0C6B0D6B0E6B40EC30F0A8
:100A4000120E7FEC39F0040ED89015321432E804FF
:100A5000FBE1166A176A60EC41F0ACEC3AF0E8ECA6
:100A600040F06AEC39F083EC3BF0D880EE54020E93
:100A7000ED5403E2210E16EC33F0BDEC42F00DE034
:100A80000C0EDB5001E18ED075EC40F0290805E03A
:100A900075EC40F0280801E085D0E9EC3CF04FE12E
:100AA000ADEC30F0340E72EC39F049E1ADEC30F0E1
:100AB000340E45EC41F043E159EC3FF0020E72EC8C
:100AC00039F03DE159EC3FF0030E72EC39F037E1BB
:100AD00059EC3FF0040E72EC39F031E159EC3FF083
:100AE000050E72EC39F02BE159EC3FF0060E72EC7A
:100AF00039F025E159EC3FF0070E72EC39F01FE1B7
:100B000059EC3FF0080E72EC39F019E159EC3FF066
:100B1000090E72EC39F013E159EC3FF00A0E72EC59
:100B200039F00DE159EC3FF0C0EC42F008E175EC12
:100B300040F0290807E075EC40F0280803E0030EB8
:100B400016EC33F00C0EDB5013E0130EDB5010E10B
:100B5000010EF36E130EF3CFDBFF39EC40F0ADEC7A
:100B600030F0320EF6EC3FF064EC41F018E013D0B8
:100B70000C0EDB5017E0140EDB5014E1010EF36E87
:100B8000140EF3CFDBFF39EC40F0060EA6EC33F089
:100B900064EC41F004E00101080E0F6F0BD00C0E65
:100BA000DB6A23D60C0EDB5003E00C0EDBCF0FF11B
:100BB0000C0EDB50146E150EE15C02E2E16AE552A8
:100BC000E16E1450D0EF30F0ADEC3CF0DE6ADE6A3E
:100BD000DE6ADD6ADD52DD5240EC30F0140EB0EC1E
:100BE00041F012EC42F0100E1F0B03E0ABEC32F0C0
:100BF000FDE1AFEC33F040EC30F01A0EF6EC3FF0D4
:100C00001450DE121550DE121650DE121750DD128F
:100C1000DD52DD52DDEC35F002E2E16AE552E16ED3
:100C2000D0EF30F0B2EC3CF04AEC3BF0F1EC3FF0AE
:100C300044EC33F08BEC30F0B0EC42F0D8EC31F017
:100C4000050ED8901B321A3219321832E806F9E133
:100C50000CEC3CF0166A176AD3EC32F0C2EC33F0BD
:100C6000EBEC5AF0030E06C0DBFF7AEC40F0010A11
:100C700005E0030A03E0010A1FE10ED0C4EC36F0E0
:100C800064EC37F008E1EE500C1905E1EE500D1957
:100C900002E1EE500E1910E08BEC30F092EC41F0D6
:100CA000EFCF14F014C00EF0030EDBCF09F068ECA8
:100CB0005BF0030E05C0DBFFC4EC36F051EC3AF0FC
:100CC000D3EC3BF0E66A41EC41F0030E4DEC40F012
:100CD0000BEC35F0000903E1020EDB6A03D0010ED4
:100CE000D3EC34F0DB50146E0C0EE15C02E2E16AEE
:100CF000E552E16E1450D0EF30F0CBEC30F00D0E39
:100D0000E1260C0EDB6A83EC31F0ADEC42F0020A16
:100D100019E0030A0EE0020A15E19AEC36F0F80E2B
:100D2000F3EC33F0DB68060EDB680F0EA1EC33F05A
:100D300011D030EC35F0F80ED1EC3EF00F0ED8ECBF
:100D400034F006D030EC35F0F80EF3EC33F0DB681D
:100D500076EC34F0C1EC38F0FD0EDBCF16F0FE0E71
:100D6000DBCF17F043EC32F00BE010EC3CF0010E5F
:100D7000EE180AE1EE5008E1EE5006E1EE5004E113
:100D8000020E16EC33F05AD00C0EDB5057E112EC89
:100D900032F0B6EC41F0B0EC3AF00CE10750161826
:100DA00009E10850171806E10950181803E102E19B
:100DB000010E0FD0D7EC3BF00BE0BAEC30F0010E97
:100DC000EE180AE1EE5008E1EE5006E1EE5004E1C3
:100DD000020E16EC33F0D8D782EC32F0BFEC3EF0C6
:100DE00003E3020E16EC33F012EC32F049EC41F062
:100DF000E66AB6EC41F0C6EC31F075EC32F0065024
:100E000015180DE1075016180AE10850171807E1E8
:100E10000950181804E103E1010E16EC33F0BAECA6
:100E200030F0FB0EEECFDBFFFC0EEECFDBFFFD0E56
:100E3000EECFDBFFFE0EEECFDBFFA6D7FCEC31F0F2
:100E40001FEC37F0C6EC31F00C0EDB50020802E16B
:100E5000010E01D0000E146E0D0EE15C02E2E16A9B
:100E6000E552E16E1450D0EF30F0CBEC30F0170EBD
:100E7000E126BEEC3AF0EECFDBFF030EEDCFDBFF59
:100E800040EC30F0ECEC40F044EC33F0F1EC3FF0AF
:100E90006CEC37F0130EEECFDBFF02EC31F0B0EC70
:100EA00042F0ABEC37F0200E0B6E0C6A0D6A0E6A46
:100EB000EBEC5AF0160E06C0DBFF9EEC37F076EC3A
:100EC00030F0B7EC3CF014C00DF015C00EF026EC7D
:100ED0005BF0140E08C0DBFF02EC31F0ADEC42F029
:100EE000010A0EE0030A0CE0010A0AE1F9EC3CF009
:100EF0007DEC3BF00E0EDB680F0EF36EDB6E0BD05D
:100F00004DEC33F043EC32F002E0F9EC3CF07DECD8
:100F10003BF007EC3CF0FA0EDB5004E1BBEC3EF09A
:100F200001E0C6D0140EDB500BE10CEC3CF0160EC9
:100F3000DB50166E176AE850145C1750155803E220
:100F4000FA0EDB5050E04DEC33F043EC32F007E1A9
:100F500029EC39F0120EDB6A130EDB6A44D0FA0E6C
:100F6000DB5026E002EC31F0210E72EC39F0186E05
:100F7000196A160EDB50166E176A086E17C009F054
:100F800018C00DF019C00EF01DEC59F006C014F099
:100F900007C015F076EC30F0B7EC3CF006C00DF071
:100FA00007C00EF026EC5BF0150E08C0DBFF03D087
:100FB000010E14EC3CF0DB5016E07FEC3DF060ECF1
:100FC00040F0100E06C0DBFF110E07C0DBFF120E53
:100FD00008C0DBFF130E09C0DBFF79EC3DF003E234
:100FE000150EDB06E8D779EC3DF05CE2F1EC3FF062
:100FF00076EC37F0130EDBCFEEFF7FEC3DF0D3EC59
:101000003BF094EC34F064EC37F01DE1EE500C1939
:101010001AE1EE500D1917E1EE500E1914E113E12B
:10102000140E4DEC40F002EC31F00E0E47EC30F0B7
:10103000B4EC37F008E3030E186E02EC31F0ADECBF
:1010400042F0185C32E10001A95106E060EC37F093
:1010500003E0F36AF46A37D05AEC39F0AB6B02EC78
:1010600031F099EC39F0140E4DEC40F0B0EC31F069
:10107000010803E0DE6ADD6A11D0FA0EDB500AE0F7
:1010800049EC3CF0D89016361736E806FBE1FFEC49
:101090003CF004D002EC31F09CEC33F000011AEC8F
:1010A00039F00FD00001010EAA6FDE6ADD6A09D0A7
:1010B00049EC3CF0D89016361736E806FBE1FFEC19
:1010C0003CF0F8EC3AF0170EE15C02E2E16AE5521E
:1010D000E16ED0EF30F0CBEC30F0E652DF6A010188
:1010E0000F6B76EC30F0EE6AED6AEDEC39F082D8F9
:1010F000D4EC30F0000914E1FA0EDBCFE6FFEDECA2
:1011000039F0FED864EC40F0DF6EDF500BE1F90EF1
:10111000DB5008E054EC30F00BD8E552E55201D03A
:10112000140EDF6EDFCF0FF1DF50E552D0EF30F05D
:10113000CBEC30F00D0E60EC3DF0C8EC38F0D9503F
:10114000010FAAEC39F054EC30F0E6EC0FF0D4ECDF
:1011500030F0DF6EDF5043E1D950090FAAEC39F0CF
:10116000BEEC40F00B0EF3CFDBFF0C0EF4CFDBFF39
:10117000DAEC3EF0D6EC3EF0CFEC38F01A0E21EC73
:101180003AF0146A156A16680F0E176ED6EC3EF028
:1011900056EC33F087EC3BF0070EDBCF16F0080E71
:1011A000DBCF17F0100EB2EC32F0FDE156EC33F06D
:1011B000CFEC38F0140E47EC30F0050EDBCFEEFF2D
:1011C000060EDBCFEDFFD950090FAAEC39F054EC35
:1011D00030F04EEC3BF0010802E0090EDF6EDF500C
:1011E000146E0D0EE15C02E2E16AE552E16E14500C
:1011F000D0EF30F0B2EC3CF0010EDF6E030EDB6A94
:1012000076EC30F04CEC34F06FEC42F0EDEC39F071
:101210008AEC33F085EC3DF0BCEC31F05EE0010E81
:10122000D3EC34F0DF0459E1010EDB6A76EC30F0E8
:101230004CEC34F0E66AEDEC39F059EC31F005E0B5
:10124000CDEC31F0030EEFCFDBFF76EC30F0EE2A81
:10125000000EEF229DEC42F00FE0030EDB50E5089C
:1012600003E0030EDB5008E158EC38F0DB50F36E7E
:10127000010E71EC31F0DEE39DEC42F025E1F1EC82
:101280003FF063EC33F056EC32F064EC37F016E1EB
:10129000EE500C1913E1EE500D1910E1EE500E193D
:1012A0000DE10CE140EC30F0BCEC3CF0ADEC42F078
:1012B000030807E1C2EC3AF00EE103D0C2EC3AF0C9
:1012C0000AE1020EDF6EAED7020EDB50F36E010EA6
:1012D000DB50F35CA7E1DF6AA5D776EC30F0040EB3
:1012E000DBCFEEFF050EDBCFEDFFDF50146E0C0EF3
:1012F000E15C02E2E16AE552E16E1450D0EF30F0B9
:10130000A3EC3CF0DF6A6FEC42F0EDEC39F09EECC0
:1013100039F0DE528CEC35F0DD5209EC32F0EE5053
:10132000ED1002E11B0E84D00B0EE66EE66AA1EC16
:1013300042F052EC37F0D9EC30F0CEEC32F052EC17
:1013400037F001EC58F0DFEC3EF0FA0EDB501208FB
:1013500006E1D9EC30F04AEC42F0100E05D0D9ECA1
:1013600030F04AEC42F0200EEF6ED9EC30F00C0E6B
:1013700047EC30F0EF6AD9EC30F0140EEB6A150E42
:10138000EB6AD9EC30F01A0EEB6A1B0EEB6AD9EC63
:1013900030F01C0EA2EC39F0D9EC30F00D0E47EC19
:1013A00030F000C1EFFFD9EC30F00E0E47EC30F01A
:1013B00001C1EEFF02C1EDFFD9EC30F0100E47EC99
:1013C00030F003C1EEFF04C1EDFFD9EC30F0120E96
:1013D00047EC30F005C1EEFF06C1EDFFD9EC30F06F
:1013E00007EC3DF0D9EC30F00FEC3DF0D9EC30F0EB
:1013F0000CEC41F0D9EC30F00E0E8AEC42F0D9EC56
:1014000030F0100EFBEC3FF0190E21EC3AF0D9EC65
:1014100030F0C0EC42F0E2EC3AF06CEC41F0EDEC74
:1014200039F04EEC3BF0010802E0090EDF6EDF50B0
:10143000146E030EE15C02E2E16AE552E16E1450C3
:10144000D0EF30F0ADEC3EF070EC38F0145C070EED
:1014500015582AE3D950FD0FE1EC31F03B0ED8804E
:10146000EE54080EED5420E3010EF36EFC0E71EC09
:1014700031F01AE3FC0EDB500C0816E3010EF36E9C
:10148000FB0E71EC31F010E3FB0EDB501F080CE398
:10149000FA0EDB50170808E3F90EDB503B0804E3B3
:1014A000F80EDB503B0805E201011F0E5CEC38F042
:1014B00058D070EC38F0145E070E155A14C015F0B1
:1014C000146AD8901536C1EC31F0FC0E9EEC37F062
:1014D000050ED89014361536E804FBE18CEC3DF08F
:1014E000FB0EDB50DF12DECF05F1DDCF06F1DECFE4
:1014F00003F1DDCF04F1DECF09F1DDCF0AF1FA0E01
:101500009EEC37F0E850146AE834E834E834F80B1D
:10151000156E14C0DEFFDD6EF90E9EEC37F0050E81
:10152000D89014361536E804FBE18CEC3DF0F80E4B
:10153000DB50FE0BE842DF12DECF01F1DDCF02F11E
:10154000DECF07F1DDCF08F1F80EDB50010B04E030
:101550000101640E006F02D00101006B0F6BF36A92
:10156000F46A020EE15C02E2E16AE552E16ED0EF5C
:1015700030F0CBEC30F00A0EE1264AEC3BF06FEC99
:101580003FF0020EEECFDBFF030EEECFDBFF9AEC57
:101590003DF093EC3DF051EC3CF03CEC31F043EC91
:1015A00032F002E1150E35D0A1EC3DF006E1E66A1D
:1015B000F80EE66E0F0EE66E06D07AEC40F00208EA
:1015C00005E130EC38F0E66AE66A05D030EC38F038
:1015D000E6680F0EE66EBEEC32F051EC3AF016EC17
:1015E0003DF063EC33F0E66ABEEC32F05FEC30F0D5
:1015F00016EC42F016EC3DF0BAEC38F0D6EC38F0D0
:10160000FC0EDB0405E1BEEC32F0BCEC41F001D095
:10161000000E146E0A0EE15C02E2E16AE552E16E30
:101620001450D0EF30F0CBEC30F0160EE1260DEC7C
:1016300032F096EC35F04AEC3BF06FEC3FF063ECA7
:1016400033F07AEC40F0020A1DE0030A15E0020ACA
:1016500019E1F70ECEEC36F0DB68100EDB680F0EEA
:10166000F36E110EF3CFDBFF2EEC39F0140EDB68B6
:101670000F0E14EC3CF010D0F70ECEEC36F0F36EFB
:10168000DB6E04D0F70ECEEC36F0DB6829EC39F0D7
:101690002EEC39F0E4EC3EF056EC32F0020EEE5C4B
:1016A000000EBEEC36F005E2020E52EC3BF035ECDB
:1016B00038F056EC32F0E9EC3EF016EC42F060EC1B
:1016C00040F067EC33F043EC32F064E078EC38F053
:1016D000DBCF17F0150EC2EC41F016EC42F060ECD7
:1016E00040F075EC32F051EC3CF0065015180AE170
:1016F0000750161807E10850171804E10950181888
:1017000001E144E03CEC31F043EC32F043E056ECD4
:1017100032F0D4EC36F03CEC31F003EC38F01450FD
:10172000EE1808E11550EE1805E11650EE1802E12A
:101730001750EE1815E0020E186E196A1A6A1B6A25
:101740008BEC30F0140EA4EC3BF056EC32F0185059
:10175000EE5C1950EE581A50EE581B50EE5805E347
:10176000020E52EC3BF035EC38F067EC33F0E0EC75
:101770003FF01450EE18A5E11550EE18A2E11650F6
:10178000EE189FE11750EE189CE19BE176EC34F0E7
:1017900035EC38F067EC33F0D3EC32F0160EE15C48
:1017A00002E2E16AE552E16ED0EF30F0A8EC3CF0E5
:1017B000480ED3EC34F0030EDB6A01010F6B2BEC07
:1017C0003CF0160E72EC39F0010B59E00001A95102
:1017D00008E060EC37F005E00101090E5CEC38F040
:1017E0005DD0FCEC31F039EC40F0C6EC31F000019A
:1017F0009E6B9F6BA06BA16B6FEC3FF05FEC30F0CA
:1018000039EC40F060EC40F0CEEC3AF0D3EC42F032
:1018100008E101011B0E0F6F020EDB68030EDB688F
:101820003BD07DEC30F007EC3DF07DEC30F00FEC80
:101830003DF040EC30F0120E66EC39F07DEC30F00B
:101840001C0E6AEC39F046EC42F072EC39F0E66EB0
:101850007DEC30F04AEC42F0D0EC39F073EC41F022
:1018600005E0CEEC3AF00DEC32F007D00101090EA4
:101870000F6F020EDB68030EDB6868EC3DF054EC82
:1018800030F033EC39F0BEEC32F0480EEE1804E1E3
:10189000ED5002E10DEC32F048EC34F0060EE15C64
:1018A00002E2E16AE552E16ED0EF30F0CBEC30F0CD
:1018B000070EE126060EDB6ABBEC3EF008E176EC93
:1018C00030F0EE50ED1003E06FEC42F001D0E66A2C
:1018D000B7EC3FF002E1020E09D0A8EC3DF002E1C6
:1018E000010E04D0030EDB5004E1020ED8EC34F0FC
:1018F00064D08DEC3BF0030EEFCFDBFF020EDB6A12
:10190000080EEDEC3EF005E28BEC30F0AFEC39F078
:10191000F7D78DEC3BF0030EEFCFDBFF8BEC30F015
:10192000080E47EC30F0040EEFCFDBFF020EDB6A4F
:10193000030EEDEC3EF008E28BEC30F0080E47ECC5
:1019400030F0AFEC39F0F4D76CEC41F0A8EC3DF09E
:1019500004E1010ED8EC34F002D0050EDB6A8BEC0A
:1019600030F00CEC41F0E5EC30F057EC3BF08EEC55
:1019700033F0BEEC3AF0CDEC3EF08DEC3BF0030ED4
:101980005CEC37F0E2EC3AF0030EDBA809D08BEC0C
:1019900030F00E0E8AEC42F08BEC30F0100E08D0D6
:1019A0008BEC30F0160E8AEC42F08BEC30F0180E17
:1019B000FBEC3FF0190E21EC3AF0050EDB50146EF3
:1019C000070EE15C02E2E16AE552E16E1450D0EFED
:1019D00030F0A3EC3CF06FEC42F0B7EC3FF021E0CC
:1019E00019EC3FF05CEC37F002E1DE6ADD6A8CEC6A
:1019F00039F01AE0020EDB50E50803E1DE6ADD6A29
:101A000013D08DEC3BF0020E5CEC37F00F080CE1CC
:101A100076EC30F0EE2A000EEF22E66AB7EC3FF0EB
:101A2000F0E1F36AF46A02D0F8EC3AF0030EE15CFC
:101A300002E2E16AE552E16ED0EF30F0B2EC3CF048
:101A4000AFEC3DF0010EF36E0B0EF3CFDBFF40EC7D
:101A500030F0DDEC38F0010EF36E0A0EF3CFDBFF51
:101A60000101010E0F6F0A0E3AEC38F000093CE05C
:101A70006FEC42F0B7EC3FF002E11B0E5FD019ECC7
:101A80003FF0EFCFDBFF8CEC39F007E0020EDB50CC
:101A900004E0020EDB50E50802E10B0E0BD08BECEC
:101AA00030F0E50EEF6EEDEC39F04EEC3BF0000956
:101AB00006E1010EF36E030EF3CFDBFF15D00B0E24
:101AC000DB5008E0E5EC30F057EC3BF0E6EC31F0B1
:101AD0000B0EDB6A0CEC3CF01406000E155A76EC8B
:101AE00030F0B9EC32F0BFD7030EDB5025E174ECD7
:101AF0003FF064EC37F008E1EE500C1905E1EE50D0
:101B00000D1902E1EE500E1914E0FA0EDB5011E04F
:101B10002DEC37F0D7EC42F07DEC06F0EAEC30F03B
:101B2000000902E0000E01D0010EE76E030EE7CFC0
:101B3000DBFF030EDBCF0FF1030EDB50146E0C0E38
:101B4000E15C02E2E16AE552E16E1450D0EF30F060
:101B5000CBEC30F06D0EE12607EC38F003E001012C
:101B6000180E90D05FEC31F061EC35F0BFEC3FF037
:101B7000E66A61EC35F0FCEC3AF003E10101120E8B
:101B800081D0280EDB6A290EDB6AE0EC30F0ECEC49
:101B900040F02E0EEECFDBFF2F0EEECFDBFF300E30
:101BA000EECFDBFF310EEECFDBFFE0EC30F0300E9E
:101BB00047EC30F0320EEECFDBFF330EEECFDBFF23
:101BC000340EEECFDBFF350EEECFDBFF61EC35F0F0
:101BD00034EC37F0BFEC3FF0E66A010EE66E61ECE4
:101BE00035F034EC37F06FEC00F0EAEC30F00B0835
:101BF00047E176EC30F0260E0AEC42F0DDEC34F0F2
:101C00005FEC31F0E6DED4EC30F06A0EF3CFDBFFB0
:101C10006B0EF4CFDBFF6C0EDB6A0B0EF36E6C0EFB
:101C200071EC31F022E280EC38F00F0116240BEC5D
:101C300038F0E66EA5EC42F06C0EDB50E4EC40F0C0
:101C400080EC38F016240BEC38F0E66E6A0EDBCF31
:101C5000E9FF6B0EDBCFEAFFEFEC30F06C0EDB50F0
:101C6000E4EC40F06C0EDB2AD8D7DDEC34F05FEC0E
:101C700031F04EEC3BF0000908E10101090E02D001
:101C80000101110E5CEC38F002D0F36AF46A6D0EBB
:101C9000E15C02E2E16AE552E16ED0EF30F0A8ECDF
:101CA0003CF076EC30F0020EEFCFDBFF1DEC3FF0A6
:101CB0000BE0020EDB50720807E0020EDB50520808
:101CC00003E00101180E13D0340EE66EF6EC53F06B
:101CD000E5528CEC35F0E66AE5EC30F0FCEC3AF0DD
:101CE0000AE1E5EC30F033EC39F00101120E0F6F30
:101CF000F36AF46AC6D026EC3FF001E077D0020E1A
:101D0000DB50520A64E0200A62E0330A21E0200A34
:101D10001FE0160A05E0200A03E080EC35F09DD0B4
:101D200069EC3AF001E099D0D9EC39F001E095D0B6
:101D300061EC42F002E080EC35F0050EDB5001E092
:101D40008CD014EC3AF066EC3FF001E086D07BD00A
:101D50008BEC30F0120E0EEC42F020E054EC40F030
:101D600061EC42F002E080EC35F0050EDB5075E1ED
:101D700014EC3AF0DB5004E001011A0E0F6F0AD0A8
:101D80008BEC30F08EEC42F0B10EE66E010EE66E9A
:101D900060EC40F066EC3FF060E155D069EC3AF061
:101DA0005CE1D9EC39F059E161EC42F002E080EC01
:101DB00035F0050EDB5051E114EC3AF0DB5003E056
:101DC00001011A0E0F6F66EC3FF047E13CD054EC76
:101DD00040F0720EE4EC39F066EC3FF03EE15EEC70
:101DE0003FF03BE127EC41F0EF8037D0FFEC32F0E1
:101DF000B5EC3DF0020EDB5077080CE0020EDB5034
:101E0000570808E0020EDB50610804E0020EDB50C8
:101E100041081DE1030EDB6A040EDB6AD9EC39F0E0
:101E20001CE161EC42F002E080EC35F0050EDB5085
:101E300014E114EC3AF0DB5003E001011A0E0F6FCD
:101E400066EC3FF00AE127EC41F0EF8206D00B0E82
:101E5000D8EC34F001010B0E0F6F1DEC3FF003E0E6
:101E600027EC41F0EF90050EDB5007E0E5EC30F099
:101E700033EC39F0DE6ADD6A02D001010F6BF8EC59
:101E80003AF0060EE15C02E2E16AE552E16ED0EF63
:101E900030F0C6EC42F066EC39F0D3EC32F0D0EF23
:101EA00030F0ADEC3EF0150EDE6E010EDD6E07EC8F
:101EB00038F003E00101180E26D0E66AE5EC30F0B8
:101EC000FCEC3AF003E10101120E1DD026EC3FF0CC
:101ED00003E001010B0E17D05EEC3FF003E00101BF
:101EE000130E11D0010EE66E8BEC30F01AEC3DF0C3
:101EF000E5EC30F0A3DD0FEC38F003E1F36AF46AAF
:101F000005D00101010E0F6FF368F468020EE15C69
:101F100002E2E16AE552E16ED0EF30F0CBEC30F056
:101F20000001A95101E0FDDAE8EC40F0A2EC39F043
:101F300040EC30F01FEC39F040EC30F04DEC37F075
:101F400078EC3FF05AEC39F0D0EF30F0156A0FC161
:101F5000F3FF15C0F4FF1200B6EC3EF06CEC35F068
:101F60004CEC35F0B9EC3DF05AEC34F0340EDE6E4A
:101F7000DD6A76EC34F0DBEC3BF0DECF16F0DDCF43
:101F800017F015501718E8AE02D0173402D07BECCA
:101F900034F014E2C0EC3DF0040EDB501624E96E80
:101FA000050E87EC3CF0DBEC3BF087EC39F0D0EC35
:101FB00039F0FDEC33F0DFE3DB2ADDD7080EE15C1E
:101FC00002E2E16AE552E16ED0EF30F0A3EC3CF0C2
:101FD000020EDB6A4AEC3BF093EC3DF08EEC33F002
:101FE00076EC30F0CBEC33F076EC30F04BEC30F0BC
:101FF00043EC32F004E1150ED3EC34F045D0A1EC03
:102000003DF012E1E66AF80EE66E0F0EE66EE66A45
:10201000E66AC4EC40F02FE1E86807182CE10850AC
:102020002AE1095028E124D07AEC40F002080FE1BF
:1020300030EC38F0E66AE66AC4EC40F01CE1E8688F
:10204000071819E1085017E1095015E111D030ECDB
:1020500038F0E6680F0EE66EC4EC40F00CE1E8687C
:10206000071809E1E868081806E10F0E091803E1EE
:10207000090ED3EC34F0020EDB5006E176EC30F0C2
:10208000BCEC41F02BEC38F0020EDB50146E030E6A
:10209000E15C02E2E16AE552E16E1450D0EF30F00B
:1020A000A8EC3CF0050EDB6A2AEC3BF0010E06C002
:1020B000DBFF020E07C0DBFF030E08C0DBFF040ED0
:1020C00009C0DBFF0001A95105E060EC37F002E038
:1020D000090E31D05AEC39F0AB5105E16BEC3BF015
:1020E0000001010EAB6FDF6A40EC30F0210E72ECA4
:1020F00039F0DF5C1EE2050EDB501BE1E66A39ECCD
:1021000040F009EC32F0EFCF14F0EE2A000EEFCFE2
:1021100015F0EE22EFCF16F0EE22EFCF17F0EF2200
:102120000BEC35F0010803E0090ED8EC34F0DF2A9F
:10213000DBD7050EDB50146E060EE15C02E2E16AAD
:10214000E552E16E1450D0EF30F0ADEC3CF040ECD5
:102150003FF0010A04E0030A02E0010A17E0F7EC8D
:1021600035F043EC32F00BE0E0EC40F0010EEE18FD
:102170000DE1EE500BE1EE5009E1EE5007E1F7EC16
:1021800035F060EC41F0ACEC3AF02CD0E8EC40F0EB
:1021900047EC30F0EECF20F0EECF21F0EECF22F082
:1021A000EFCF23F040EC30F059EC3CF061EC34F030
:1021B000FB0EDBCF1AF0FC0EDBCF1BF0020E185E1D
:1021C000000E195A1A5A1B5A11EC34F002502024EE
:1021D000146E03502120156E04502220166E0550F7
:1021E0002320176EAFEC33F0DDEC35F002E2E16A4C
:1021F000E552E16ED0EF30F0ADEC3CF001010F6B39
:10220000FC0EDB50D80B19E12BEC3CF02C0E6BECE8
:1022100042F0300E6AEC39F0DDEC34F0BEEC40F008
:10222000C7EC3DF003E101011B0E1DD002EC31F0C3
:10223000C0EC42F0080B03E001011F0E14D046EC85
:1022400042F07FEC39F01450100B04E0FC0EDB5030
:10225000100902D0FC0EDB50E2EC3AF073EC41F0D6
:1022600005E10101090E5CEC38F002D0F36AF46A72
:10227000040EE15C02E2E16AE552E16ED0EF30F07B
:10228000CBEC30F01A0EF0EC34F072EC3BF0080EB0
:10229000DB6A170EDB6A180EDB6A7EEC40F0010B7E
:1022A00005E101011D0E0F6F090E0AD0D7EC3BF0BE
:1022B00001E1CAD01DEC3FF008E00101180E0F6FDC
:1022C000F36E080EF3CFDBFFBFD00001AB6B20EC49
:1022D0003BF0C8EC38F091EC3BF00F0EEECFDBFF9B
:1022E0006CEC37F094EC3FF088EC38F003E1F80E3A
:1022F000DB50151808E00001A95103E060EC37F04D
:1023000069E173EC35F0A9EC42F00001A551EE183B
:1023100008E1A651EE1805E1A751EE1802E1A85117
:10232000EE180EE0A95103E060EC37F053E1000134
:10233000AB6B8EEC40F002E1E4EC38F000EC36F0F0
:10234000D4EC3DF0EECFDBFF140EEECFDBFF150E2D
:10235000EECFDBFF160EEECFDBFF080EDB5001E009
:10236000B6D0BAEC30F080EC37F001E3B0D002EC3C
:1023700032F0EBEC38F0DAEC36F01450EE1810E1F5
:102380001550EE180DE11650EE180AE11750EE1830
:1023900007E106E1C4EC30F0160E47EC30F0EF84B4
:1023A0001AEC42F07BEC41F054E11550EE1851E18B
:1023B0001650EE184EE11750EE184BE14AE1010EAF
:1023C000F36E190EF3CFDBFF0001A95106E060ECBC
:1023D00037F003E00101090E23D038EC39F0A5EC09
:1023E0003FF018E11750151815E1C4EC30F04DEC32
:1023F00037F07EEC40F0040B09E06DEC36F0C8ECF1
:1024000036F087EC36F0190EDB6A04D0AFEC3BF007
:1024100087EC36F0080EDB50150804E10101150EBB
:102420000F6F12D0080EDB5014E194EC3FF073EC08
:1024300035F0190EDB500BE08EEC40F008E1E4ECD7
:1024400038F000011AEC39F0F36AF46A62D000EC5B
:1024500036F0080EDB5001E080D77DEC30F0EF5015
:10246000E66E090EDBCF14F0DB2A0A0EDBCF15F087
:1024700001E3DB2A65EC30F036EC35F0D0EC39F0D6
:10248000010EE76EDBEC3DF0E7501426000E15223E
:1024900053EC34F0D9500F0F83EC39F0D4EC36F014
:1024A000BAEC30F0EE06EE5AEE5AEE5A170EDB2A70
:1024B000180E01E3DB2A7EEC40F0040B04E0DAECBA
:1024C00036F0D4EC36F00001010EA96F46D72CECA3
:1024D00041F0090EDBCFEEFF0A0EDBCFEDFF91ECF2
:1024E0003BF00F0EDBCFEEFF76EC37F0D4EC3DF097
:1024F000DBCFEEFF140EDBCFEEFF150EDBCFEEFFD2
:10250000160EDBCFEEFF170EDBCF08F0180E23EC14
:1025100034F01A0EE15C02E2E16AE552E16ED0EFBE
:1025200030F0B6EC3EF0060EA3C0DBFF070EA4C0F1
:10253000DBFF65EC30F04CEC34F065EC30F08EEC09
:1025400042F03FEC38F0DBCFE6FFDCEC40F0EBECA8
:1025500036F065EC30F00A0EF6EC3FF01450DE2653
:102560001550DE221650DE221750DD22DD52DD52DC
:10257000E66A7DEC30F099EC39F0BAEC30F0C1EC61
:102580003CF002E1090E03D00001A96B000E146EAD
:10259000080EE15C02E2E16AE552E16E1450D0EF10
:1025A00030F0C6EC42F047EC30F0EECF16F0EECF54
:1025B00017F0C8EC3EF040EC30F0120E47EC30F073
:1025C0001650EE1808E11750EE1805E11850EE18F5
:1025D00002E11950EE1802E0000E01D0010E146E57
:1025E000156A14BE15684EEC41F0D0EF30F0CBEC1C
:1025F00030F0150EF0EC34F006C014F007C015F002
:1026000072EC3BF0120EFDEC37F001010F6B20EC89
:102610003BF0100EEECFDBFF110EEDCFDBFF91ECA8
:102620003BF044EC33F07EEC40F0020B02E11E0E76
:1026300008D00001A95107E060EC37F004E0010187
:10264000090E0F6F2BD088EC38F003E1F80EDB5049
:10265000151829E0100EDBCF16F0110EDBCF17F0A6
:10266000186A196A65EC30F0B0EC42F01650EE18BA
:1026700008E11750EE1805E11850EE1802E1195064
:10268000EE1811E073EC35F0E4EC3FF041EC40F073
:1026900008E10101080E0F6F3DEC39F0F36AF46AAE
:1026A00091D00DEC36F0D7EC3BF074E04DEC33F00C
:1026B000C4EC30F0120E5CEC3BF00DE11550EE185E
:1026C0000AE11650EE1807E11750EE1804E103E195
:1026D00001013D0E30D046EC37F07BEC41F031E1AA
:1026E0001550EE182EE11650EE182BE11750EE188B
:1026F00028E127E129EC39F0A5EC3FF013E1175070
:10270000151810E1C4EC30F04DEC37F0AFEC3BF0B5
:10271000E76E120EE7CFDBFFDB5004E001010F0E86
:102720000F6F38D0E4EC3FF073EC35F041EC40F043
:1027300006E10101080E0F6F3DEC39F02BD00DECD6
:1027400036F0100EDBCF14F0DB2A110EDBCF15F0C4
:1027500001E3DB2A65EC30F036EC35F0EF50E66E45
:102760007DEC30F0D0EC39F0040EDB2A050E01E3ED
:10277000DB2AC4EC36F0D4EC36F0130EDB2A140E50
:1027800001E3DB2ABAEC30F0EE06000EEE5AEE5A08
:10279000EE5A89D72CEC41F0100EDBCFEEFF110E74
:1027A000DBCFEDFF91EC3BF0E8EC3DF00A0EDBCF28
:1027B000EEFF0B0EDBCFEEFF130EDBCF08F0140E97
:1027C00023EC34F0150EE15C02E2E16AE552E16EC1
:1027D000D0EF30F0CBEC30F02A0EE1260D0EDB6AA4
:1027E00007EC3CF00C0ED8EC34F0060EDB6A54EC2F
:1027F00030F0BDEC37F087EC3BF00101F350145C96
:10280000F450155801E29ED140EC30F0EF502E0804
:1028100001E198D140EC30F0EF5001E193D1D95073
:10282000100FD56FDACFD6F1050EDB6A060EDB6A24
:1028300068EC37F0060E90EC38F01BE287EC3BF0CA
:10284000FD0EDB501424E96EFE0EDB50152095ECD6
:1028500041F0050EDB50D5250F01E96E060E8BEC1D
:102860003CF0D0EC39F0050EDB2A060EE1E3DB2A62
:10287000DFD7EFEC3DF02BEC38F0070E42EC39F0EF
:1028800001E160D1030ED7C1DBFF040ED8C1DBFF2D
:10289000020EDB04060E42EC39F001E14CD10D0EC4
:1028A000DB5001E048D138EC39F061EC3BF03FEC13
:1028B00035F015501718E8AE02D0173402D07BEC73
:1028C00034F02CE220EC3DF012E1F6EC3DF0090E84
:1028D000DB50165C146E0A0EDB501758156EE83488
:1028E00004E214500408000E155401E22BD1090E25
:1028F000DBCF18F00A0EDBCF19F0193406E21850BE
:102900000808000E195401E21DD120EC3DF006E04C
:10291000090EDB2A0A0EC9E3DB2AC7D70D0EDB50EE
:1029200001E009D1A5EC42F0E9CFDEFFEACFDDFFFF
:10293000050EDB6A060EDB6A87EC3BF0D89015507B
:1029400002E664EC3AF00DE268EC37F0060EDCECDF
:1029500032F0200EEF6E050EDB2A060EEDE3DB2AC9
:10296000EBD7090EDBCF08F00A0EDBCF09F00B0E18
:1029700008C0DBFF0C0E09C0DBFF0E0ED5C1DBFF6C
:102980000F0ED6C1DBFF050EDB6A76EC34F0080EC5
:10299000DB6A070EDBCF14F0080EDBCF15F0D89002
:1029A000155002E644EC38F04DE2FDEC3DF004EC4D
:1029B0003EF017501918E8AE02D0193404D0185060
:1029C000165C195017583EE268EC37F0060EA6EC7C
:1029D00036F032E0050EDBCF16F0060E1AEC36F0BC
:1029E0000BEC3EF0D0EC39F0070EDBCF15F0080E03
:1029F000A0EC35F0E8AE02D0E73402D0E750145C2A
:102A000016E3070EDBCF18F0080E43EC35F013EC9D
:102A100038F0E8AE02D0173403D0E750D88017540E
:102A200006E3200E166E0BEC3EF01650EF5E070E1E
:102A3000DB2A080E01E3DB2A050EDB2A060EA9E3DA
:102A4000DB2AA7D70B0EDBCF14F00C0E3FEC35F0D2
:102A500015501718E8AE02D0173402D07BEC34F0D2
:102A60006AE20B0EDB2A0C0E01E3DB2A080EF36E82
:102A7000090EF3CFDBFF0A0EDB6A1AEC42F0D890A6
:102A8000155002E664EC3AF056E247EC39F0DBCF41
:102A900017F0030EDBCF18F0040EDBCF19F0175040
:102AA0001918E8AE02D0193404D01850165C195029
:102AB000175841E20B0EDBCF14F00C0EA6EC36F0EB
:102AC00034E047EC39F01AEC36F061EC3BF0DCEC2A
:102AD00032F0D0EC39F0090EDBCF15F00A0EA0EC85
:102AE00035F0E8AE02D0E73402D0E750145C18E3CA
:102AF000090EDBCF18F00A0E43EC35F013EC38F07A
:102B0000E8AE02D0173403D0E750D880175408E35A
:102B1000200E166E61EC3BF0DCEC32F01650EF5EEE
:102B2000090EDB2A0A0E01E3DB2A0B0EDB2A0C0E50
:102B3000A4E3DB2AA2D7060E42EC39F003E00D0E27
:102B4000DB0402E1000E01D0010E146E2A0EE15CDE
:102B500002E2E16AE552E16E1450D0EF30F0CBECC6
:102B600030F0160EE126130EDB6A0C0EF2EC38F094
:102B7000FD0EDBCFD5F1FE0EDBCFD6F154EC30F0FD
:102B8000BDEC37F002EC32F00101F350145CF4506C
:102B900015581DE3EFEC3DF0E76E0C0EE7CFDBFFC1
:102BA000070E146E0C0EDB50145C11E00D0ED7C135
:102BB000DBFF0E0ED8C1DBFF0C0EDB04060E146E1D
:102BC0000C0EDB50145C03E0130EDB0402E1000E7C
:102BD000CAD00F0EDB6A100EDB6A19EC3CF002E67D
:102BE00044EC38F016E2E2EC3BF02E0812E0E2ECA6
:102BF0003BF00FE0E2EC3BF0E66EC5EC3CF0CFECD6
:102C000033F0D0EC39F00F0EDB2A100EE6E3DB2AAE
:102C1000E4D70F0EDBCF08F0100EDBCF09F0110E5A
:102C200008C0DBFF120E09C0DBFF19EC3CF002E626
:102C300044EC38F009E2B8EC33F001E3DB2A9CEC19
:102C400031F0200EEF6EF1D711EC3EF02E0826E1A8
:102C5000110EDB2A120E01E3DB2A11EC3EF01EE01E
:102C600019EC3CF002E664EC3AF018E2110EDBCF0E
:102C700018F0DB2A120EDBCF19F001E3DB2A010189
:102C8000D5511824E96ED651192095EC41F0B8ECD5
:102C900033F001E3DB2A1FEC42F0DFD719EC3CF004
:102CA00002E664EC3AF009E2B8EC33F001E3DB2A27
:102CB0009CEC31F0200EEF6EF1D7200EDF5C02E1CC
:102CC0005F0EDF6EA5EC42F0140EE9CFDBFF150EB0
:102CD000EACFDBFF0F0EDB6A100EDB6A19EC3CF06B
:102CE00002E664EC3AF03EE2D9CF16F0DACF17F004
:102CF000CFEC33F0EF50E66E02EC32F0C6EC37F07A
:102D0000D0EC39F0D9CF15F0DACF16F0CFEC33F0A4
:102D1000EFCF14F0610EE76E1418E8AE02D0E7347E
:102D200002D0E750145C18E3D9CF18F0DACF19F0CD
:102D3000CFEC33F013EC38F0E8AE02D0173403D008
:102D4000E750D880175408E3200E166E02EC32F0DC
:102D5000C6EC37F01650EF5E0F0EDB2A100EBEE306
:102D6000DB2ABCD7010E146E160EE15C02E2E16AAA
:102D7000E552E16E1450D0EF30F0CBEC30F0050EA0
:102D8000E126030EDB6A01010C0ED880D755000E38
:102D9000D85503E2060EDF6E01D0DF6A010EDB6A52
:102DA000020EDB6AF6EC3EF090EC38F001E37FD0E7
:102DB000010EDB50D5250F01E96E020E8BEC3CF0C5
:102DC000040EEFCFDBFF200ECAEC3CF004E2040E51
:102DD000DB50050827E1040EDB50220823E0040E37
:102DE000DB502F081FE0040EDB503A081BE0040EF6
:102DF000DB503C0817E0040EDB503E0813E0040EE5
:102E0000DB505C080FE0040EDB507C080BE0FE0E8C
:102E1000DB500AE1040EDB502A0804E0040EDB500C
:102E20003F0802E1070E44D0060EDF5C3AE0040ED4
:102E3000DB5020081FE0040EDB502B081BE0040EC3
:102E4000DB502C0817E0040EDB503B0813E0040EA7
:102E5000DB503D080FE0040EDB505B080BE0040E76
:102E6000DB505D0807E0040EDB502E0805E1030E81
:102E7000DB0402E1060E14D0040EDB502E0805E13F
:102E8000010EF36E030EF3CFDBFFDF040AE0610EE9
:102E9000CAEC3CF006E3040EDB507A0802E3010EB4
:102EA000DF6E58EC38F001E27DD7DB2A7BD7DF50AC
:102EB000146E050EE15C02E2E16AE552E16E145027
:102EC000D0EF30F0CBEC30F00F0EE126E0EC40F02C
:102ED00017EC3EF056EC39F00E0EEECFDBFF40EC77
:102EE00030F0DDEC38F0F70EDBCF08F0F80EDBCF7A
:102EF00009F0085001E109501EE0020E081801E136
:102F000009500EE0010E081816E1095014E1E8EC32
:102F100040F066EC39F0D9500B0F66EC31F00BD075
:102F200023EC36F040EC30F0120E47EC30F0D0ECF1
:102F300035F070EC33F00001A95106E060EC37F099
:102F400003E00101090E0DD1BEEC3AF09FEC3CF01C
:102F50006FEC3FF0D6EC38F01EEC3EF040EC30F079
:102F6000120E9FEC3CF082EC32F0A9EC42F0B4EC93
:102F700037F003E201011F0EF4D065EC3DF0E8EC00
:102F800040F047EC30F0C9EC34F00E0EDBCFEEFF32
:102F9000E4EC32F0180E66EC39F0D8EC33F00B0E9E
:102FA000DBCF06F00C0EDBCF07F00D0EDBCF08F009
:102FB0000E0E23EC42F0EBEC36F023EC36F0E4ECB2
:102FC00032F0B0EC42F0A2EC37F0CFEC37F0DFCFCC
:102FD0000BF0010EDBCF0CF0020EDBCF0DF0030E79
:102FE0009EEC34F070EC33F040EC30F00C0E47EC1B
:102FF00030F00B0EDBCFEEFF0C0EDBCFEDFFE4EC81
:1030000032F092EC41F0ABEC33F0166A176AD8EC70
:1030100033F0DFCF06F0010EDBCF07F0020EDBCF7F
:1030200008F0030E23EC42F0E6EC31F0BAEC30F09D
:10303000D8EC31F0E4EC32F059EC3CF0CFEC37F066
:10304000040EDBCF0BF0050EDBCF0CF0060EDBCF52
:103050000DF0070E9EEC34F0AFEC33F060EC41F075
:1030600047EC30F0DFCFEEFF010EDBCFEDFF74EC6D
:103070003FF080EC37F04EE2D7EC42F054EC30F009
:1030800017EC02F0EAEC30F0E76E0A0EE7CFDBFF58
:10309000DB5040E00A0EDB503C0839E140EC30F0F8
:1030A000160E72EC39F0010B17E078EC3FF074EC7F
:1030B0003FF0010EEE1805E1EE5003E1EE5001E1A4
:1030C000EE5002E003EC40F0E66A54EC30F0C8EC5D
:1030D00036F000091FE01BD078EC3FF003EC40F025
:1030E000DB5015E1E4EC32F0180EFBEC3FF00C0E77
:1030F00021EC3AF0E4EC32F092EC41F0EF04E66EB1
:1031000060EC41F047EC30F091EC35F003D0010178
:103110000F0E27D06FEC3FF05FEC30F02DEC37F066
:10312000D3EC3BF060EC41F0B0EC41F074EC3FF0DC
:10313000DF50EE26010EDB50EE22020EDB50EE22B7
:10314000030EDB50EE225AEC39F0AB6BE4EC32F0BC
:1031500099EC39F074EC3FF0A6EC39F005E101018F
:103160001B0E5CEC38F010D0040EDBCFA5F0050E82
:10317000DBCFA6F0060EDBCFA7F0070EDBCFA8F063
:1031800001010F6BF36AF46A0F0EE15C02E2E16A7F
:10319000E552E16ED0EF30F0D9CFE6FFE1CFD9FFB5
:1031A0000E0EE126FD0EDBCFF6FFFE0EDBCFF7FFA6
:1031B0000D0EDB6A0D0EDB50146E156A0D0E145CDD
:1031C000000E155812E20900D9CF14F0DACF15F02D
:1031D0000D0EDB500F011424E96E000E1520EA6E6F
:1031E000F5CFEFFF0D0EDB2AE5D7FB0EDBCFE6FFB9
:1031F000FC0EDBCFE6FFD9CFE6FFDACFE6FFA8EC87
:103200000DF0E552E552E552E55200D00E0EE15CBC
:1032100002E2E16AE552E16EE552E7CFD9FF120022
:10322000CBEC30F0100EE1260D0EDB6ADB50E76EC2
:10323000FD0EDBCFF6FFFE0E8AEC37F00D0EDB50F5
:103240000F01D92427EC42F0D0EC39F0C5EC3CF06A
:103250000D0EDB50D9240BEC38F003E00D0EDB2A09
:10326000E5D70D0EDB6A020EF36E0D0E71EC31F038
:1032700014E20D0EDB50E76EFB0EDBCFF6FFFC0E0B
:103280008AEC37F0D9500E0F99EC41F00D0EDB505F
:1032900053EC41F00D0EDB2AE6D7D9500E0FAAEC05
:1032A00039F0DDEC34F04FEC0EF0D4EC30F0100ED1
:1032B000E15C02E2E16AE552E16ED0EF30F0D9CF95
:1032C000E6FFE1CFD9FF0E0EE126FD0EDBCFF6FFC4
:1032D000FE0EDBCFF7FF0D0EDB6A0D0EDB50146E1A
:1032E000156A0D0E145C000E155812E20900D9CFB4
:1032F00014F0DACF15F00D0EDB500F011424E96E37
:10330000000E1520EA6EF5CFEFFF0D0EDB2AE5D794
:10331000D9CFE6FFDACFE6FF51EC0FF0E552E552E8
:1033200000D00E0EE15C02E2E16AE552E16EE55288
:10333000E7CFD9FF1200D9CFE6FFE1CFD9FF0E0EBC
:10334000E126FD0EDBCFF6FFFE0EDBCFF7FF0D0E05
:10335000DB6A0D0EDB50146E156A0D0E145C000E48
:10336000155812E20900D9CF14F0DACF15F00D0E7E
:10337000DB500F011424E96E000E1520EA6EF5CF24
:10338000EFFF0D0EDB2AE5D7F90EDBCFE6FFFA0ED5
:10339000DBCFE6FFFB0EDBCFE6FFFC0EDBCFE6FF6D
:1033A000D9CFE6FFDACFE6FF99EC29F0146E060ECE
:1033B000E15E145000D00E0EE15C02E2E16AE552DB
:1033C000E16EE552E7CFD9FF1200CBEC30F0190ED9
:1033D000E12638EC39F00B0EDB6A0C0EDB6A0001DB
:1033E000AB6B40EC3FF0020A38E0030A1EE0020A31
:1033F00034E1A3EC31F0040E5AEC32F0DF6A110E26
:10340000DB682EEC39F00F0EF36E140EF3CFDBFFFA
:10341000F80E14EC3CF0160EDB68170EDB680F0E8E
:10342000F36E180EF3CFDBFF26D0A3EC31F0030EC2
:103430005AEC32F0010EA6EC33F0D6EC3EF014500C
:10344000DF6E09EC32F0E1EC33F0AEEC35F00F0E4C
:10345000F36E160EF3CFDBFF0AD0A3EC31F0020EB1
:103460005AEC32F0DF6AAEEC35F0160EDB68170E60
:10347000DB6A180EDB6A38EC3CF0010EDBCF06F09D
:10348000020EDBCF07F0030EDBCF08F0040E77EC63
:103490003AF0060EACEC3AF056EC33F0EFEC40F0BC
:1034A00009EC32F094EC37F0050FF9EC38F04CE110
:1034B0009F51EE1849E1A051EE1846E1A151EE18D6
:1034C00043E142E1BDEC42F05DE040EC3FF0020838
:1034D00067E002EC3BF001E09AD0D9EC30F0AFECC1
:1034E00034F006E098EC38F0E1EC33F0E706FCE16C
:1034F000F1EC39F0F6EC3EF03FEC35F043EC32F015
:1035000010E10001A25103E0E9EC3AF030E125ECD2
:103510003EF0050F82EC41F025E02CEC36F0FEEC9D
:1035200038F0D9EC30F0BCEC34F007E014EC35F0B6
:103530006AE0ABEC32F0FDE166D069EC40F063E0AC
:10354000ABEC32F0FDE15FD0A25103E0E9EC3AF0E0
:103550000EE18CEC36F0D950050F83EC39F0A6EC77
:1035600039F00BE100019E699F69A06BA16B110E00
:10357000DBCF14F078EC38F06AD02CEC36F0BDECF0
:1035800042F00AE1D9EC30F01EEC3CF0090EEECF2F
:10359000DBFF36EC32F03BD040EC3FF0020811E1AB
:1035A000D9EC30F01EEC3CF0FDEC30F0090E14C00C
:1035B000DBFF0A0E15C0DBFF0B0EDB6A0C0EDB6AAD
:1035C00026D002EC3BF023E1D9EC30F0AFEC34F044
:1035D00006E098EC38F0E1EC33F0E706FCE1F1ECC2
:1035E00039F0D9EC30F0BCEC34F007E014EC35F0F5
:1035F0000AE0ABEC32F0FDE106D069EC40F003E00C
:10360000ABEC32F0FDE1D950090F66EC31F0150E4C
:10361000DBCF14F0160EDBCF15F0170EDBCF16F054
:10362000180EDBCF17F0D950090F83EC39F08AEC74
:1036300032F009E3D950150F83EC39F0090EEECFC3
:10364000DBFF36EC32F01AEC42F047EC39F0DBCF1E
:1036500017F0D3EC32F0190EE15C02E2E16AE552B8
:10366000E16ED0EF30F0CBEC30F0130EE126BDEC84
:1036700042F00DE040EC3FF0020809E002EC3BF0C4
:1036800006E00668076808680F0E096E7AD140ECFC
:103690003FF0010A0EE0030A0CE0010A0AE10F0EF6
:1036A000DB68100EDB68110EDB680F0E3DEC39F0A5
:1036B00008D00F0EDB68100EDB68110EDB6A120EED
:1036C000DB6A0001AB6BF40EDB500FE0B9EC35F0B8
:1036D000C9EC41F007E2F9EC40F001E108D195ECCA
:1036E00040F0F6D70001A26B48D140EC3FF0020A4F
:1036F0001BE0030A06E0020A17E1A3EC31F0040E16
:1037000016D0A3EC31F0030E01EC34F0A6EC33F04C
:1037100090EC34F011EC31F0010E14C0DBFF90ECB2
:1037200034F0E1EC33F006D0A3EC31F0020E01EC02
:1037300034F0DB6A38EC3CF0030EDBCF06F0040E0D
:10374000DBCF07F0050EDBCF08F0060E77EC3AF082
:10375000060EACEC3AF070EC33F0EFEC40F090EC8D
:1037600034F094EC37F00B0FF9EC38F008E19F518E
:10377000EE1805E1A051EE1802E1A151EE181AE091
:10378000A2510EE0B9EC35F0C9EC41F007E2F9ECDA
:1037900040F001E1ACD095EC40F0F6D70001A26B0F
:1037A0008CEC36F0A9EC42F0A6EC39F001E19AD0AD
:1037B00039EC36F0BDEC42F02BE19EEC38F0E66ED1
:1037C00034EC31F0D0EC39F08AEC41F0B2EC32F06C
:1037D000FDE134EC31F0010E2CEC3EF01668176A76
:1037E0004DEC3AF0100EB2EC32F0FDE134EC31F079
:1037F000020E2CEC3EF0166A0F0E176E4DEC3AF0EE
:10380000180EB2EC32F0FDE134EC31F0030E11D0C1
:1038100040EC3FF0020812E134EC31F0F50EDBCF62
:10382000EFFF8AEC41F0B2EC32F0FDE134EC31F024
:10383000010E47EC30F014C0EFFF9CD002EC3BF0DF
:1038400001E098D028EC3DF01DE00F0EA6EC33F01F
:103850004DEC3AF0040E1F0B03E0ABEC32F0FDE14F
:10386000020EDB500F0B196A1A6A1B6AE850141219
:10387000195015121A5016121B501712020E14C0AE
:10388000DBFF04D09EEC38F02BEC38F034EC31F058
:10389000020EDBCFEFFF010EA6EC33F090EC34F01C
:1038A00083EC42F0030E14C0DBFF040E15C0DBFFF7
:1038B000050E16C0DBFF060E17C0DBFF030EDBCFC5
:1038C00014F0040EDBCF15F0FDEC3DF043EC32F0CC
:1038D00019E1E9EC3AF00BE125EC3EF00B0F82EC3C
:1038E00041F00CE100019E699F69A06BA16B02ECA5
:1038F00032F0EBEC38F0D3EC32F043D039EC36F068
:10390000FEEC38F028EC3DF011E0F50EDBCF14F0C2
:10391000F60EDBCF15F0F70EDBCF16F0F80EDBCF8F
:1039200017F0040EB2EC32F0FDE11CD0F50EF60EED
:10393000DBCF19F0F70EF80E19C014F0176A0F0E4E
:103940001416156A166A176A020EDB50F00B1D6A10
:103950001E6A1F6AE85014121D5015121E501612CE
:103960001F501712020E14C0DBFF34EC31F0020EB0
:10397000DBCFEFFF0001010EA26F066A076A086A3B
:10398000096A130EE15C02E2E16AE552E16ED0EFF2
:1039900030F0CBEC30F0E8EC3BF007D896EF3BF0A2
:1039A00033EC3EF002D896EF3BF0CBEC30F0460E15
:1039B000E12696EC35F0010E52EC3BF068EC34F069
:1039C00039EC3EF00C0E08C0DBFF0D0E93EC32F02C
:1039D0003FEC37F0A8EC3AF0440E14C0DBFF450E84
:1039E000DACFDBFFC3EC3FF0EBEC32F0BFEC3FF0A3
:1039F00001010F6BFE0EDB5006E0B6EC31F014AEA9
:103A000006D0156804D018EC3BF014BE1568C1EC64
:103A100031F08CEC39F001E12ED1000EDFCF08F04F
:103A2000010EDBCF09F05C0E081801E1095001E13D
:103A300007D12E0E081801E1095007E00DEC32F015
:103A4000FE0EDB5001E16DD14BD1FE0EDB500AE0E2
:103A5000B6EC38F001E3DB2AB6EC31F014AE0AD054
:103A6000156808D060EC38F001E3DB2A18EC3BF075
:103A700014BE1568EFEC3BF001E0B5D0ED5001E06D
:103A8000B2D0FE0EDB500AE0B6EC38F001E3DB2AE0
:103A9000B6EC31F014AE0AD0156808D060EC38F0FE
:103AA00001E3DB2A18EC3BF014BE1568C1EC31F0E1
:103AB0001AEC31F014EC3BF00BE1EE500C1908E17C
:103AC000EE500D1905E1EE500E1902E101E1D3D0DF
:103AD000D0EC3FF0010E52EC3BF0CAEC40F0EBECC6
:103AE00032F09EEC39F0080EF3CFDBFF090EF4CF75
:103AF000DBFFC4EC36F0EE50ED1050E02DEC37F06B
:103B000057EC3BF006C014F08EEC33F01AEC31F0B9
:103B10002C0ECDEC3EF0D0EC3FF01AEC31F02C0E38
:103B20000EEC42F018E166EC42F001E3DB2ACEEC49
:103B30003CF069EC32F005E2DAEC42F0FAE3DB2A21
:103B4000F8D71AEC31F0300E05EC3AF01AEC31F0FF
:103B5000C3EC42F01AD066EC42F001E3DB2A9CECA5
:103B600031F02E0EEF6EFFEC3FF0A3EC32F001E3EC
:103B7000DB2A9CEC31F02E0EEF6E69EC32F005E2A0
:103B8000DAEC42F0FAE3DB2AF8D776EC34F0CAEC50
:103B900040F0EBEC32F003EC3CF003E101011B0ED2
:103BA0006BD0D4EC39F01AE1ED5018E1FE0EDB5089
:103BB0000AE0B6EC38F001E3DB2AB6EC31F014AEE3
:103BC0000AD0156808D060EC38F001E3DB2A18EC65
:103BD0003BF014BE1568C1EC31F0E3D78CEC39F042
:103BE00001E01BD75ED18CEC39F001E15AD1D4EC65
:103BF00039F024E1ED5022E1D4EC39F01AE1ED5036
:103C000018E1FE0EDB500AE0B6EC38F001E3DB2AE7
:103C1000B6EC31F014AE0AD0156808D060EC38F07C
:103C200001E3DB2A18EC3BF014BE1568C1EC31F05F
:103C3000E3D78CEC39F001E0F0D633D101011BD091
:103C4000FE0EDB500AE0B6EC38F001E3DB2AB6ECFE
:103C500031F014AE0AD0156808D060EC38F001E3FA
:103C6000DB2A18EC3BF014BE15682CEC42F006E1A0
:103C7000ED5004E101011F0E0F6FCAD08CEC39F03A
:103C800017E1C8EC3FF00DEC32F035EC40F0A3EC5E
:103C900032F001E3DB2ACEEC3CF069EC32F001E3D8
:103CA00004D135EC40F09AEC3BF0F7E3DB2AF5D792
:103CB0001AEC31F0C3EC42F01AEC31F0300E05ECA6
:103CC0003AF066EC42F001E3DB2ACEEC3CF069EC22
:103CD00032F001E3A2D6DAEC42F0F9E3DB2AF7D7BF
:103CE00030EC42F08CEC39F03EE0D4EC39F001E1FC
:103CF000ED5039E0D3EC3CF036E275EC36F001E300
:103D0000DB2A05EC39F00C0EDB2ADBCFF6FF0D0EBB
:103D100001E3DB2AF6EC3BF014BE1568C1EC31F090
:103D2000E1D730EC42F08CEC39F01DE0D4EC39F006
:103D300001E1ED5018E0D3EC3CF015E275EC36F003
:103D400001E3DB2A05EC39F00A0E62EC39F00B0EC8
:103D500001E3DB2ADBCFEAFFABEC33F014BE1568DE
:103D6000C1EC31F0E0D775EC36F001E3DB2AD90E77
:103D7000E926010EEA22EF6A3CEC31F01450165CA1
:103D80001550175827E28CEC39F024E0D4EC39F0C8
:103D900001E1ED501FE0FE0EDB500DE00C0EDB2AC2
:103DA000DBCFF6FF0D0E01E3DB2AF6EC3BF014AEA1
:103DB0000ED015680CD00A0E62EC39F00B0E01E340
:103DC000DB2ADBCFEAFFABEC33F014BE1568C1ECA5
:103DD00031F0D9D7E66AEBEC32F04CEC39F0AFECCD
:103DE00015F033EC33F014E0EBEC32F033EC3AF056
:103DF000EBEC32F0FFEC32F083EC40F003E0010139
:103E00000C0E05D001017351100B05E11F0E0F6F51
:103E1000F368F4684CD00DEC32F069EC32F00FE24C
:103E200002EC31F0640EE926010EEA22EF50E66E54
:103E3000FFEC3FF03FEC3EF0F0E3DB2AEED71AEC6C
:103E400031F0ECEC40F04BC1EEFF4CC1EEFF4DC148
:103E5000EEFF4EC1EEFFD0EC3FF08CEC39F021E0EC
:103E6000D4EC39F001E0D9D5ED5001E0D6D5FE0E05
:103E7000DB500AE0B6EC38F001E3DB2AB6EC31F0B7
:103E800014AE0AD0156808D060EC38F001E3DB2AE4
:103E900018EC3BF014BE1568C1EC31F08CEC39F035
:103EA000DFE1EBEC32F076EC39F0F36AF46A460EBF
:103EB000E15C02E2E16AE552E16ED0EF30F0CBEC7A
:103EC00030F0190EE12645EC3EF004E10A0E146EC6
:103ED000156A02D0C1EC38F0C1EC31F056EC32F08A
:103EE000490EEE6E010EED6E080EDB6A120EFDEC51
:103EF00037F0150EDB6A01010F6B45EC3EF007E170
:103F0000BEEC32F0E70EEE6E010EED6E0BD06CECF7
:103F100035F04CEC35F010EC3CF0EE50ED1002E1D9
:103F20001F0E74D1F3EC31F01406000E155A53EC49
:103F300034F0C3EC3FF01DEC40F0BFEC3FF065EC1B
:103F400030F01B0E72EC39F02E0801E0ADD065ECBC
:103F500030F01B0E45EC41F02E0801E0A5D065ECD9
:103F600030F0ECEC40F0E9EC3EF0010ECEEC36F037
:103F7000DB6AD8EC3FF0010EE66E8AEC31F053E0DC
:103F80004CEC3EF001019BEC35F005E165EC30F0C6
:103F9000C3EC42F004D065EC30F091EC3CF0D8EC8E
:103FA0003FF007EC3CF0010EE66E8AEC31F03BE0AE
:103FB0004CEC3EF0E0EC3FF001010650EE182AE137
:103FC0001151EE1827E11251EE1824E11351EE18A9
:103FD00021E120E1E0EC3FF01051EE1827E1115112
:103FE000EE1824E11251EE1821E11351EE181EE1F2
:103FF0001DE16FEC34F0EF50E5080CE06FEC34F0AD
:10400000C0EC42F0080806E06FEC34F0C0EC42F07F
:104010000F080CE10E0EDB2A0F0E01E3DB2AE66A25
:104020008AEC31F0C5E101011B0EF0D0D950120F1E
:1040300098EC42F02FE1090EDB6ADBCF14F00B0E97
:10404000E76E1418E8AE02D0E73402D0E750145CF3
:1040500021E26FEC34F0D8EC37F01ABE1B68E1ECCB
:1040600037F0D0EC40F016BE17681FEC42F06FEC52
:1040700034F0D8EC37F01ABE1B68E1EC37F035ECC1
:1040800040F049EC38F016BE17681FEC42F0090EFC
:10409000DB2AD3D765EC30F02C0E30EC3DF065EC2C
:1040A00030F0300E30EC3DF065EC30F01B0E72EC71
:1040B00039F05C0807E010EC3CF0020EEE180FE15E
:1040C000ED500DE102EC31F05C0EEF6E010EE76E8B
:1040D00002EC31F0E75047EC30F0EF6A05D1E4EC48
:1040E0003EF065EC30F014EC3BF008E1EE500C19BA
:1040F00005E1EE500D1902E1EE500E1901E18AD0F2
:104100000A0EF36E090EF3CFDBFFD0EC40F016BEC3
:1041100017689CEC31F0EF50200803E1090EDB0634
:10412000F4D7090E86EC35F0E8AE02D0E73402D0C1
:10413000E750145C2CE3090E86EC35F0E8AE02D0B3
:10414000E73402D0E750145C12E332EC3BF018BEC7
:104150001968B9EC3BF001E3DB2AD0EC41F0EBE16C
:10416000DE52DD501518E7E12BEC33F0E4D788EC94
:1041700034F001E3DB2A87EC39F02E0E25EC33F026
:1041800006E1DE52DD50151802E12BEC33F0D0ECE5
:1041900040F016BE17689CEC31F0EF50200803E1A8
:1041A000090EDB06F4D7090EDBCF14F0143412E24B
:1041B00032EC3BF018BE1968B9EC3BF001E3DB2AA6
:1041C000D0EC41F0F0E1DE52DD501518ECE12BECC3
:1041D00033F0E9D788EC34F001E3DB2A87EC39F0DF
:1041E0005C0E25EC33F006E1DE52DD50151802E1DD
:1041F0002BEC33F0D8EC3FF01DEC40F07FD8E552CB
:10420000E552000901E16DD70101080E0F6FF36A55
:10421000F46A6CD0140EDB06150E01E2DB06120EFA
:10422000DB6A130EDB6A080EDB5043E046EC36F027
:10423000C2EC32F00DE251EC39F00AE290EC30F0D1
:1042400001E2DB06120EDB2A130EF2E3DB2AF0D7C3
:10425000010EE76E46EC37F0E7501426000E1522EB
:10426000120E14C0DBFF130E15C0DBFF52EC3EF044
:10427000020EDB50165C146E030EDB501758156EE1
:10428000140E14C0DBFF150E15C0DBFFC2EC32F0BC
:104290000DE251EC39F00AE290EC30F001E2DB067D
:1042A000120EDB2A130EF2E3DB2AF0D77DEC30F09E
:1042B0001AD046EC36F0C2EC32F00DE251EC39F097
:1042C0000AE290EC30F001E2DB06120EDB2A130E5C
:1042D000F2E3DB2AF0D746EC37F087EC39F0010E39
:1042E000E926000EEA22EF6A48EC34F0190EE15C90
:1042F00002E2E16AE552E16ED0EF30F0B2EC3CF060
:10430000010EF3EC33F0DB6A35EC42F001E18CD0C6
:10431000FDEC3BF001019BEC35F021E140EC30F08D
:1043200080EC42F05C0EEF6EDE6ADD6A0CEC33F07E
:10433000D890155002E664EC3AF007E2A1EC42F0A6
:104340003DEC34F0F3E3DB2AF1D740EC30F0C3EC82
:1043500042F040EC30F0300E05EC3AF077D0060E2B
:1043600010C1DBFF070E11C1DBFF080E12C1DBFF1E
:10437000090E13C1DBFF40EC30F091EC3CF0F1ECA6
:104380003FF0EAEC33F035EC42F04EE0FDEC3BF070
:1043900001019BEC35F005E140EC30F0C3EC42F05C
:1043A00004D040EC30F091EC3CF021EC3FF096EC86
:1043B00035F035EC42F038E0FDEC3BF056EC32F0F5
:1043C00001010650EE182AE11151EE1827E11251B1
:1043D000EE1824E11351EE1821E120E156EC32F001
:1043E0001051EE1829E11151EE1826E11251EE1884
:1043F00023E11351EE1820E11FE1CDEC31F0EF5035
:10440000E5080CE0CDEC31F072EC39F0080806E07C
:10441000CDEC31F072EC39F00F080EE1E66A06ECF3
:1044200042F059EC31F002E1FF0E2FD0040EDB2AEE
:10443000050EC2E3DB2AC0D740EC30F0ECEC40F0D4
:1044400086EC32F0F1EC3FF086EC32F0DE6ADD6AA9
:104450008CEC39F019E10DEC32F006EC3BF0D89021
:10446000155002E664EC3AF00FE2CDEC31F0CEEC00
:1044700032F022EC32F0EF50E66EA1EC42F03FEC6D
:104480003EF0EBE3DB2AE9D7000E146E0C0EE15C84
:1044900002E2E16AE552E16E1450D0EF30F0CBEC6D
:1044A00030F0E8EC3BF007D896EF3BF033EC3EF011
:1044B00002D896EF3BF0CBEC30F0260EE1260DEC67
:1044C00032F096EC35F061EC3CF0080E08C0DBFFF2
:1044D000090E93EC32F00A0E08C0DBFF0B0E09C088
:1044E000DBFF69EC3CF003EC38F0150EEE6E010ECC
:1044F000ED6E94EC34F02E0EEE6EEE6EEE6AF36E10
:10450000130EF3CFDBFF140EDB6A2E0E14EC3CF01F
:10451000160EDB6A170EDB6A07EC38F003E00101C8
:10452000180E3BD2FE0EDB0455E1DE6ADD6A23EC99
:104530003CF011E023EC3CF02E080DE023EC3CF0C5
:104540005C0809E096EC36F001E3DB2ADF2A010E75
:10455000EEE3DB2AECD7BAEC30F0080E4EEC38F084
:1045600001E2D7D10DEC32F023EC3CF02E081CE137
:1045700096EC36F001E3DB2A23EC3CF00EE023EC72
:104580003CF05C080AE096EC36F001E3DB2A020E10
:10459000DB2A030EF1E3DB2AEFD7BEEC32F0030E89
:1045A0004EEC38F001E2B5D1F3EC31F0FFEC36F02F
:1045B00004E2F3EC31F053EC34F023EC3CF05C0813
:1045C00005E196EC36F0F9E3DB2AF7D723EC3CF073
:1045D000ACE154D0DE6ADD6A27EC3CF011E027EC58
:1045E0003CF02E080DE027EC3CF05C0809E0FDEC07
:1045F00033F001E3DB2ADF2A010EEEE3DB2AECD7FE
:10460000BAEC30F0080E4EEC38F001E282D10DEC3D
:1046100032F027EC3CF02E081CE1FDEC33F001E316
:10462000DB2A27EC3CF00EE027EC3CF05C080AE0CB
:10463000FDEC33F001E3DB2A020EDB2A030EF1E38B
:10464000DB2AEFD7BEEC32F0030E4EEC38F001E27D
:1046500060D1F3EC31F0FFEC36F004E2F3EC31F032
:1046600053EC34F027EC3CF05C0805E1FDEC33F052
:10467000F9E3DB2AF7D727EC3CF0ACE169EC3CF03E
:1046800061EC3CF039EC3EF059EC3EF0C3EC3FF00D
:1046900095EC33F0BFEC3FF0FE0EDB0406E11BECC3
:1046A0003AF014AE06D0156804D08EEC3AF014BE81
:1046B0001568EFEC3BF001E082D0ED5001E07FD0D7
:1046C000FE0EDB040AE196EC36F001E3DB2A1BEC7C
:1046D0003AF014AE0AD0156808D0FDEC33F001E3CF
:1046E000DB2A8EEC3AF014BE1568EFEC3BF001E1EA
:1046F000ED500AE08CEC39F007E0D4EC39F001E041
:1047000008D1ED5001E005D1BAEC30F02E0EEE18D4
:1047100034E1ED5032E1E0EC30F014EC3BF00BE131
:10472000EE500C1908E1EE500D1905E1EE500E198E
:1047300002E101E1EFD0FE0EDB040AE196EC36F077
:1047400001E3DB2A1BEC3AF014AE0AD0156808D05E
:10475000FDEC33F001E3DB2A8EEC3AF014BE156871
:104760002CEC42F001E1ED5004E08CEC39F001E07A
:10477000D1D0D950100F9CEC32F0D4EC39F01AE1C2
:10478000ED5018E1FE0EDB040AE196EC36F001E391
:10479000DB2A1BEC3AF014AE0AD0156808D0FDEC09
:1047A00033F001E3DB2A8EEC3AF014BE1568C1EC5D
:1047B00031F0E3D78CEC39F001E06ED7A8D0D4EC1F
:1047C00039F03DE1ED503BE1C8EC3FF0DE6ADD6AD7
:1047D00035EC40F0DFCF16F0DF2A010EDBCF17F00B
:1047E00001E3DB2ACEEC3CF00CEC33F064EC3AF065
:1047F00007E235EC40F03DEC34F0F6E3DB2AF4D789
:10480000FE0EDB040AE196EC36F001E3DB2A1BEC3A
:104810003AF014AE0AD0156808D0FDEC33F001E38D
:10482000DB2A8EEC3AF014BE15682CEC42F001E164
:10483000ED506DE08CEC39F001E02ED768D0FE0E23
:10484000DB0426E11BEC3AF014BE156872EC3CF078
:104850008CEC39F043E0D4EC39F001E1ED503EE06E
:10486000D3EC3CF03BE295EC3CF0A3EC32F001E3FE
:10487000DB2A9CEC31F0DFCFEFFF96EC36F001E362
:10488000DB2A1BEC3AF014BE1568C1EC31F0E0D71E
:104890008EEC3AF014BE156872EC3CF08CEC39F0FA
:1048A0001DE0D4EC39F001E1ED5018E0D3EC3CF020
:1048B00015E295EC3CF0A3EC32F001E3DB2A9CEC32
:1048C00031F0DFCFEFFFFDEC33F001E3DB2A8EECBC
:1048D0003AF014BE1568C1EC31F0E0D795EC3CF02D
:1048E000D6EC41F0DA20EA6EEF6A180EDB502E08A3
:1048F00013E1190EDB5004E0190EDB502E0807E11E
:10490000190EDB502E0808E11A0EDB5005E057ECBB
:1049100041F001011F0E41D060EC3EF015E0D9508E
:10492000180FAAEC39F04CEC39F0ADEC57F0D4ECA0
:1049300030F04CEC39F066D8E552E552BCEC31F081
:1049400025E157EC41F02AD0D4EC39F01AE1ED50D2
:1049500018E1FE0EDB040AE196EC36F001E3DB2AF7
:104960001BEC3AF014AE0AD0156808D0FDEC33F019
:1049700001E3DB2A8EEC3AF014BE1568C1EC31F08D
:10498000E3D78CEC39F001E05AD730D060EC3EF040
:1049900008E057EC41F001011B0E0F6FF368F4685B
:1049A00029D0FE0EDB040FE123EC3CF05C081AE199
:1049B00096EC36F001E3DB2A1BEC3AF014BE1568E6
:1049C000C1EC31F0F1D727EC3CF05C080BE1FDECD9
:1049D00033F001E3DB2A8EEC3AF014BE1568C1EC2B
:1049E00031F0F1D78CEC39F001E029D757EC41F0E8
:1049F000F36AF46A260EE15C02E2E16AE552E16ED6
:104A0000D0EF30F0CBEC30F00E0EE126490EDE6E2A
:104A1000010EDD6E96EC35F0E66AE5EC30F054EC14
:104A200030F0AFEC15F033EC33F004E10101120E7D
:104A30000F6F5AD04DEC42F0B3EC42F002EC42F072
:104A4000FDEC30F08BEC30F0B9EC32F0010EE66E9C
:104A5000120EE66E6DEC32F0DDEC41F0000944E13F
:104A60000001A2510CE0FCEC31F041EC41F0C6EC4D
:104A700031F09BEC35F003E00101090E34D08BECF2
:104A800030F014EC3BF00FE1EE500C190CE1EE505D
:104A90000D1909E1EE500E1906E105E1D7EC3CF0E5
:104AA00053EC38F009D08BEC30F0ECEC40F036EC05
:104AB00032F00D0EEECFDBFF8BEC30F02C0E66ECFF
:104AC00039F08BEC30F0300E6AEC39F0010EE66E06
:104AD0006DEC32F0E5EC30F09EEC39F0C7EC3DF0D7
:104AE00005E101011B0E0F6FF36A21D05AEC35F07E
:104AF00057EC3BF0060E06C0DBFF070E07C0DBFFDE
:104B000059EC3EF0E0EC3FF05FEC30F056EC32F068
:104B10005FEC30F041EC41F013D8146E0A0EE15E08
:104B20001450000903E0010EF36E01D0F36AF46A39
:104B30000E0EE15C02E2E16AE552E16ED0EF30F088
:104B4000CBEC30F02A0EE126D950040F99EC41F05D
:104B5000240E14C0DBFF250EDACFDBFF5AEC39F050
:104B6000200ED3EC34F0030EDB6A6BEC3BF02E0E20
:104B7000D1EC3EF0010EDE6EDD6A0CEC33F044EC5D
:104B800038F007E2D950040FC7EC35F0F6E3DB2A22
:104B9000F4D7DE6ADD6A0CEC33F0030E145C000E11
:104BA000155807E2D9500C0FC7EC35F0F4E3DB2AB7
:104BB000F2D7100EF2EC38F0DAEC3EF0E0EC40F018
:104BC00011EC31F053EC36F0F90FDDEC42F0100E41
:104BD000B2EC32F0FDE10CEC39F0200EDB6A210E74
:104BE000DB6A220EDB6A230EDB6A110E00C1DBFFDB
:104BF000120E01C1DBFF130E02C1DBFF140E03C155
:104C0000DBFF150E04C1DBFF160EDB6A170EDB6A35
:104C10001A0EDB6A1B0EDB6A1C0EDB6A1D0EDB6ADA
:104C2000DE6ADD6AE3EC41F01AE2240EDBCF16F017
:104C3000250EDBCF17F0DE501624E96EDD5017206D
:104C400095EC41F00CEC33F040EC30F036EC35F004
:104C5000D0EC39F0DF2A010EE5E3DB2AE3D72E0E94
:104C6000D8EC34F0DAEC3EF04DEC3AF053EC36F0A0
:104C7000F50FDDEC42F0100EB2EC32F0FDE10CEC81
:104C800039F0DE6ADD6AE3EC41F019E2240EDBCF95
:104C900018F0250E43EC35F0EF50E66EDECF16F03F
:104CA000DDCF17F040EC30F026EC37F087EC39F030
:104CB000D0EC39F0DF2A010EE6E3DB2AE4D72AEC58
:104CC0003BF0260E06C0DBFF270E07C0DBFF280ED9
:104CD00008C0DBFF290E09C0DBFFE66A39EC40F0B3
:104CE000D950260F83EC39F0C1EC3CF005E101010D
:104CF000090E0F6F000E01D0010E146E2A0EE15C3A
:104D000002E2E16AE552E16E1450D0EF30F099EC26
:104D10003CF0E8EC3BF00FD8EAEC30F0D0EF30F0AC
:104D200099EC3CF054EC30F0DEEC36F004D8EAECD0
:104D300030F0D0EF30F0CBEC30F0250EE126150E40
:104D4000DE6E010EDD6EBEEC32F0490EEE6E010E2F
:104D5000ED6E76EC34F053EC38F0D9501D0F83EC47
:104D600039F02E0EEE6EEE6EEE6AF36E200EF3CF7D
:104D7000DBFF210EDB6A2E0EF36E220EF3CFDBFF7C
:104D8000230EDB6A240EDB6A01010F6BC3EC3FF0DC
:104D9000B5EC3DF0FE0EDB5010E0FA0EDBCFE6FF87
:104DA000FB0EDBCFE6FFDEEC36F0D5EC1CF0FBECC7
:104DB0003EF0BCEC31F00FE051D2FC0EDBCFE6FF51
:104DC000FD0EDBCFE6FFC9EC1CF0E552E552BCEC72
:104DD00031F001E043D2E0EC30F014EC3BF008E1BC
:104DE000EE500C1905E1EE500D1902E1EE500E19CE
:104DF00001E1DBD09FEC40F00BE11550EE1808E12B
:104E00001650EE1805E11750EE1802E101E1CDD081
:104E1000FDEC33F001E3DB2A010EE66E1CEC3BF007
:104E200001E1E3D1FDEC33F001E3DB2AE66A1CEC9F
:104E30003BF001E1DAD1F90EDB5016E17DEC30F008
:104E4000EF5001E1E1D1DCEC3CF005E03DEC40F05D
:104E50000101160E0FD2FDEC33F001E3DB2AE66A06
:104E60001CEC3BF0EBE1C1D10101146BD7EC3CF041
:104E70000101145101E0C8D17DEC30F0EF5001E1A7
:104E800015D1DCEC3CF005E02DEC40F00F0801E121
:104E900000D1DCEC3CF001E1F8D02DEC40F008084A
:104EA00001E1F3D02DEC40F00F0801E1EED02DEC44
:104EB00040F0100B100801E084D060EC38F001E302
:104EC000DB2A0E0EDB6A86EC35F0E8AE02D0E73462
:104ED00002D0E750145C15E27DEC30F0E9CF15F01C
:104EE000EACF16F064EC38F066EC3BF00AE07DECBB
:104EF00030F0CEEC32F00E0EBAEC42F03BEC32F079
:104F0000E2D77DEC30F039EC42F031E0A8EC3AF039
:104F10000E0E7AEC35F0A5EC3AF02E0EEF6E0F0E79
:104F2000DB6A19EC38F0E8AE02D0E73402D0E75083
:104F3000145C1DE289EC40F0E9CF15F0EACF16F0E1
:104F40000F0EDB5066EC3BF012E089EC40F0CEEC4B
:104F500032F00F0EBAEC42F031EC41F0DBCFF3FF50
:104F6000DB2AF35053EC41F00F0EDB2ADAD7A8EC22
:104F70003AF064EC38F0A5EC3AF0EF6AD950100F33
:104F80009CEC32F00E0EF3CFDBFFDB5001E064D17E
:104F90009FEC40F00FE11550EE180CE11650EE18A2
:104FA00009E11750EE1806E105E13DEC40F0010182
:104FB0001F0E60D1020E52EC3BF00001010EAC6FEF
:104FC00068D00E0EDB6A86EC35F0E8AE02D0E7342E
:104FD00002D0E750145C09E27DEC30F0A9EC40F01F
:104FE000E4EC40F00E0EDB2AEED70E0EDB6A19EC75
:104FF00038F0E8AE02D0E73402D0E750145C0AE2A1
:1050000089EC40F0A9EC40F0080FE4EC40F00E0E03
:10501000DB2AEDD702EC31F07DEC36F002EC31F01A
:10502000E8EC42F0060EDBCFEEFF070EDBCFEDFF24
:10503000E0EC30F02C0E66EC39F002EC31F02C0E86
:105040006AEC39F0E0EC30F0300E66EC39F002EC4E
:1050500031F0300E6AEC39F002EC31F0020EA2ECC5
:1050600039F002EC31F0060EA2EC39F0CAEC40F057
:105070005AEC35F01EEC0DF033EC33F001E0F6D0D5
:10508000FDEC33F006E3DB2A04D0FDEC33F001E362
:10509000DB2A0001AC5104E0AC6B44EC3FF001D0E2
:1050A000E66A1CEC3BF001E0E3D69FD09DEC42F0B9
:1050B00001E1A7D035EC38F044EC3FF0D950080FAF
:1050C0006CEC30F001E191D03FEC38F0DBCFE6FF43
:1050D00057EC3BF0080E06C0DBFF090E07C0DBFFF4
:1050E00066EC3EF001E0B8D0020E52EC3BF044EC2E
:1050F0003FF01CEC3BF001E178D03FEC38F076EC6F
:1051000031F06CEC3EF0166A176A01010650141873
:1051100026E11151151823E11251161820E11351FF
:1051200017181DE11CE1080EDBCF18F0090EDBCFCC
:1051300019F01A6A1B6A105118181AE1115119183E
:1051400017E112511A1814E113511B1811E110E163
:10515000DCEC3CF004E02DEC40F0080809E1FDEC4B
:1051600033F001E3DB2AE66A1CEC3BF0C6E13DD0FC
:1051700053EC38F0E9EC41F02AE132EC34F086EC03
:1051800035F0E8AE02D0E73402D0E750145C07E215
:105190007DEC30F083EC3AF03BEC32F0F0D70E0EC1
:1051A000DB6A19EC38F0E8AE02D0E73402D0E75001
:1051B000145C0DE289EC40F083EC3AF031EC41F004
:1051C000DB50080F53EC41F00E0EDB2AEAD70AEC55
:1051D00037F0BCEC31F04AE1FDEC33F001E3DB2ABF
:1051E00044EC3FF01CEC3BF005E13DEC40F00101EC
:1051F0001B0E40D00A0EDB060B0E01E339D6DB0690
:1052000037D6010E146F34D65EEC39F03EEC42F026
:105210005FEC1FF0D4EC30F0BCEC31F003E13DEC7E
:1052200040F029D032EC34F0DBCF14F00B0EE76EF7
:105230001418E8AE02D0E73402D0E750145C09E25B
:10524000E0EC30F080EC42F083EC3AF03BEC32F0F2
:10525000EBD766EC3EF005E03DEC40F001010C0EB2
:1052600009D00AEC37F004EC33F008E03DEC40F0F4
:105270000101010E0F6FF368F46804D03DEC40F0BB
:10528000F36AF46A250EE15C02E2E16AE552E16E3E
:10529000D0EF30F0CBEC30F0370EE1261DEC3FF0D4
:1052A00003E0F368F4683DD0C3EC3FF0D4EC31F098
:1052B000BFEC3FF0020EDB6A0B0EEDEC3EF00EE2AF
:1052C000020E59EC40F0E66E35EC40F0020EDB5079
:1052D0000F01E4EC40F0020EDB2AEED7C3EC3FF006
:1052E00033EC3AF0FFEC32F0C3EC3FF083EC40F0EB
:1052F00010E1010EE66EE0EC30F01AEC3DF0C3EC8C
:105300003FF01EEC0DF00FEC38F003E1DE6ADD6AD1
:1053100002D0DE68DD68D4EC31F076EC39F0F8ECE0
:105320003AF0370EE15C02E2E16AE552E16ED0EF5D
:1053300030F0CBEC30F03A0EE126C5EC3CF0E8EC76
:1053400037F0010EE66EF2EC32F0FCEC3AF003E1DD
:105350000101120ED5D083EC31F02A0E47EC30F06B
:10536000EF6A390EDB6A0C0E00EC3FF00DE2390EED
:1053700059EC40F009E0390E59EC40F0E66E3DEC96
:105380003BF0E4EC36F0EFD70D0E00EC3FF006E218
:105390003DEC3BF0EF6A390EDB2AF6D783EC31F0B7
:1053A000250E47EC30F0FB0EDBCFEFFFE0EC30F0EA
:1053B0002C0E66EC39F083EC31F0260E6AEC39F0F5
:1053C0000FEC40F084EC30F026EC38F037EC41F094
:1053D000FB0EDBCFEEFFFC0EDBCFEDFF7EEC3FF0F4
:1053E00003E001010B0E8CD084EC30F0E8EC42F0CD
:1053F000360EEECFDBFF370EEDCFDBFF720EE66E23
:1054000034EC37F0F2EC32F067EC01F033EC33F0CF
:1054100075E1380EDB6A0D0E04EC3FF009E242EC58
:1054200042F0380E73EC42F0EF6A380EDB2AF3D705
:1054300037EC3DF001E1ED502AE0390EDB6A380E21
:10544000DB6A080E04EC3FF009E2EDEC41F00F01DD
:1054500066EC3BF003E011EC41F0F3D731EC40F0A7
:1054600039EC42F022E042EC42F0390E78EC3CF0AC
:10547000380EF3CFDBFF0B0E04EC3FF016E2EDEC41
:1054800041F066EC3BF011E011EC41F0F4D7390E3D
:10549000DB6A0B0E00EC3FF008E246EC3BF0390E05
:1054A000DB500F0109EC3AF0F4D784EC30F02A0E0F
:1054B00072EC39F0E66E83EC31F0B4EC40F083EC42
:1054C00031F00E0E77EC42F003E0ABEC32F0FDE190
:1054D0003CEC3DF083EC31F0CCEC42F07FEC39F069
:1054E00083EC31F0160E21EC3AF083EC31F02A0E09
:1054F0003DEC3CF0EF6EF36AF46A05D001011B0E3F
:105500000F6FF368F4683A0EE15C02E2E16AE5527B
:10551000E16ED0EF30F0CBEC30F0380EE126E8EC65
:1055200037F046EC42F072EC39F002E1070E47D05A
:1055300040EC30F0260E66EC39F0E0EC30F02C0E4A
:105540005CEC3BF008E11550EE1805E11650EE1842
:1055500002E11750EE1802E01F0E31D0010EE66E88
:10556000F2EC32F029EC40F0EFEC30F052EC37F096
:10557000EAEC13F00FEC38F003E10101120E1FD03A
:105580000FEC40F040EC30F0160E7FEC39F0010EDD
:105590001426000E152284EC30F0260E21EC3AF091
:1055A00040EC30F0250E72EC39F0E66E37EC41F04D
:1055B00091EC35F07EEC3FF005E001010B0E5CEC68
:1055C00038F06AD0370EDB6A0D0E08EC3FF009E2C6
:1055D00040EC30F0370E73EC42F0EF6A370EDB2A06
:1055E000F3D737EC3DF001E1ED502AE0360EDB6AEF
:1055F000370EDB6A080E08EC3FF009E2A0EC3AF047
:105600000F0166EC3BF003E0F4EC41F0F3D731EC32
:1056100040F039EC42F024E040EC30F0360E78EC0B
:105620003CF0370EF3CFDBFF0B0E08EC3FF018E237
:10563000A0EC3AF066EC3BF013E0F4EC41F0F4D768
:10564000360EDB6A0B0EF36E360E71EC31F008E2AB
:1056500031EC40F0360EDB500F013BEC3AF0F2D764
:1056600084EC30F02A0E22EC41F0B4EC40F0E8EC8F
:1056700040F077EC42F003E0ABEC32F0FDE13CECC3
:105680003DF040EC30F0CCEC42F0FBEC3FF0160E7D
:1056900021EC3AF0F36AF46A380EE15C02E2E16A66
:1056A000E552E16ED0EF30F099EC3CF0FD0EDBCF2F
:1056B000E6FF010EE66EE66AE66EE66AD950FE0F78
:1056C000E66EFF0EDA20E66E40EC11F0166E080E64
:1056D000E15E1650F4CF15F0010EF31801E11550FC
:1056E00003E0F368F46802D0F36AF46AD0EF30F0B4
:1056F000CBEC30F0FC0E3AEC38F000090AE054EC48
:1057000030F0FB0E0CEC3FF0F5E1151CF3E1010E5F
:1057100001D0000ED0EF30F0ADEC3CF0D950FB0FD3
:10572000146EFF0EDA20156E14C0DEFFDD6EE5ECA0
:1057300030F0EDEC39F00ED8EAEC30F038EC37F020
:1057400048EC34F0040EE15C02E2E16AE552E16EFD
:10575000D0EF30F0CBEC30F03B0EE126010EDB6AEF
:10576000020EDB6AFB0EDBCFF6FFFC0EF9EC32F02B
:10577000DF5002E133EF30F0250EDF5C02E01EEF78
:1057800030F0AFEC3DF001010F6B2BEC32F001E398
:10579000DB2AF9EC32F02D0EDF5C0CE02B0EDF5C27
:1057A00009E0200EDF5C06E0230EDF5C03E0300E34
:1057B000DF5C1EE1DF50300A14E0130A0FE0030A39
:1057C0000AE00B0A05E0060A0EE1030EDB800BD0AF
:1057D000030EDB8208D0030EDB8405D0030EDB86CC
:1057E00002D0030EDB882BEC32F0D3E3DB2AD1D7D7
:1057F0002A0EDF5C1FE1BFEC30F0FBEC34F010E070
:10580000030EDB8008680968130EDBCF0DF0140E61
:10581000DBCF0EF0F0EC58F0040E06C0DBFF03D037
:10582000130E98EC34F02BEC32F001E3DB2AF9ECA8
:1058300032F00FD0090EDB6AF1EC37F007E0C2EC72
:105840003BF001E3DB2AF9EC32F0F6D7090E98ECD5
:1058500034F0030EDBB0DB982E0EDF5C2DE12BEC79
:1058600032F001E3DB2AF9EC32F02A0EDF5C12E1C0
:10587000BFEC30F0FBEC34F006E1130E23EC38F013
:10588000010E11EC33F02BEC32F001E3DB2AF9ECE2
:1058900032F012D0090EDB6AF1EC37F007E0C2EC0F
:1058A0003BF001E3DB2AF9EC32F0F6D7090E23ECEA
:1058B00038F0010E11EC33F0680EDF5C0EE12BECDA
:1058C00032F001E3DB2AF9EC32F0680EDF5C2BE109
:1058D000030E10EC3FF025E317D0740EDF5C03E0FD
:1058E0007A0EDF5C04E12BEC32F01BE30DD0480EA6
:1058F000DF5C06E0540EDF5C03E05A0EDF5C06E17D
:10590000020E10EC3FF00DE3DB2A0BD06C0EDF5CD7
:1059100003E06A0EDF5C07E1010E10EC3FF001E3EB
:10592000DB2AF9EC32F0DF506E0A01E159D31E0A8E
:1059300001E199D1200A01E196D13F0A01E156D156
:105940001A0A01E153D10D0A01E150D1200A01E107
:105950004DD13A0A01E14AD1200A01E147D1260A94
:1059600001E142D10D0A01E13FD11A0A01E1DFD084
:10597000200A46E0300A19E0460A08E0250A01E05C
:105980006BD3FB0EDB06FC0E01E2DB068DDB250E86
:10599000E66E21EC31F003E1151C01E154D358EC23
:1059A00038F001E259D3DB2A57D3080EDB6A040E24
:1059B000DB50010806E2040EDB0487EC36F0D6EC7F
:1059C00040F0080EDB500AE0030EDB50010B06E14D
:1059D0007AEC39F001E037D3080EDB6AD0DBEFCF89
:1059E000DFFF88EC3AF003E1151C01E12CD358EC01
:1059F00038F001E3DB2A7AEC39F001E12DD323D32F
:105A0000070EDB5002080FE10DEC3BF0030E25EC16
:105A10003AF00E0EEECFDBFF0F0EEECFDBFF100ED7
:105A2000EECFDBFF1FD0F90EDBCF17F0FA0EDBCF86
:105A300018F0020E175E000E185AF90E17C0DBFFA1
:105A4000FA0E18C0DBFF17C0E9FF18C0EAFFD5DB6C
:105A5000166A0E0E14C0DBFF0F0E15C0DBFF100E12
:105A600016C0DBFF95EC33F0100EDBCFE6FFDCEC6D
:105A700057F0E552E552E552130E07C0DBFF140E56
:105A800008C0DBFF060EDB5006E0130E9FEC3BF078
:105A900002E243EC3DF0130EDB50CAEC3CF003E2B3
:105AA000130E98EC34F092EC3AF007E0040E9FEC01
:105AB0003BF003E2050E98EC34F0030EDBB006D0A9
:105AC0007AEC39F001E0BFD2080EDB6A090EDB6A1E
